:100000000C9492000C94BA000C94BA000C94BA00B0
:100010000C94BA000C94BA000C94BA000C94BA0078
:100020000C94BA000C9488090C94BA000C94BA0091
:100030000C94BA000C94BA000C94BA000C94BA0058
:100040000C943E090C94BA000C94BA000C94BA00BB
:100050000C94BA000C94BA000C94BA000C94BA0038
:100060000C94FA090C94BA0000000000230026004A
:1000700029002020202020505553482120202020D6
:10008000202000202020202020203120202020207F
:10009000202020002020202020202032202020206E
:1000A000202020200020202020202020332020205D
:1000B00020202020200000000000240027002A002B
:1000C0000000000800020100000304070000000017
:1000D0000000000001020408102040800102040812
:1000E0001020010204081020000000002500280054
:1000F0002B000404040404040404020202020202A9
:100100000303030303035365636F6E642053747228
:10011000696E6700466972737420537472696E6702
:100120000000190B11241FBECFEFD8E0DEBFCDBFFA
:1001300011E0A0E0B1E0EEE6F3E202C005900D921E
:10014000AA33B107D9F722E0AAE3B1E001C01D92BA
:10015000AA32B207E1F710E0C2E9D0E004C021976B
:10016000FE010E94BD0FC139D107C9F70E94390BAA
:100170000C94B5110C94000008950895AF92BF92AD
:10018000CF92DF92EF92FF920F931F93CF93DF9363
:100190006C017B018B01040F151FEB015E01AE1892
:1001A000BF08C017D10759F06991D601ED91FC91B4
:1001B0000190F081E02DC6010995892B79F7C501E1
:1001C000DF91CF911F910F91FF90EF90DF90CF9033
:1001D000BF90AF900895833081F028F4813099F07A
:1001E0008230A9F008958730A9F08830C9F08430B2
:1001F000B1F4809180008F7D03C0809180008F7763
:1002000080938000089584B58F7784BD089584B568
:100210008F7DFBCF8091B0008F778093B0000895E1
:100220008091B0008F7DF9CF1F93CF93DF93282F5C
:1002300030E0F901E054FF4F8491F901EC52FF4F97
:10024000D491F901EE50FF4FC491CC23A9F0162FA1
:1002500081110E94EB00EC2FF0E0EE0FFF1FE85140
:10026000FF4FA591B4918FB7F894EC91111108C08C
:10027000D095DE23DC938FBFDF91CF911F9108953E
:10028000DE2BF8CFCF93DF9390E0FC01EC52FF4FD1
:1002900024918E509F4FFC0184918823C9F090E0F7
:1002A000880F991FFC01EA54FF4FA591B491FC01FE
:1002B000E851FF4FC591D49161110DC09FB7F894DB
:1002C0008C91209582238C938881282328839FBF3B
:1002D000DF91CF910895623051F49FB7F8943C912B
:1002E000822F809583238C93E8812E2BEFCF8FB7BD
:1002F000F894EC912E2B2C938FBFEACF8E3008F020
:100300008E508770806480937C0080917A00806436
:1003100080937A0080917A0086FDFCCF80917800EE
:100320009091790008953FB7F8948091EA019091F7
:10033000EB01A091EC01B091ED0126B5A89B05C0A1
:100340002F3F19F00196A11DB11D3FBFBA2FA92F54
:10035000982F8827BC01CD01620F711D811D911D51
:1003600042E0660F771F881F991F4A95D1F70895BD
:100370008F929F92AF92BF92CF92DF92EF92FF92B5
:100380004B015C010E9493016B017C010E9493016F
:100390006C197D098E099F09683E7340810591059E
:1003A000A8F321E0821A9108A108B10888EEC80ECE
:1003B00083E0D81EE11CF11C81149104A104B10456
:1003C00029F7FF90EF90DF90CF90BF90AF909F9074
:1003D0008F9008958F929F92AF92BF92CF92DF92AB
:1003E000EF92FF92CF93DF93FC014A01AA24BB2432
:1003F000C32ED42EE52EFF24DC2DC22F8085982D10
:10040000882391F0C82FD0E0C89DD001C99DB00DC0
:10041000D89DB00D11249B2F8C9D60011124DD2DE2
:10042000829F90011124C32FA68521853285838563
:10043000A81321C0AB01440F551F640F751F620F35
:10044000731FA385A60FB72FB11D9C93A485A60F7C
:10045000B72FB11DDC938585680F711DFB01C0832B
:10046000DF91CF91FF90EF90DF90CF90BF90AF9052
:100470009F908F900895660F771F660F771F620F0A
:10048000731FA60FB72FB11D1C92DBCF2F923F9287
:100490004F925F926F927F928F929F92AF92BF9294
:1004A000CF92DF92EF92FF920F931F93CF93DF9340
:1004B00000D000D000D01F92CDB7DEB76C014B0149
:1004C000F12CE12C9701220F331F3A8329831E82DE
:1004D0001D822D803E80220C331CB12CA12C10E0FB
:1004E00000E06D817E81617077277C836B83D4010E
:1004F000ED91FC91E20DF31D0190F081E02DEA0DEC
:10050000FB1D4080518062807380D6011296ED9170
:10051000FC9129813A81E20FF31F0190F081E02DD7
:10052000E20DF31D0190F081E02DEA0DFB1D4082EC
:10053000518262827382D801A170BB276B817C815A
:10054000672B09F47FC0F801E095F0957E2F71705C
:100550007F83F6018481958166817781089F900170
:10056000099F300D189F300D1124269FA001279F51
:10057000500D369F500D1124AB2B09F467C09B0121
:10058000215031096D817E81261B370B289FB001D8
:10059000299F700D389F700D1124640F751FBF8146
:1005A000BB2309F45DC0680F791F615071096E1992
:1005B0007F09D601ED91FC9184819581FC01228116
:1005C00033816217730738F4A3019201222755275C
:1005D00024290E94EA010F5F1F4FF4E0AF0EB11C07
:1005E0000330110509F083CF2D813E812F5F3F4FEE
:1005F0003E832D832330310509F06BCF3FEFE31AA3
:10060000F30A62E0860E911C73E0E716F10409F02C
:1006100059CF27960FB6F894DEBF0FBECDBFDF913E
:10062000CF911F910F91FF90EF90DF90CF90BF90EF
:10063000AF909F908F907F906F905F904F903F9082
:100640002F900895802F81708F8383CFAD81BE81DD
:10065000A89FB001A99F700DB89F700D11249DCF68
:100660006E0D7F1DA6CF089585ED8093BC0080910F
:10067000BC0084FDFCCF1092F401089520917C0110
:10068000260F3327331F21323105ECF42091F4017A
:10069000FC0190E080E0243069F082E00895A091B0
:1006A0007C012191AC01445A5E4FA40FB52FB11DBE
:1006B0002C930196861798F380917C01680F6093C4
:1006C0007C0180E0089581E008950895E091F801AB
:1006D0008091F701E81730F4F0E0E45CFE4F808190
:1006E00090E008958FEF9FEF08959091F801809129
:1006F000F7012FEF3FEF981748F4E92FF0E0E45CA3
:10070000FE4F208130E09F5F9093F801C90108956A
:100710008091F7019091F801891B990B0895CF9270
:10072000DF92EF92FF920F931F93CF93DF937C01A1
:10073000CB018A012091C301222389F0EB016B01D7
:10074000C40ED51ECC15DD0569F06991D701ED9178
:10075000FC910190F081E02DC7010995F3CF642F42
:100760000E943E03C801DF91CF911F910F91FF902E
:10077000EF90DF90CF900895CF93DF931F92CDB786
:10078000DEB769832091C3012223F9F02091F5019E
:10079000203258F021E030E0FC013383228390E0E6
:1007A00080E00F90DF91CF9108958091F601E82FBE
:1007B000F0E0EC53FE4F998190838F5F8093F601B8
:1007C0008093F50181E090E0ECCF61E0CE010196ED
:1007D0000E943E03F7CFCF93FC01C48121E0209318
:1007E000C301C093E4011092F6011092F5018385D4
:1007F000682B8EE092E00E94BC039091F50191324B
:1008000008F03FC08091F4018111FCCF82E0809319
:10081000F40181E08093F3018FEF8093C201109285
:10082000C1019093C001A4ECB1E0E0EAF1E080E006
:1008300098132FC010929F0180919F01CC0FC82B5D
:10084000C0939F018091F201813039F51092F2013D
:1008500080919F018093BB008091BC0083FDF8CF05
:1008600085EC8093BC008091F4018230E1F38091AB
:10087000C2018F3F31F08091C201803211F080912E
:10088000C2011092F6011092F5011092C301CF91AE
:1008900008952D9121938F5FCBCF85EEE2CF90E02D
:1008A00080E00895FF920F931F93CF93DF93EC01A5
:1008B0000B81288130E0F901E054FF4F8491F90168
:1008C000EC52FF4FF490F901EE50FF4F14911123B9
:1008D000F9F081110E94EB00E12FF0E0EE0FFF1F15
:1008E000E859FF4FA591B491EC91FE2231E020E050
:1008F00009F430E0832F922F21E0822781700813C2
:100900000AC01982DF91CF911F910F91FF90089536
:1009100090E080E0F1CF89818F5F89839A81891788
:100920008CF38B818D8391E089278C838B83E9CF36
:100930000F931F93CF93DF93C0910602D0910702CC
:10094000888199810E9452048A819B810E9452046D
:1009500010E000E0E0910802F0910902E00FF11FC1
:10096000C081D18188810E947E0192509C838B83BB
:1009700089810E947E0192509E838D838F8198850C
:100980000E9452040E5F1F4F0430110519F7DF91CA
:10099000CF911F910F910895CF92DF92EF92FF9226
:1009A0000F931F93CF93DF93CDB7DEB729970FB681
:1009B000F894DEBF0FBECDBFDC0114960D911C91E3
:1009C000F80181859285892B09F465C00E94930105
:1009D000D8011F96CD90DD90ED90FC9052976C1948
:1009E0007D098E099F096C3271408105910570F374
:1009F000F894F801848195819A8389830184F28532
:100A0000E02D7F012FEFE21AF20A80818987D80159
:100A10009C915396ED91FC91549755968C91992306
:100A200009F448C09081982B9887908180958923FC
:100A30008F838F818C8388E08B8358856F81498574
:100A40003B812C8189819A81D701508347FD252FD5
:100A50003A952083262F39F0441F00C000006083A0
:100A6000000000C0F2CF38E04D9160830000019794
:100A700061F7D8015496FC93EE93539749873B83D3
:100A80002C839A83898378940E949301F801678765
:100A9000708B818B928B29960FB6F894DEBF0FBEB8
:100AA000CDBFDF91CF911F910F91FF90EF90DF901D
:100AB000CF9008959081982B988790818095892375
:100AC0008F838F818E8388E08D8358856F814985E0
:100AD0003D812E8189819A81D701508347FD252F41
:100AE00000C000C0208300C000C000C000C000C023
:100AF00060830000262F3A9541F0441F000000C09B
:100B000000C000C000C000C0E8CF38E04D9100C078
:100B1000608300C0019709F7D8015496FC93EE93C7
:100B2000539749873D832E83ACCFAF92BF92CF922C
:100B3000DF92EF92FF920F931F93CF93DF9386E0A4
:100B400090E00E94C30F8C017C016C0186E0C80E0E
:100B5000D11C86E090E00E94C30FF701819391932E
:100B60007F01EC015C01F6E0AF0EB11C8CE090E07F
:100B70000E94C30FFC018993999310821182128203
:100B800013821482158216821782108611861286AD
:100B90001386CA15DB0551F7CE14DF04D1F6C80160
:100BA000DF91CF911F910F91FF90EF90DF90CF9049
:100BB000BF90AF900895CF92DF92EF92FF920F9384
:100BC0001F93CF93DF93EC018C016C0186E0C80E7C
:100BD000D11CF12CE12CD801ED91FC91EE0DFF1D03
:100BE00080819181009711F00E945F10B2E0EB0EBE
:100BF000F11CE6E0EE16F10471F7D8018D919D919C
:100C00008D01009711F00E945F10C016D10609F700
:100C1000209759F0CE01DF91CF911F910F91FF9056
:100C2000EF90DF90CF900C945F10DF91CF911F91E8
:100C30000F91FF90EF90DF90CF900895CF93DF93C7
:100C400000D000D000D0CDB7DEB71C01DC01129679
:100C50006D917C91FB01C080D180D6012D933D9395
:100C60004D935C931397A0910802B09109028D9166
:100C70009C911197F60193878287FB012281338132
:100C8000F901E082F1820283138312968D919C9187
:100C9000938782870E9495055C0190933B01809326
:100CA0003A010E9495054C0180910C0290910D0231
:100CB0009C838B83B5010E944602AB81BC818D91E0
:100CC0009C910E94CC04F5013696FA83E983D10108
:100CD0001296ED91FC910190F081E02DA285B385F3
:100CE00013968D919C9114978F3D91402CF08481A7
:100CF000958101969583848313968D919C91149789
:100D000082329E4F2CF48481958101979583848350
:100D100015968D919C9116978F3D91402CF0868170
:100D2000978101969783868315968D919C91823247
:100D30009E4F2CF486819781019797838683248127
:100D40003581AB81BC8114968D919C912817390710
:100D500014F0158214828481958197FF08C0AB81BD
:100D6000BC8114968D919C910197958384832681F3
:100D70003781AB81BC8116968D919C9128173907DC
:100D800014F0178216828681978197FF08C0AB8185
:100D9000BC8116968D919C910197978386839501CE
:100DA000A401D9018D919D919D019E838D83DA01CE
:100DB0006D917D91AD017C01B6E0EB0EF11CAD8132
:100DC000BE818D919D91BE83AD83DB010D911D91FF
:100DD000BD016C01BCE0CB0ED11CDC014D905D90DF
:100DE0006D907D90CD01D8014D925D926D927D9276
:100DF0008D01C816D90689F78D819E81E816F906FE
:100E0000F1F6A981BA81A217B30759F6A481B58179
:100E1000AA0FBB1FA80DB91D86819781880F991F46
:100E20000D90BC91A02DA80FB91F20853185220FF0
:100E3000331F220F331F8D919C91280F391F808102
:100E40009181A281B38181589048A048BF4FBB27B0
:100E5000F90180839183A283B383B4018B819C8148
:100E60000E944602AB81BC818D919C910E94CC0472
:100E700064E670E080E090E00E94B80128CF0E9414
:100E8000BB0E22E030E040E050E00E94230FCB0197
:100E900008950F931F93CF938C01C62F0E94EB03ED
:100EA0006C2F6460C8010E94EB036C2F6B7FC8013C
:100EB0000E94EB0383EC90E00197F1F7CF911F9133
:100EC0000F9108950F931F93CF93DF938C01D62F2B
:100ED000C42F607F642B0E94490780E1D89FB00136
:100EE00011246C2BC801DF91CF911F910F910C94AD
:100EF0004907CF93DF93EB01682F606840E08AE1F8
:100F000092E00E9462074C815D81688179818AE16B
:100F100092E0DF91CF910C94BE0040E061E08AE165
:100F200092E00E9462078BE39FE10197F1F7089539
:100F300041E00E94620781E090E00895EF92FF9205
:100F40000F931F93CF93DF93EC017B0119821882DB
:100F50001B821A821D821C82CB010E941A0F8C01F7
:100F6000BC016F5F7F4F90E080E00E94E810009727
:100F7000B9F0998388831B830A832C813D81232BBD
:100F800011F4FC0110821D830C83B70188819981C3
:100F9000DF91CF911F910F91FF90EF900C94130F61
:100FA00088819981009711F00E945F101982188240
:100FB0001D821C821B821A82DF91CF911F910F919B
:100FC000FF90EF900895BF92CF92DF92EF92FF9241
:100FD0000F931F93CF93DF9300D000D000D0CDB7F5
:100FE000DEB70E948D0765EA70E0CE0101960E948F
:100FF0009E07BE016F5F7F4F80E00E947907898165
:101000009A810E945F10E0900A02F0900B0210E0BB
:1010100000E0D70114968D919C91FC0122813381CF
:101020000217130738F420E030E840E850E0B80138
:101030000E94EA010F5F1F4F0930110551F7C701E8
:101040000E94CC0468EE73E080E090E00E94B8015A
:101050000E948D0764E970E0CE0101960E949E0710
:10106000BE016F5F7F4F80E00E94790789819A817E
:101070000E945F10E0900A02F0900B02D7011496D4
:101080008D919C91FC01228133810217130738F462
:1010900020E030EC40EC50E0B8010E94EA010F5F24
:1010A0001F4F0231110551F7C7010E94CC0468EEB1
:1010B00073E080E090E00E94B8010E948D0763E831
:1010C00070E0CE0101960E949E07BE016F5F7F4FC8
:1010D00080E00E94790789819A810E945F10E090E8
:1010E0000A02F0900B02D70114968D919C91FC019D
:1010F000228133810217130738F420E03FEF4FEFCE
:1011000050E0B8010E94EA010F5F1F4F0B3111053B
:1011100051F7C7010E94CC0468EE73E080E090E0D4
:101120000E94B8010E948D0762E770E0CE0101962F
:101130000E949E07BE016F5F7F4F80E00E9479078B
:1011400089819A810E945F10C0900A02D0900B02A0
:1011500010E000E0D60112968D919C91139708172C
:1011600019079CF414968D919C91FC012281338186
:101170000217130738F42FEF3FEF4FEF50E0B8019D
:101180000E94EA010F5F1F4FE5CFC6010E94CC0409
:10119000E0900802F0900902D701ED91FC911197BF
:1011A0000780F085E02D1582118281E0838314820F
:1011B0001296ED91FC910780F085E02D1582118249
:1011C00083831482BB24B394D701ED91FC911197D2
:1011D0000780F085E02D05811296ED91FC91078046
:1011E000F085E02D8581811146C00B2510E0119519
:1011F0000195110961E070E080E090E00E94B80183
:101200000F3F100709F3D701ED91FC91119707806B
:10121000F085E02D1582118281E08383148212967D
:10122000ED91FC910780F085E02D1582118283837A
:1012300014820E948D07D6011496ED91FC91448191
:10124000558170E060E0818592850E94AE11C601F3
:101250000E94CC04C80126960FB6F894DEBF0FBEDC
:10126000CDBFDF91CF911F910F91FF90EF90DF9055
:10127000CF90BF90089501E010E0BCCF1F920F9275
:101280000FB60F9211242F933F938F939F93AF9399
:10129000BF938091E6019091E701A091E801B091A0
:1012A000E9013091E50123E0230F2D3758F5019630
:1012B000A11DB11D2093E5018093E6019093E70104
:1012C000A093E801B093E9018091EA019091EB01CC
:1012D000A091EC01B091ED010196A11DB11D80938B
:1012E000EA019093EB01A093EC01B093ED01BF9163
:1012F000AF919F918F913F912F910F900FBE0F90C3
:101300001F90189526E8230F0296A11DB11DD2CF7C
:101310001F920F920FB60F9211242F933F934F936A
:101320005F936F937F938F939F93AF93BF93EF934D
:10133000FF938091FF01909100028093B200809111
:10134000020290910302A0910402B091050201965D
:10135000A11DB11D8093020290930302A093040289
:10136000B09305028091020290910302A0910402C1
:10137000B09105024091FB015091FC016091FD018B
:101380007091FE0184179507A607B70710F18091A9
:10139000010281111EC081E080930102809102024E
:1013A00090910302A0910402B0910502841B950B59
:1013B000A60BB70B8093020290930302A093040242
:1013C000B0930502E091F901F091FA0109951092AC
:1013D0000102FF91EF91BF91AF919F918F917F910A
:1013E0006F915F914F913F912F910F900FBE0F9092
:1013F0001F9018951F920F920FB60F9211242F93E2
:101400003F934F935F936F937F938F939F93AF938C
:10141000BF93EF93FF938091B900887F803609F4E2
:101420004AC0F0F5883209F4A7C018F5803109F4F4
:101430009BC0B8F4882309F4F9C0883009F494C03B
:10144000FF91EF91BF91AF919F918F917F916F919C
:101450005F914F913F912F910F900FBE0F901F9072
:101460001895883109F488C0803251F78093C20101
:1014700014C0803409F49DC040F48033B9F388333C
:10148000F9F68093C20185ECB0C0803509F485C0BF
:10149000883509F496C0883499F60E943403D0CF79
:1014A000883909F48CC038F5883729F050F488362B
:1014B00011F0803729F683E08093F40110929E01A9
:1014C00057C0883809F47BC0803919F0803809F09A
:1014D000B7CF80919E01803208F071C0E0919E01EB
:1014E00081E08E0F80939E018091BB00F0E0E25876
:1014F000FE4F80833DC0803B39F0E0F4803A09F430
:1015000079C0883A09F09CCF84E08093F40110926E
:101510007D0110927C01E091F001F091F1010995BB
:1015200080917C0181110FC081E080937C01109239
:101530005C0109C0803C09F4A6CF883C09F4A3CF24
:10154000883B09F07DCFE0917D0181E08E0F809393
:101550007D01F0E0E45AFE4F80818093BB009091C2
:101560007D0180917C0129C080919F018093BB0007
:1015700085EC8093BC0064CF9091C1018091C00143
:10158000981758F5E091C10181E08E0F8093C10159
:10159000F0E0E056FE4F8081E9CFE091C10181E0AB
:1015A0008E0F8093C1018091BB00F0E0E056FE4FAA
:1015B00080839091C1018091C0019817C8F285E89D
:1015C000D8CFE091C10181E08E0F8093C10180915D
:1015D000BB00F0E0E056FE4F80838091F301811163
:1015E0005CCF81E08093F20184EA8093BC0010928A
:1015F000F40126CF85EC8093BC001092F401809119
:101600009E01803230F4E0919E01F0E0E258FE4FFE
:10161000108260919E0170E0E091EE01F091EF0187
:101620008EE791E0099510929E010ACF1092C201B7
:1016300034CFEEE0F2E01382128288EE93E0A0E075
:10164000B0E084839583A683B78380E291E09183A1
:101650008083EAE1F2E01382128282E391E09183D7
:10166000808387E2848380E1818782E0828713869A
:101670000895CF93DF9300D000D000D0CDB7DEB770
:10168000789484B5826084BD84B5816084BD85B55D
:10169000826085BD85B5816085BD80916E00816069
:1016A00080936E001092810080918100826080930F
:1016B0008100809181008160809381008091800011
:1016C0008160809380008091B10084608093B1003C
:1016D0008091B00081608093B00080917A00846036
:1016E00080937A0080917A00826080937A00809162
:1016F0007A00816080937A0080917A00806880937C
:101700007A001092C10084E090E00E94C30F7C0137
:10171000909307028093060286E090E00E94C30F38
:101720008C0122E0A22EDC01AC9215961C9215973A
:1017300011961C921197BB24B3941396BC921397E5
:1017400014961C9260E082E00E9442013FE0732EFA
:10175000F8017282D7010D931C9386E090E00E94FD
:10176000C30F8C0183E0F801808315821182B3825C
:10177000148260E00E944201D80112967C92F70127
:101780001383028384E090E00E94C30F4C01909386
:1017900009028093080289E090E00E94C30F8C0147
:1017A0008EE0D8018C9311967C92119786E0129668
:1017B0008C9362E08EE00E94420162E0F801818138
:1017C0000E94420186E090E00E94C30F7C01D80194
:1017D00012968C91F701808315821182B382148254
:1017E00060E00E944201D70112967C92F801F086D7
:1017F000E782D4010D931C9389E090E00E94C30F0F
:101800008C0180E1F801808381E1818387E082831C
:1018100062E080E10E94420162E0D80111968C9161
:101820000E94420186E090E00E94C30F7C01F80113
:101830008281D7018C9315961C92159711961C9254
:1018400011971396BC92139714961C9260E00E9415
:101850004201F7017282D8011896FC92EE92179716
:10186000F4011383028386E090E00E94C30F7C01A1
:1018700088E090E0D70111969C938E934BE1842EE3
:10188000912C13969C928E92129786E190E00E9482
:10189000C30F8C01FC01118210861786108A118AF1
:1018A000128AB686B3861486A586B08281E590E05A
:1018B000958384830E94C30FF801928781870097E4
:1018C00009F4F2C121E5DC011D922A95E9F7938222
:1018D000828288E090E0D80117969C938E931697A9
:1018E00011968C91882341F061E088E00E944201CA
:1018F00060E088E00E941401EAEFF0E0E491F0E09B
:10190000EE0FFF1FE851FF4F85919491F801948BE2
:10191000838BECEDF0E0E491D8015596EC9355976C
:10192000F7011583048316968D919C9197FD09C04C
:1019300061E00E94420160E0D80116968C910E94FD
:101940001401BB24B394F801B182D7011496ED9130
:10195000FC914481558170E060E0818592850E9410
:10196000AE11C7010E94CC04F0920B02E0920A0271
:101970008AE090E00E94C30F8C01FC01F182E082BA
:1019800083E090E095838483978386839187808723
:101990000E949505D80113969C938E9312971093ED
:1019A0000D0200930C021092F8011092F7011092B0
:1019B000F6011092F5011092F401B092F301109229
:1019C000F20161E082E10E94140161E083E10E9482
:1019D00014018091B9008E7F8093B9008091B90085
:1019E0008D7F8093B90088E48093B80085E480936C
:1019F000BC008CEB90E09093F1018093F0018DEBB3
:101A000090E09093EF018093EE0110921F0280917D
:101A10002402823018F098E090931F0280932202F3
:101A200062E370E080E090E00E94B80160912502DE
:101A30008AE192E00E94EB0368EE73E080E090E0C0
:101A40000E94B80160E38AE192E00E9449070BE43A
:101A500016E4C8010197F1F760E38AE192E00E9481
:101A60004907C8010197F1F760E38AE192E00E941B
:101A7000490783E592E00197F1F760E28AE192E09D
:101A80000E94490760911F02606240E08AE192E093
:101A90000E94620784E08093200240E06CE08AE1CB
:101AA00092E00E9462070E948D0782E080932102EB
:101AB00040E066E08AE192E00E94620740E062E076
:101AC0008AE192E00E9462078BE39FE10197F1F7C0
:101AD00088E08093250260E08AE192E00E94EB03B7
:101AE00064E171E0CE0101960E949E07BE016F5F26
:101AF0007F4F80E00E94790789819A810E945F1060
:101B000066E071E0CE0101960E949E07BE016F5F04
:101B10007F4F81E00E94790789819A810E945F103E
:101B200085E090E0A0E0B0E08093FB019093FC01A1
:101B3000A093FD01B093FE0188E994E09093FA012F
:101B40008093F901809170008E7F80937000809166
:101B5000B0008C7F8093B0008091B100877F80932C
:101B6000B1008091B6008F7D8093B60080917000A7
:101B70008D7F809370008091B10084608093B1006C
:101B80008091B1008C7F8093B10086E090E09093CB
:101B900000028093FF011092020210920302109241
:101BA000040210920502109201028091FF019091AF
:101BB00000028093B2008091700081608093700079
:101BC00061E08DE00E9442016DEA79E580E090E0FD
:101BD0000E940A0F0E94BB0E22E030E040E050E07D
:101BE0000E94230F611571058105910509F461C0FB
:101BF000613071058105910509F466C0D601ED914A
:101C0000FC910190F081E02DC60109955C01C601AF
:101C10000E945F1084E090E00E94C30F6C018AE193
:101C200091E0F6019183808384E090E00E94C30FED
:101C30008C01D60113969C938E9312978CE090E0C2
:101C40000E94C30FFC01108211821282138213863C
:101C50001286158214821782168211861086D80188
:101C60008D939C938CE090E00E94C30FFC01108246
:101C700011821282138213861286158214821782B1
:101C8000168211861086D80113969C938E93129714
:101C9000E12CF12C0FE710E020E03FE740E050E0BE
:101CA000B501C6010E941E0615821482138212829B
:101CB00010CE82E090E00E94C30F6C0184E191E0BD
:101CC000F601918380839ACF82E090E00E94C30F57
:101CD0006C018EE091E0D6018D939C938FCF8F9213
:101CE0009F92AF92BF92CF92DF92EF92FF92CF93EB
:101CF000DF93EC01688179818A819B81611571058F
:101D00008105910521F464E279ED8BE597E02DE101
:101D100033EF41E050E00E94230F49015A019B013B
:101D2000AC01A7EAB1E40E94420F6B017C01ACEE6A
:101D3000B4EFA50194010E94500FC60ED71EE81EF5
:101D4000F91EF7FE06C081E0C81AD108E10880E854
:101D5000F80AC882D982EA82FB82C701B6019F775E
:101D6000DF91CF91FF90EF90DF90CF90BF90AF9039
:101D70009F908F9008958F929F92AF92BF92CF9233
:101D8000DF92EF92FF9260910001709101018091CA
:101D9000020190910301611571058105910521F4FE
:101DA00064E279ED8BE597E02DE133EF41E050E01F
:101DB0000E94230F49015A019B01AC01A7EAB1E43B
:101DC0000E94420F6B017C01ACEEB4EFA5019401BF
:101DD0000E94500FC60ED71EE81EF91EF7FE06C061
:101DE00081E0C81AD108E10880E8F80AC092000131
:101DF000D0920101E0920201F0920301C701B60105
:101E00009F77FF90EF90DF90CF90BF90AF909F9023
:101E10008F900895609300017093010180930201F7
:101E2000909303010895FB01DC0105900D920020C1
:101E3000E1F70895FC0105900020E9F78095909561
:101E40008E0F9F1F0895052E97FB1EF400940E948D
:101E50003A0F57FD07D00E948C0F07FC03D04EF4B9
:101E60000C943A0F50954095309521953F4F4F4F28
:101E70005F4F089590958095709561957F4F8F4F36
:101E80009F4F08950E94AE0FA59F900DB49F900D97
:101E9000A49F800D911D11240895B7FF0C94420F4B
:101EA0000E94420F821B930B08952F923F924F92F4
:101EB0005F926F927F928F929F92AF92BF92CF92DA
:101EC000DF92EF92FF920F931F93CF93DF93CDB7E3
:101ED000DEB7CA1BDB0B0FB6F894DEBF0FBECDBF5B
:101EE00009942A88398848885F846E847D848C842C
:101EF0009B84AA84B984C884DF80EE80FD800C8135
:101F00001B81AA81B981CE0FD11D0FB6F894DEBF17
:101F10000FBECDBFED010895A1E21A2EAA1BBB1B77
:101F2000FD010DC0AA1FBB1FEE1FFF1FA217B307A5
:101F3000E407F50720F0A21BB30BE40BF50B661FBB
:101F4000771F881F991F1A9469F76095709580957F
:101F500090959B01AC01BD01CF010895A29FB001F6
:101F6000B39FC001A39F700D811D1124911DB29FCD
:101F7000700D811D1124911D0895EE0FFF1F059016
:101F8000F491E02D09940F931F93CF93DF93823048
:101F9000910510F482E090E0E0912802F09129028E
:101FA00030E020E0B0E0A0E0309799F42115310551
:101FB00009F44AC0281B390B24303105D8F58A8131
:101FC0009B816115710589F1FB0193838283FE0179
:101FD00011C0408151810281138148175907E0F0F7
:101FE0004817590799F4109761F012960C931297BD
:101FF00013961C933296CF01DF91CF911F910F91D1
:1020000008950093280210932902F4CF2115310579
:1020100051F04217530738F0A901DB019A01BD01C5
:10202000DF01F801C1CFEF01F9CF9093290280932E
:102030002802CDCFFE01E20FF31F8193919322502E
:10204000310939832883D7CF209126023091270286
:10205000232B41F420910601309107013093270290
:1020600020932602209104013091050121153105AC
:1020700041F42DB73EB74091080150910901241B4E
:10208000350BE0912602F0912702E217F307A0F446
:102090002E1B3F0B2817390778F0AC014E5F5F4FBE
:1020A0002417350748F04E0F5F1F509327024093C7
:1020B0002602819391939FCFF0E0E0E09CCFCF93F5
:1020C000DF930097E9F0FC01329713821282A0910E
:1020D0002802B0912902ED0130E020E01097A1F430
:1020E00020813181820F931F209126023091270297
:1020F0002817390709F061C0F0932702E093260200
:10210000DF91CF910895EA01CE17DF07E8F54A8104
:102110005B819E0141155105B1F7E901FB83EA831B
:1021200049915991C40FD51FEC17FD0761F48081C7
:1021300091810296840F951FE9019983888382819A
:1021400093819B838A83F0E0E0E012968D919C91CD
:1021500013970097B9F52D913C911197CD010296F7
:10216000820F931F209126023091270228173907EA
:1021700039F6309751F51092290210922802B09347
:102180002702A0932602BCCFD383C2834081518112
:10219000840F951FC817D90761F44E5F5F4F888180
:1021A0009981480F591F518340838A819B81938372
:1021B00082832115310509F0B0CFF0932902E09315
:1021C00028029ECFFD01DC01C0CF13821282D7CF3F
:1021D000B0E0A0E0EEEEF0E10C94570F8C01009718
:1021E00051F4CB010E94C30F8C01C801CDB7DEB7FB
:1021F000E0E10C94730FFC01E60FF71F9C012250E5
:102200003109E217F30708F49DC0D901CD91DC91A3
:102210001197C617D70798F0C530D10530F3CE0116
:1022200004978617970708F3C61BD70B2297C1930D
:10223000D1936D937C93CF010E945F10D6CF5B0149
:10224000AC1ABD0A4C018C0E9D1EA0912802B091C3
:102250002902512C412CF12CE12C109731F5809161
:102260002602909127028815990509F05CC0461650
:10227000570608F058C0809104019091050100971D
:1022800041F48DB79EB74091080150910901841B1C
:10229000950BE817F90708F055C0F0932702E09373
:1022A0002602F90171836083A0CF8D919C911197D3
:1022B00012966C90129713967C901397A815B905F7
:1022C00059F56C0142E0C40ED11CCA14DB0420F1A4
:1022D000AC014A195B09DA011296159780F0628207
:1022E000738251834083D9016D937C93E114F1048F
:1022F00071F0D7011396FC93EE93129776CF229646
:102300008C0F9D1FF90191838083F301EFCFF09330
:102310002902E093280269CF4816590608F42C01D7
:102320007D01D3019ACFCB010E94C30F7C0100979E
:1023300049F0AE01B8010E94A511C8010E945F10CA
:10234000870153CF10E000E050CFFB01DC0102C059
:1023500001900D9241505040D8F70895DC0101C022
:0E2360006D9341505040E0F70895F894FFCF80
:10236E000100000000002A02800000000000E307C8
:10237E00000000003F07000000001E0600000000E5
:10238E00BC038F034F0465038803750366030000C7
:0A239E0000009807BE004F0433034F
:107E0000112484B714BE81FFF0D085E080938100F7
:107E100082E08093C00088E18093C10086E0809377
:107E2000C20080E18093C4008EE0C9D0259A86E02C
:107E300020E33CEF91E0309385002093840096BBD3
:107E4000B09BFECF1D9AA8958150A9F7CC24DD24C4
:107E500088248394B5E0AB2EA1E19A2EF3E0BF2EE7
:107E6000A2D0813461F49FD0082FAFD0023811F036
:107E7000013811F484E001C083E08DD089C08234E0
:107E800011F484E103C0853419F485E0A6D080C0E4
:107E9000853579F488D0E82EFF2485D0082F10E0AE
:107EA000102F00270E291F29000F111F8ED06801E7
:107EB0006FC0863521F484E090D080E0DECF843638
:107EC00009F040C070D06FD0082F6DD080E0C81688
:107ED00080E7D80618F4F601B7BEE895C0E0D1E017
:107EE00062D089930C17E1F7F0E0CF16F0E7DF06D8
:107EF00018F0F601B7BEE89568D007B600FCFDCFD4
:107F0000A601A0E0B1E02C9130E011968C91119780
:107F100090E0982F8827822B932B1296FA010C0160
:107F200087BEE89511244E5F5F4FF1E0A038BF0790
:107F300051F7F601A7BEE89507B600FCFDCF97BE46
:107F4000E89526C08437B1F42ED02DD0F82E2BD052
:107F50003CD0F601EF2C8F010F5F1F4F84911BD097
:107F6000EA94F801C1F70894C11CD11CFA94CF0C13
:107F7000D11C0EC0853739F428D08EE10CD085E9AC
:107F80000AD08FE07ACF813511F488E018D01DD067
:107F900080E101D065CF982F8091C00085FFFCCF94
:107FA0009093C60008958091C00087FFFCCF809118
:107FB000C00084FD01C0A8958091C6000895E0E648
:107FC000F0E098E1908380830895EDDF803219F02E
:107FD00088E0F5DFFFCF84E1DECF1F93182FE3DFCA
:107FE0001150E9F7F2DF1F91089580E0E8DFEE27F6
:047FF000FF270994CA
:027FFE00040479
:0400000300007E007B
:00000001FF
