:100000000C9461000C947E000C947E000C947E0095
:100010000C947E000C947E000C947E000C947E0068
:100020000C947E000C947E000C947E000C947E0058
:100030000C947E000C947E000C947E000C947E0048
:100040000C94CA030C947E000C947E000C947E00E9
:100050000C947E000C947E000C947E000C947E0028
:100060000C947E000C947E0000000000230026000B
:10007000290000000000240027002A0000000000E2
:10008000250028002B0004040404040404040202D4
:100090000202020203030303030301020408102007
:1000A0004080010204081020010204081020000012
:1000B0000008000201000003040700000000000027
:1000C000000011241FBECFEFD8E0DEBFCDBF11E08E
:1000D000A0E0B1E0E8E4F0E102C005900D92A631A5
:1000E000B107D9F721E0A6E1B1E001C01D92A73226
:1000F000B207E1F70E9414040C9422080C9400004B
:10010000833081F028F4813099F08230A9F008958D
:100110008730A9F08830C9F08430B1F48091800034
:100120008F7D03C0809180008F7780938000089539
:1001300084B58F7784BD089584B58F7DFBCF809182
:10014000B0008F778093B00008958091B0008F7DCC
:10015000F9CFCF93DF93282F30E0F901E255FF4F1D
:100160008491F901E656FF4FD491F901EA57FF4F08
:10017000C491CC2391F081110E948000EC2FF0E01B
:10018000EE0FFF1FE458FF4FA591B4918FB7F8947D
:10019000EC91D095DE23DC938FBFDF91CF91089552
:1001A000CF93DF9390E0FC01E656FF4F24918A57EE
:1001B0009F4FFC0184918823C9F090E0880F991F1C
:1001C000FC01EE58FF4FA591B491FC01E458FF4F9C
:1001D000C591D49161110DC09FB7F8948C91209571
:1001E00082238C938881282328839FBFDF91CF911E
:1001F0000895623051F49FB7F8943C91822F809516
:1002000083238C93E8812E2BEFCF8FB7F894EC915A
:100210002E2B2C938FBFEACF3FB7F89480911B0110
:1002200090911C01A0911D01B0911E0126B5A89BC3
:1002300005C02F3F19F00196A11DB11D3FBFBA2F78
:10024000A92F982F8827BC01CD01620F711D811D38
:10025000911D42E0660F771F881F991F4A95D1F7BD
:1002600008958F929F92AF92BF92CF92DF92EF92BA
:10027000FF924B015C010E940C016B017C010E940A
:100280000C016C197D098E099F09683E7340810538
:100290009105A8F321E0821A9108A108B10888EE1F
:1002A000C80E83E0D81EE11CF11C81149104A10446
:1002B000B10429F7FF90EF90DF90CF90BF90AF90FF
:1002C0009F908F9008958F929F92AF92BF92CF92FE
:1002D000DF92EF92FF92CF93DF93FC014A01AA24B1
:1002E000BB24C32ED42EE52EFF24DC2DC22F808507
:1002F000982D882391F0C82FD0E0C89DD001C99DCA
:10030000B00DD89DB00D11249B2F8C9D6001112440
:10031000DD2D829F90011124C32FA6852185328572
:100320008385A81321C0AB01440F551F640F751FAF
:10033000620F731FA385A60FB72FB11D9C93A485D1
:10034000A60FB72FB11DDC938585680F711DFB01CA
:10035000C083DF91CF91FF90EF90DF90CF90BF905F
:10036000AF909F908F900895660F771F660F771F4D
:10037000620F731FA60FB72FB11D1C92DBCFCF9258
:10038000DF92EF92FF920F931F93CF93DF93CDB73E
:10039000DEB729970FB6F894DEBF0FBECDBF8C0134
:1003A0000E940C01D8011F96CD90DD90ED90FC903D
:1003B00052976C197D098E099F096C327140810535
:1003C000910570F3F894F801848195819A8389836B
:1003D0000184F285E02D7F012FEFE21AF20A80817D
:1003E0008F83D8019C915396ED91FC91549755962B
:1003F0008C91992309F448C09081982B988790811B
:1004000080958923898789858B8388E08C835885AB
:1004100069854F813C812B8189819A81D7015083E5
:1004200047FD252F3A952083262F39F0441F00C021
:1004300000006083000000C0F2CF38E04D9160837F
:100440000000019761F7D8015496FC93EE935397FF
:100450004F833C832B839A83898378940E940C0179
:10046000F8016787708B818B928B29960FB6F89471
:10047000DEBF0FBECDBFDF91CF911F910F91FF90D7
:10048000EF90DF90CF9008959081982B988790817E
:1004900080958923898789858D8388E08E83588517
:1004A00069854F813E812D8189819A81D701508351
:1004B00047FD252F00C000C0208300C000C000C041
:1004C00000C000C060830000262F3A9541F0441F11
:1004D000000000C000C000C000C000C0E8CF38E08D
:1004E0004D9100C0608300C0019709F7D801549670
:1004F000FC93EE9353974F833E832D83ACCFCF92E3
:10050000DF92EF92FF920F931F93CF93DF93EC0153
:10051000C22ED12CF12CE12CD42AE62A10E000E0E6
:100520008A819B810817190784F48C819D81FC01C5
:10053000228133810217130728F4A7019601B8011D
:100540000E9463010F5F1F4FEBCFDF91CF911F918F
:100550000F91FF90EF90DF90CF900895FC01848180
:100560009581FC0121853285232B11F00C94BF016C
:1005700008950E943B0622E030E040E050E00E94F7
:100580009306CB010895CF93DF93EC01EC81FD81BD
:100590004481558170E060E0818592850E941B084E
:1005A0008C819D81FC0121853285232B21F0DF91F7
:1005B000CF910C94BF01DF91CF910895AF92BF927C
:1005C000CF92DF92EF92FF920F931F93CF93DF931F
:1005D0000091210110912201D0E0C0E0D8011496D1
:1005E0008D919C91FC0122813381C217D30738F48D
:1005F00020E030E440E450E0BE010E946301219617
:10060000C930D10559F7C8010E94AE0268EE73E007
:1006100080E090E00E943101D80114968D919C9168
:10062000FC0122813381C217D30738F420E030E87F
:1006300040E850E0BE010E9463012196C231D1051D
:1006400059F7C8010E94AE0268EE73E080E090E0C6
:100650000E943101D80114968D919C91FC01228158
:100660003381C217D30738F420E03FEF4FEF50E05B
:10067000BE010E9463012196CB31D10559F7C80113
:100680000E94AE0268EE73E080E090E00E943101CB
:100690002FEF4FEF6FEFC8010E947F02C8010E9449
:1006A000AE0268EE73E080E090E00E943101C80184
:1006B0000E94C302CC24C39410E000E0E0901F012C
:1006C000F0902001F701E00FF11FC081D181BB80C4
:1006D000288130E0F901E255FF4F8491F901E65697
:1006E000FF4FD490F901EA57FF4FA490AA2099F147
:1006F00081110E948000EA2DF0E0EE0FFF1FE85903
:10070000FF4FA591B491EC91DE2231E020E009F495
:1007100030E0832F922FF1E08F278170B8121EC036
:1007200019820E5F1F4F0630110509F0C7CFD701A0
:10073000ED91FC911197858181111CC01296ED916C
:10074000FC918581811123C061E070E080E090E040
:100750000E943101B1CF90E080E0DDCF89818F5FD1
:1007600089839A818917ECF28B818D838C258C8308
:100770008B83D6CF90E080E0DF91CF911F910F91D6
:10078000FF90EF90DF90CF90BF90AF90089581E001
:1007900090E0F2CF1F920F920FB60F9211242F9379
:1007A0003F938F939F93AF93BF9380911701909145
:1007B0001801A0911901B0911A013091160123E09E
:1007C000230F2D3758F50196A11DB11D2093160159
:1007D0008093170190931801A0931901B0931A0107
:1007E00080911B0190911C01A0911D01B0911E01EF
:1007F0000196A11DB11D80931B0190931C01A09334
:100800001D01B0931E01BF91AF919F918F913F91B8
:100810002F910F900FBE0F901F90189526E8230F71
:100820000296A11DB11DD2CFCF93DF9300D000D08F
:1008300000D0CDB7DEB7789484B5826084BD84B52E
:10084000816084BD85B5826085BD85B5816085BDCB
:1008500080916E00816080936E0010928100809183
:10086000810082608093810080918100816080930B
:100870008100809180008160809380008091B10030
:1008800084608093B1008091B00081608093B0005B
:1008900080917A00846080937A0080917A008260EF
:1008A00080937A0080917A00816080937A008091B1
:1008B0007A00806880937A001092C10086E090E010
:1008C0000E94F6066C0180931F01D092200186E001
:1008D00090E00E94F6068C0188E090E0D801119625
:1008E0009C938E932BE1A22EB12C1396BC92AE92C8
:1008F000129786E190E00E94F6069A838983FC01B4
:10090000118210861786108A118A128A81E08687E2
:100910008387148692E09587808381E590E09583B4
:1009200084830E94F606E981FA8192878187009785
:1009300009F438C121E5DC011D922A95E9F7B3825B
:10094000A28288E090E0A981BA8117969C938E9349
:10095000169711968C91882339F061E088E00E9407
:10096000D00088E00E94A900EEE8F0E0E491F0E019
:10097000EE0FFF1FE458FF4F85919491E981FA81B2
:10098000948B838BE2EAF0E0E491A981BA815596D9
:10099000EC935597F801B583A48316968D919C919D
:1009A00097FD09C061E00E94D000A981BA81169626
:1009B0008C910E94A90081E0E981FA818183C801BC
:1009C0000E94C30210932201009321018AE090E06B
:1009D0000E94F6069A838983DC0111961C930E937C
:1009E00083E090E015969C938E93149717969C93B2
:1009F0008E93169719969C938E93189786E090E0A5
:100A00000E94F606E981FA818283938389839A831F
:100A100009811A810A5F1F4F86E090E00E94F60666
:100A2000A981BA818D939D93BA83A9834C015C01FE
:100A3000B6E0AB0EB11C8CE090E00E94F606FC0123
:100A4000D4018D939D934D011082118212821382E5
:100A500014821582168217821086118612861386DA
:100A6000AA15BB0541F7E981FA810E171F07A1F608
:100A7000560112E00FE086E090E00E94F6069A83AD
:100A80008983DC011C9315961C92159711961C9274
:100A9000119713961C9260E0812F0E94D000E9818B
:100AA000FA810283D501ED93FD935D011F5F15303F
:100AB00011F761E08DE00E94D0006DEA79E580E0F9
:100AC00090E00E948A060E943B0622E030E040E06F
:100AD00050E00E949306611571058105910509F4A6
:100AE00068C0613071058105910509F46DC0D701B9
:100AF000ED91FC910190F081E02DC70109958C01E9
:100B0000C12CD12C7601CA94E0912101F0912201EF
:100B1000FE83ED830115110531F02FEF4FEF6FEFDD
:100B2000CF010E947F020E943B062B013C010E94E4
:100B30003B064B015C010E943B0669837A838B83F1
:100B40009C83C301B201A70196010E949306762EF1
:100B5000C501B401A70196010E949306B62E6981D2
:100B60007A818B819C81A70196010E949306272D93
:100B70004B2D8D819E810E947F02E0912101F09199
:100B8000220184819581DC0119962D913C91232BC2
:100B900011F00E94BF0168EE73E080E090E00E94D7
:100BA0003101B2CFE981FA81158214821382128257
:100BB000C8CE82E090E00E94F6067C018EE091E0D3
:100BC000F7019183808393CF82E090E00E94F60644
:100BD0007C0184E191E0D7018D939C9388CF8F9223
:100BE0009F92AF92BF92CF92DF92EF92FF92CF93FC
:100BF000DF93EC01688179818A819B8161157105A0
:100C00008105910521F464E279ED8BE597E02DE112
:100C100033EF41E050E00E94930649015A019B01E5
:100C2000AC01A7EAB1E40E94B2066B017C01ACEE14
:100C3000B4EFA50194010E94C006C60ED71EE81E9F
:100C4000F91EF7FE06C081E0C81AD108E10880E865
:100C5000F80AC882D982EA82FB82C701B6019F776F
:100C6000DF91CF91FF90EF90DF90CF90BF90AF904A
:100C70009F908F9008958F929F92AF92BF92CF9244
:100C8000DF92EF92FF9260910001709101018091DB
:100C9000020190910301611571058105910521F40F
:100CA00064E279ED8BE597E02DE133EF41E050E030
:100CB0000E94930649015A019B01AC01A7EAB1E4E5
:100CC0000E94B2066B017C01ACEEB4EFA501940169
:100CD0000E94C006C60ED71EE81EF91EF7FE06C00B
:100CE00081E0C81AD108E10880E8F80AC092000142
:100CF000D0920101E0920201F0920301C701B60116
:100D00009F77FF90EF90DF90CF90BF90AF909F9034
:100D10008F90089560930001709301018093020108
:100D2000909303010895052E97FB1EF400940E94F2
:100D3000AA0657FD07D00E94C50607FC03D04EF453
:100D40000C94AA0650954095309521953F4F4F4FF2
:100D50005F4F089590958095709561957F4F8F4F67
:100D60009F4F08950E94E706A59F900DB49F900D98
:100D7000A49F800D911D11240895B7FF0C94B20615
:100D80000E94B206821B930B0895A1E21A2EAA1BA1
:100D9000BB1BFD010DC0AA1FBB1FEE1FFF1FA2172B
:100DA000B307E407F50720F0A21BB30BE40BF50B28
:100DB000661F771F881F991F1A9469F760957095B1
:100DC000809590959B01AC01BD01CF010895A29F34
:100DD000B001B39FC001A39F700D811D1124911D0F
:100DE000B29F700D811D1124911D08950F931F93C3
:100DF000CF93DF938230910510F482E090E0E09190
:100E00002501F091260130E020E0B0E0A0E030972D
:100E100099F42115310509F44AC0281B390B2430F7
:100E20003105D8F58A819B816115710589F1FB0136
:100E300093838283FE0111C040815181028113811D
:100E400048175907E0F04817590799F4109761F0CF
:100E500012960C93129713961C933296CF01DF9142
:100E6000CF911F910F9108950093250110932601B2
:100E7000F4CF2115310551F04217530738F0A9017D
:100E8000DB019A01BD01DF01F801C1CFEF01F9CF0C
:100E90009093260180932501CDCFFE01E20FF31F31
:100EA000819391932250310939832883D7CF2091A0
:100EB000230130912401232B41F42091060130912C
:100EC00007013093240120932301209104013091E4
:100ED00005012115310541F42DB73EB740910801B8
:100EE00050910901241B350BE0912301F09124015D
:100EF000E217F307A0F42E1B3F0B2817390778F0F1
:100F0000AC014E5F5F4F2417350748F04E0F5F1F4F
:100F10005093240140932301819391939FCFF0E05C
:100F2000E0E09CCFCF93DF930097E9F0FC0132978C
:100F300013821282A0912501B0912601ED0130E0CB
:100F400020E01097A1F420813181820F931F20911E
:100F50002301309124012817390709F061C0F0936B
:100F60002401E0932301DF91CF910895EA01CE1788
:100F7000DF07E8F54A815B819E0141155105B1F714
:100F8000E901FB83EA8349915991C40FD51FEC17FE
:100F9000FD0761F4808191810296840F951FE9011C
:100FA00099838883828193819B838A83F0E0E0E048
:100FB00012968D919C9113970097B9F52D913C91C4
:100FC0001197CD010296820F931F2091230130913A
:100FD00024012817390739F6309751F51092260168
:100FE00010922501B0932401A0932301BCCFD38399
:100FF000C28340815181840F951FC817D90761F4BE
:101000004E5F5F4F88819981480F591F51834083FC
:101010008A819B81938382832115310509F0B0CFAA
:10102000F0932601E09325019ECFFD01DC01C0CFA6
:1010300013821282D7CFDC0101C06D934150504022
:08104000E0F70895F894FFCFDA
:101048000100000000002701800000000000B90234
:0610580000000000DE02B2
:107800000C94343C0C94513C0C94513C0C94513CE1
:107810000C94513C0C94513C0C94513C0C94513CB4
:107820000C94513C0C94513C0C94513C0C94513CA4
:107830000C94513C0C94513C0C94513C0C94513C94
:107840000C94513C0C94513C0C94513C0C94513C84
:107850000C94513C0C94513C0C94513C0C94513C74
:107860000C94513C0C94513C11241FBECFEFD8E036
:10787000DEBFCDBF11E0A0E0B1E0ECE9FFE702C060
:1078800005900D92A230B107D9F712E0A2E0B1E065
:1078900001C01D92AD30B107E1F70E942D3D0C945F
:1078A000CC3F0C94003C982F959595959595959582
:1078B000905D8F708A307CF0282F295A8091C0000B
:1078C00085FFFCCF9093C6008091C00085FFFCCF60
:1078D0002093C6000895282F205DF0CF982F809127
:1078E000C00085FFFCCF9093C6000895EF92FF92F1
:1078F0000F931F93EE24FF2487018091C00087FD22
:1079000017C00894E11CF11C011D111D81E4E8164B
:1079100082E4F8068FE0080780E0180770F3E09132
:107920000401F091050109958091C00087FFE9CF1E
:107930008091C6001F910F91FF90EF9008950E94D3
:10794000763C982F8091C00085FFFCCF9093C600B5
:1079500091362CF490330CF09053892F089597555D
:10796000892F08951F930E949F3C182F0E949F3CCF
:107970001295107F810F1F9108951F93182F882350
:1079800021F00E94763C1150E1F71F9108951F935A
:10799000182F0E94763C803249F0809103018F5F5E
:1079A000809303018530C1F01F9108958091C0003C
:1079B00085FFFCCF84E18093C6008091C00085FFE5
:1079C000FCCF1093C6008091C00085FFFCCF80E102
:1079D0008093C6001F910895E0910401F091050184
:1079E00009951F9108950E94763C803241F0809164
:1079F00003018F5F80930301853081F008958091AA
:107A0000C00085FFFCCF84E18093C6008091C00058
:107A100085FFFCCF80E18093C6000895E0910401CA
:107A2000F09105010995089540E951E08823A1F0FE
:107A30002D9A28EE33E0FA013197F1F721503040CA
:107A4000D1F72D9828EE33E0FA013197F1F7215064
:107A50003040D1F7815061F708953F924F925F9285
:107A60006F927F928F929F92AF92BF92CF92DF924E
:107A7000EF92FF920F931F93CF93DF93000080E16B
:107A80008093C4001092C50088E18093C10086E015
:107A90008093C2005098589A259A81E00E94143D24
:107AA00024E1F22E9EE1E92E85E9D82E0FE0C02ECA
:107AB00010E1B12EAA24A394B1E49B2EA6E58A2E50
:107AC000F2E57F2EE0E26E2E79E4572E63E5462E36
:107AD00050E5352E0E94763C8033B1F18133B9F107
:107AE000803409F46FC0813409F476C0823409F41B
:107AF00085C0853409F488C0803531F1823521F1A3
:107B0000813511F1853509F485C0863509F48DC0BC
:107B1000843609F496C0843709F403C1853709F423
:107B200072C1863709F466C0809103018F5F80932C
:107B30000301853079F6E0910401F0910501099582
:107B40000E94763C803351F60E94F33CC3CF0E94E2
:107B5000763C803249F78091C00085FFFCCFF092DF
:107B6000C6008091C00085FFFCCF9092C600809136
:107B7000C00085FFFCCF8092C6008091C00085FFC9
:107B8000FCCF7092C6008091C00085FFFCCF609250
:107B9000C6008091C00085FFFCCF5092C600809146
:107BA000C00085FFFCCF4092C6008091C00085FFD9
:107BB000FCCF3092C6008091C00085FFFCCFB09210
:107BC000C60088CF0E94763C863808F4BDCF0E945C
:107BD000763C0E94F33C7ECF0E94763C803809F4CC
:107BE0009CC0813809F40BC1823809F43CC1883942
:107BF00009F48FC080E00E94C73C6CCF84E10E94F2
:107C0000BD3C0E94F33C66CF85E00E94BD3C0E94D3
:107C1000F33C60CF0E94763C809306010E94763C44
:107C2000809307010E94F33C55CF0E94763C80333D
:107C300009F41DC183E00E94BD3C80E00E94C73C66
:107C400049CF0E94763C809309020E94763C809343
:107C5000080280910C028E7F80930C020E94763C79
:107C6000853409F415C18091080290910902892B8D
:107C700089F000E010E00E94763CF801E85FFE4FDA
:107C800080830F5F1F4F80910802909109020817AF
:107C9000190788F30E94763C803209F045CF809125
:107CA0000C0280FF01C16091060170910701660F0F
:107CB000771F7093070160930601A0910802B091AD
:107CC00009021097C9F0E8E0F1E09B01AD014E0F09
:107CD0005F1FF999FECF32BD21BD819180BDFA9A17
:107CE000F99A2F5F3F4FE417F50799F76A0F7B1F4B
:107CF00070930701609306018091C00085FFFCCF5F
:107D0000F092C6008091C00085FFFCCFB092C60003
:107D1000E1CE83E00E94C73CDDCE82E00E94C73CFA
:107D2000D9CE0E94763C809309020E94763C8093D3
:107D300008028091060190910701880F991F909386
:107D40000701809306010E94763C853409F4A6C0A1
:107D500080910C028E7F80930C020E94763C8032D0
:107D600009F0B8CE8091C00085FFFCCFF092C6002C
:107D7000609108027091090261157105B9F140E046
:107D800050E080910C02A82FA170B82FB27011C0E2
:107D9000BB2309F45CC0E0910601F0910701319624
:107DA000F0930701E09306014F5F5F4F46175707B7
:107DB000E8F4AA2369F3F999FECF209106013091E6
:107DC000070132BD21BDF89A90B58091C00085FFB2
:107DD000FCCF9093C6002F5F3F4F30930701209355
:107DE00006014F5F5F4F4617570718F38091C00099
:107DF00085FDE5CE8091C00085FFF8CFE0CE81E023
:107E00000E94C73C67CE0E94763C803209F08CCE3F
:107E10008091C00085FFFCCFF092C6008091C00029
:107E200085FFFCCFE092C6008091C00085FFFCCFAB
:107E3000D092C6008091C00085FFFCCFC092C600E2
:107E40008091C00085FFFCCFB092C60043CEE09188
:107E50000601F091070194918091C00085FFFCCF4D
:107E60009093C6009CCF80E10E94C73C33CE0E9415
:107E7000763C0E94763C182F0E94763C112309F430
:107E800083C0113009F484C08FE00E94C73C22CE29
:107E900080910C02816080930C02E5CE80910C02EF
:107EA000816080930C0259CF809107018823880F4D
:107EB000880B8A2180930B02809106019091070123
:107EC000880F991F90930701809306018091080203
:107ED00080FF09C080910802909109020196909359
:107EE000090280930802F894F999FECF1127E091D6
:107EF0000601F0910701C8E0D1E08091080290915D
:107F00000902103091F40091570001700130D9F34B
:107F100003E000935700E89500915700017001308D
:107F2000D9F301E100935700E89509901990009169
:107F3000570001700130D9F301E000935700E89534
:107F40001395103498F011270091570001700130FB
:107F5000D9F305E000935700E895009157000170B0
:107F60000130D9F301E100935700E895329602976A
:107F700009F0C7CF103011F00296E5CF112480919F
:107F8000C00085FFB9CEBCCE8EE10E94C73CA2CD19
:0C7F900085E90E94C73C9ECDF894FFCF0D
:027F9C00800063
:040000030000780081
:00000001FF
