:100000000C949A000C94C2000C94C2000C94C20090
:100010000C94C2000C94C2000C94C2000C94C20058
:100020000C94C2000C9466070C94C2000C94C2009D
:100030000C94C2000C94C2000C94C2000C94C20038
:100040000C941C070C94C2000C94C2000C94C200C7
:100050000C94C2000C94C2000C94C2000C94C20018
:100060000C94D8070C94C200000000002300260066
:1000700029002020202020505553482120202020D6
:10008000202000202020202020203120202020207F
:10009000202020002020202020202032202020206E
:1000A000202020200020202020202020332020205D
:1000B00020202020200000000000240027002A002B
:1000C0000000000800020100000304070000000017
:1000D0000000000001020408102040800102040812
:1000E0001020010204081020000000002500280054
:1000F0002B000404040404040404020202020202A9
:100100000303030303035365636F6E642053747228
:10011000696E6700466972737420537472696E6702
:1001200000507265737320616E79206B65792E2E95
:100130002E00F70811241FBECFEFD8E0DEBFCDBFE1
:1001400011E0A0E0B1E0E4EDF1E202C005900D9213
:10015000AC33B107D9F722E0ACE3B1E001C01D92A6
:10016000AC32B207E1F710E0CAE9D0E004C0219751
:10017000FE010E94E90EC939D107C9F70E9417098B
:100180000C94E8100C94000008950895AF92BF926B
:10019000CF92DF92EF92FF920F931F93CF93DF9353
:1001A0006C017B018B01040F151FEB015E01AE1882
:1001B000BF08C017D10759F06991D601ED91FC91A4
:1001C0000190F081E02DC6010995892B79F7C501D1
:1001D000DF91CF911F910F91FF90EF90DF90CF9023
:1001E000BF90AF900895833081F028F4813099F06A
:1001F0008230A9F008958730A9F08830C9F08430A2
:10020000B1F4809180008F7D03C0809180008F7752
:1002100080938000089584B58F7784BD089584B558
:100220008F7DFBCF8091B0008F778093B0000895D1
:100230008091B0008F7DF9CF1F93CF93DF93282F4C
:1002400030E0F901E054FF4F8491F901EC52FF4F87
:10025000D491F901EE50FF4FC491CC23A9F0162F91
:1002600081110E94F300EC2FF0E0EE0FFF1FE85128
:10027000FF4FA591B4918FB7F894EC91111108C07C
:10028000D095DE23DC938FBFDF91CF911F9108952E
:10029000DE2BF8CFCF93DF9390E0FC01EC52FF4FC1
:1002A00024918E509F4FFC0184918823C9F090E0E7
:1002B000880F991FFC01EA54FF4FA591B491FC01EE
:1002C000E851FF4FC591D49161110DC09FB7F894CB
:1002D0008C91209582238C938881282328839FBF2B
:1002E000DF91CF910895623051F49FB7F8943C911B
:1002F000822F809583238C93E8812E2BEFCF8FB7AD
:10030000F894EC912E2B2C938FBFEACF8E3008F00F
:100310008E508770806480937C0080917A00806426
:1003200080937A0080917A0086FDFCCF80917800DE
:100330009091790008953FB7F8948091EF019091E2
:10034000F001A091F101B091F20126B5A89B05C082
:100350002F3F19F00196A11DB11D3FBFBA2FA92F44
:10036000982F8827BC01CD01620F711D811D911D41
:1003700042E0660F771F881F991F4A95D1F70895AD
:100380008F929F92AF92BF92CF92DF92EF92FF92A5
:100390004B015C010E949B016B017C010E949B014F
:1003A0006C197D098E099F09683E7340810591058E
:1003B000A8F321E0821A9108A108B10888EEC80EBE
:1003C00083E0D81EE11CF11C81149104A104B10446
:1003D00029F7FF90EF90DF90CF90BF90AF909F9064
:1003E0008F9008958F929F92AF92BF92CF92DF929B
:1003F000EF92FF92CF93DF93FC014A01AA24BB2422
:10040000C32ED42EE52EFF24DC2DC22F8085982DFF
:10041000882391F0C82FD0E0C89DD001C99DB00DB0
:10042000D89DB00D11249B2F8C9D60011124DD2DD2
:10043000829F90011124C32FA68521853285838553
:10044000A81321C0AB01440F551F640F751F620F25
:10045000731FA385A60FB72FB11D9C93A485A60F6C
:10046000B72FB11DDC938585680F711DFB01C0831B
:10047000DF91CF91FF90EF90DF90CF90BF90AF9042
:100480009F908F900895660F771F660F771F620FFA
:10049000731FA60FB72FB11D1C92DBCFCF92DF9237
:1004A000EF92FF920F931F93CF93DF93CDB7DEB7F9
:1004B00029970FB6F894DEBF0FBECDBF8C010E9406
:1004C0009B01D8011F96CD90DD90ED90FC90529746
:1004D0006C197D098E099F096C3271408105910567
:1004E00070F3F894F801848195819A83898301845B
:1004F000F285E02D7F012FEFE21AF20A80818F83CF
:10050000D8019C915396ED91FC91549755968C91FE
:10051000992309F448C09081982B98879081809501
:100520008923898789858B8388E08C8358856985B1
:100530004F813C812B8189819A81D701508347FD6E
:10054000252F3A952083262F39F0441F00C0000044
:100550006083000000C0F2CF38E04D91608300005E
:10056000019761F7D8015496FC93EE9353974F830C
:100570003C832B839A83898378940E949B01F801A2
:100580006787708B818B928B29960FB6F894DEBFAC
:100590000FBECDBFDF91CF911F910F91FF90EF90D4
:1005A000DF90CF9008959081982B988790818095C7
:1005B0008923898789858D8388E08E83588569851D
:1005C0004F813E812D8189819A81D701508347FDDA
:1005D000252F00C000C0208300C000C000C000C0A4
:1005E00000C060830000262F3A9541F0441F0000B0
:1005F00000C000C000C000C000C0E8CF38E04D918E
:1006000000C0608300C0019709F7D8015496FC939D
:10061000EE9353974F833E832D83ACCFFC0121850E
:100620003285232B11F00C944E0208951092E601AE
:100630001092E7011092E8011092E9011092E50191
:100640008091FE019091FF018093B200E0E7F0E01D
:100650008081816080830895089585ED8093BC003A
:100660008091BC0084FDFCCF1092F9010895209187
:100670007C01260F3327331F21323105ECF4209102
:10068000F901FC0190E080E0243069F082E00895F7
:10069000A0917C012191AC01445A5E4FA40FB52F6B
:1006A000B11D2C930196861798F380917C01680FF9
:1006B00060937C0180E0089581E008950895E091C1
:1006C000FD018091FC01E81730F4F0E0E45CFE4F9E
:1006D000808190E008958FEF9FEF08959091FD0144
:1006E0008091FC012FEF3FEF981748F4E92FF0E0DD
:1006F000E45CFE4F208130E09F5F9093FD01C901D3
:1007000008958091FC019091FD01891B990B08953A
:10071000CF92DF92EF92FF920F931F93CF93DF93CD
:100720007C01CB018A012091C301222389F0EB01D6
:100730006B01C40ED51ECC15DD0569F06991D7019A
:10074000ED91FC910190F081E02DC7010995F3CF67
:10075000642F0E943703C801DF91CF911F910F9141
:10076000FF90EF90DF90CF900895CF93DF931F928B
:10077000CDB7DEB769832091C3012223F9F0209120
:10078000FA01203258F021E030E0FC01338322836B
:1007900090E080E00F90DF91CF9108958091FB0170
:1007A000E82FF0E0EC53FE4F998190838F5F8093A8
:1007B000FB018093FA0181E090E0ECCF61E0CE0193
:1007C00001960E943703F7CFCF93FC01C48121E04B
:1007D0002093C301C093E4011092FB011092FA012F
:1007E0008385682B80E192E00E94B5039091FA0125
:1007F000913208F03FC08091F9018111FCCF82E075
:100800008093F90181E08093F8018FEF8093C2011A
:100810001092C1019093C001A4ECB1E0E0EAF1E0D4
:1008200080E098132FC010929F0180919F01CC0F00
:10083000C82BC0939F018091F701813039F5109248
:10084000F70180919F018093BB008091BC0083FDE4
:10085000F8CF85EC8093BC008091F9018230E1F300
:100860008091C2018F3F31F08091C201803211F03E
:100870008091C2011092FB011092FA011092C30103
:10088000CF9108952D9121938F5FCBCF85EEE2CF4D
:1008900090E080E00895FF920F931F93CF93DF9332
:1008A000EC010B81288130E0F901E054FF4F849185
:1008B000F901EC52FF4FF490F901EE50FF4F149103
:1008C0001123F9F081110E94F300E12FF0E0EE0F07
:1008D000FF1FE859FF4FA591B491EC91FE2231E042
:1008E00020E009F430E0832F922F21E082278170ED
:1008F00008130AC01982DF91CF911F910F91FF90C9
:10090000089590E080E0F1CF89818F5F89839A819B
:1009100089178CF38B818D8391E089278C838B835E
:10092000E9CF0F931F93CF93DF93C0910802D0912B
:100930000902888199810E944B048A819B810E94CF
:100940004B0410E000E0E0910C02F0910D02E00F8A
:10095000F11FC081D18188810E94860192509C83C1
:100960008B8389810E94860192509E838D838F8123
:1009700098850E944B040E5F1F4F0430110519F734
:10098000DF91CF911F910F910895FC01808191819A
:100990000C948B0F0F931F93CF938C01C62F0E9443
:1009A000E4036C2F6460C8010E94E4036C2F6B7F2A
:1009B000C8010E94E40383EC90E00197F1F7CF9126
:1009C0001F910F9108950F931F93CF93DF938C0185
:1009D000D62FC42F607F642B0E94CA0480E1D89F69
:1009E000B00111246C2BC801DF91CF911F910F91A1
:1009F0000C94CA04CF93DF93CDB7DEB728970FB618
:100A0000F894DEBF0FBECDBF98E0EAE0F1E0DE0172
:100A1000119601900D929A95E1F790912402961704
:100A200010F46FEF690F262F30E0220F331F41E0E3
:100A300050E04C0F5D1F240F351FF9016081680FD6
:100A4000606840E08CE192E028960FB6F894DEBF33
:100A50000FBECDBFDF91CF910C94E304CF93DF9312
:100A6000EB0160E00E94FA044C815D81688179812C
:100A70008CE192E0DF91CF910C94C60040E061E000
:100A80008CE192E00E94E3048BE39FE10197F1F790
:100A9000089541E00E94E30481E090E008950E94FF
:100AA000B20D22E030E040E050E00E944F0ECB015A
:100AB00008950F931F93CF93DF93EC018881998161
:100AC000009759F02A813B812617370730F081E0E3
:100AD000DF91CF911F910F9108958B016F5F7F4F31
:100AE0000E941410009759F0998388831B830A830E
:100AF0002C813D81232B59F7FC011082E8CF80E047
:100B0000E7CFEF92FF920F931F93CF93DF93EC0108
:100B10008B01198218821B821A821D821C82CB01D2
:100B20000E94110E7C01BC01CE010E945905288152
:100B30003981811113C02115310519F0C9010E94B5
:100B40008B0F198218821D821C821B821A82DF91F0
:100B5000CF911F910F91FF90EF900895FD82EC824D
:100B6000B801C901DF91CF911F910F91FF90EF90D4
:100B70000C940A0EBF92CF92DF92EF92FF920F93E6
:100B80001F93CF93DF9300D000D000D0CDB7DEB756
:100B90000E943E0565EA70E0CE0101960E94810543
:100BA000BE016F5F7F4F80E00E942E05CE0101964F
:100BB0000E94C504E0900602F090070210E000E0F9
:100BC000D70114968D919C91FC01228133810217EB
:100BD000130738F420E030E840E850E0B8010E9404
:100BE000F2010F5F1F4F0930110551F7D70114961D
:100BF0008D919C910E940E0368EE73E080E090E07E
:100C00000E94C0010E943E0564E970E0CE01019699
:100C10000E948105BE016F5F7F4F80E00E942E051C
:100C2000CE0101960E94C504E0900602F0900702F2
:100C3000F70184819581DC0112962D913C91021778
:100C4000130738F420E030EC40EC50E0B8010E948B
:100C5000F2010F5F1F4F0231110551F7F701848137
:100C600095810E940E0368EE73E080E090E00E94A0
:100C7000C0010E943E0563E870E0CE0101960E942B
:100C80008105BE016F5F7F4F80E00E942E05CE017F
:100C900001960E94C504E0900602F0900702D70179
:100CA00014968D919C91FC012281338102171307C8
:100CB00038F420E03FEF4FEF50E0B8010E94F2011E
:100CC0000F5F1F4F0B31110551F7D70114968D910E
:100CD0009C910E940E0368EE73E080E090E00E9419
:100CE000C0010E943E0562E770E0CE0101960E94BD
:100CF0008105BE016F5F7F4F80E00E942E05CE010F
:100D000001960E94C504C0900602D090070210E030
:100D100000E0F60184819581228133810217130757
:100D20008CF4DC0112962D913C910217130738F4D4
:100D30002FEF3FEF4FEF50E0B8010E94F2010F5F3D
:100D40001F4FE7CF0E940E03E0900C02F0900D02BF
:100D5000D701ED91FC9111970780F085E02D158268
:100D6000118281E0838314821296ED91FC910780B9
:100D7000F085E02D1582118283831482BB24B39405
:100D8000D701ED91FC9111970780F085E02D058149
:100D90001296ED91FC910780F085E02D85818111FF
:100DA00048C00B2510E011950195110961E070E034
:100DB00080E090E00E94C0010F3F100709F3D701C7
:100DC000ED91FC9111970780F085E02D158211823D
:100DD00081E0838314821296ED91FC910780F08567
:100DE000E02D15821182838314820E943E05D60174
:100DF0001496ED91FC914481558170E060E081850D
:100E000092850E94DA10F601848195810E940E037A
:100E1000C80126960FB6F894DEBF0FBECDBFDF9196
:100E2000CF911F910F91FF90EF90DF90CF90BF90E7
:100E3000089501E010E0BACF1F920F920FB60F9203
:100E400011242F933F938F939F93AF93BF938091E0
:100E5000EB019091EC01A091ED01B091EE01309188
:100E6000EA0123E0230F2D3758F50196A11DB11D8E
:100E70002093EA018093EB019093EC01A093ED01A4
:100E8000B093EE018091EF019091F001A091F101FA
:100E9000B091F2010196A11DB11D8093EF019093D5
:100EA000F001A093F101B093F201BF91AF919F9136
:100EB0008F913F912F910F900FBE0F901F9018951B
:100EC00026E8230F0296A11DB11DD2CF1F920F92CB
:100ED0000FB60F9211242F933F934F935F936F930D
:100EE0007F938F939F93AF93BF93EF93FF938091E3
:100EF000FE019091FF018093B2008091E6019091F4
:100F0000E701A091E801B091E9010196A11DB11D91
:100F10008093E6019093E701A093E801B093E90183
:100F20008091E6019091E701A091E801B091E9017B
:100F300040910202509103026091040270910502F7
:100F400084179507A607B70710F18091E501811175
:100F50001EC081E08093E5018091E6019091E70158
:100F6000A091E801B091E901841B950BA60BB70B8A
:100F70008093E6019093E701A093E801B093E90123
:100F8000E0910002F091010209951092E501FF91B4
:100F9000EF91BF91AF919F918F917F916F915F91F1
:100FA0004F913F912F910F900FBE0F901F9018956A
:100FB0001F920F920FB60F9211242F933F934F93CE
:100FC0005F936F937F938F939F93AF93BF93EF93B1
:100FD000FF938091B900887F803609F44AC0F0F50C
:100FE000883209F4A7C018F5803109F49BC0B8F421
:100FF000882309F4F9C0883009F494C0FF91EF9177
:10100000BF91AF919F918F917F916F915F914F9120
:101010003F912F910F900FBE0F901F901895883120
:1010200009F488C0803251F78093C20114C0803423
:1010300009F49DC040F48033B9F38833F9F6809306
:10104000C20185ECB0C0803509F485C0883509F44B
:1010500096C0883499F60E942D03D0CF883909F4C0
:101060008CC038F5883729F050F4883611F0803775
:1010700029F683E08093F90110929E0157C08838C9
:1010800009F47BC0803919F0803809F0B7CF80911E
:101090009E01803208F071C0E0919E0181E08E0FC8
:1010A00080939E018091BB00F0E0E258FE4F808368
:1010B0003DC0803B39F0E0F4803A09F479C0883AC9
:1010C00009F09CCF84E08093F90110927D01109289
:1010D0007C01E091F501F091F601099580917C0188
:1010E00081110FC081E080937C0110925C0109C0E6
:1010F000803C09F4A6CF883C09F4A3CF883B09F0D3
:101100007DCFE0917D0181E08E0F80937D01F0E045
:10111000E45AFE4F80818093BB0090917D018091C5
:101120007C0129C080919F018093BB0085EC809356
:10113000BC0064CF9091C1018091C001981758F50F
:10114000E091C10181E08E0F8093C101F0E0E05693
:10115000FE4F8081E9CFE091C10181E08E0F809345
:10116000C1018091BB00F0E0E056FE4F808390917A
:10117000C1018091C0019817C8F285E8D8CFE091ED
:10118000C10181E08E0F8093C1018091BB00F0E02E
:10119000E056FE4F80838091F80181115CCF81E0A1
:1011A0008093F70184EA8093BC001092F90126CF66
:1011B00085EC8093BC001092F90180919E018032F1
:1011C00030F4E0919E01F0E0E258FE4F1082609111
:1011D0009E0170E0E091F301F091F4018EE791E05F
:1011E000099510929E010ACF1092C20134CFE0E11E
:1011F000F2E01382128288EE93E0A0E0B0E08483F4
:101200009583A683B78382E291E091838083ECE1AA
:10121000F2E01382128284E391E09183808387E27B
:10122000848380E1818782E0828713860895CF934B
:10123000DF93CDB7DEB76D970FB6F894DEBF0FBE64
:10124000CDBF789484B5826084BD84B5816084BD4F
:1012500085B5826085BD85B5816085BD80916E0054
:10126000816080936E001092810080918100826085
:1012700080938100809181008160809381008091C2
:1012800080008160809380008091B10084608093B1
:10129000B1008091B00081608093B00080917A00AD
:1012A000846080937A0080917A00826080937A00D3
:1012B00080917A00816080937A0080917A008068C2
:1012C00080937A001092C10084E090E00E94EF0EBB
:1012D0007C01909309028093080286E090E00E94CE
:1012E000EF0E8C0172E0A72EDC01AC9215961C92D9
:1012F000159711961C921197BB24B3941396BC9228
:10130000139714961C9260E082E00E944A01EFE07D
:101310007E2EF8017282D7010D931C9386E090E037
:101320000E94EF0E8C0183E0F80180831582118208
:10133000B382148260E00E944A01D80112967C9226
:10134000F7011383028384E090E00E94EF0E4C01CA
:1013500090930D0280930C0289E090E00E94EF0EC2
:101360008C018EE0D8018C9311967C92119786E0C7
:1013700012968C9362E08EE00E944A0162E0F801CE
:1013800081810E944A0186E090E00E94EF0E7C017C
:10139000D80112968C91F701808315821182B38255
:1013A000148260E00E944A01D70112967C92F801F3
:1013B000F086E782D4010D931C9389E090E00E94AF
:1013C000EF0E8C0180E1F801808381E1818387E069
:1013D000828362E080E10E944A0162E0D8011196B6
:1013E0008C910E944A0186E090E00E94EF0E7C0101
:1013F000F8018281D7018C9315961C92159711964E
:101400001C9211971396BC92139714961C9260E04D
:101410000E944A01F7017282D8011896FC92EE925E
:101420001797F4011383028386E090E00E94EF0E89
:101430007C0188E090E0D70111969C938E93FBE1AC
:101440008F2E912C13969C928E92129786E190E0AB
:101450000E94EF0E8C01FC01118210861786108A03
:10146000118A128AB686B3861486A586B08281E573
:1014700090E0958384830E94EF0EF8019287818724
:10148000009709F463C221E5DC011D922A95E9F772
:101490009382828288E090E0D80117969C938E9385
:1014A000169711968C91882341F061E088E00E94A4
:1014B0004A0160E088E00E941C01EAEFF0E0E4915C
:1014C000F0E0EE0FFF1FE851FF4F85919491F80176
:1014D000948B838BECEDF0E0E491D8015596EC937E
:1014E0005597F7011583048316968D919C9197FD6E
:1014F00009C061E00E944A0160E0D80116968C9113
:101500000E941C0181E0F8018183D7011496ED91BE
:10151000FC914481558170E060E0818592850E9454
:10152000DA10F701848195810E940E03F092070280
:10153000E09206028AE090E00E94EF0E8C01DC014E
:101540001196FC92EE9283E090E015969C938E9318
:10155000149717969C938E93169719969C938E9337
:10156000189786E090E00E94EF0EF8018283938343
:101570005C013C01F6E06F0E711C86E090E00E9479
:10158000EF0ED5018D939D935D017C014C01B6E07A
:101590008B0E911C8CE090E00E94EF0EFC01D701B5
:1015A0008D939D937D011082118212821382148289
:1015B00015821682178210861186128613868A1665
:1015C0009B0641F7A614B704C1F610930F020093CF
:1015D0000E021092FD011092FC011092FB0110927C
:1015E000FA011092F90181E08093F8011092F7015D
:1015F00061E082E10E941C0161E083E10E941C0124
:101600008091B9008E7F8093B9008091B9008D7F61
:101610008093B90088E48093B80085E48093BC008F
:1016200084EC90E09093F6018093F50185EC90E0D6
:101630009093F4018093F30110922102809126028D
:10164000823018F098E0909321028093240262E3A4
:1016500070E080E090E00E94C001609127028CE180
:1016600092E00E94E40368EE73E080E090E00E9464
:10167000C00160E38CE192E00E94CA040BE416E42E
:10168000C8010197F1F760E38CE192E00E94CA047F
:10169000C8010197F1F760E38CE192E00E94CA046F
:1016A00083E592E00197F1F760E28CE192E00E941D
:1016B000CA0460912102606240E08CE192E00E94E5
:1016C000E30484E08093220240E06CE08CE192E04D
:1016D0000E94E3040E943E0582E08093230240E0E2
:1016E00066E08CE192E00E94E30440E062E08CE17D
:1016F00092E00E94E3048BE39FE10197F1F788E019
:101700008093270260E08CE192E00E94E40364E1B0
:1017100071E08E010F5F1F4FC8010E948105B80163
:1017200080E00E942E05C8010E94C50466E071E0B9
:10173000C8010E948105B80181E00E942E05C80100
:101740000E94C50485E090E0A0E0B0E08093020232
:1017500090930302A0930402B093050281E994E000
:101760009093010280930002809170008E7F80939D
:1017700070008091B0008C7F8093B0008091B100A8
:10178000877F8093B1008091B6008F7D8093B600F3
:10179000809170008D7F809370008091B100846093
:1017A0008093B1008091B1008C7F8093B10086E07E
:1017B00090E09093FF018093FE010E94160361E088
:1017C0008DE00E944A016DEA79E580E090E00E9498
:1017D000010E0E94B20D22E030E040E050E00E9495
:1017E0004F0E611571058105910509F4B4C0613092
:1017F00071058105910509F4B9C0D601ED91FC91FF
:101800000190F081E02DC6010995C6010E948B0F61
:1018100022242A94322C422C512CE0910E02F09179
:101820000F020190F081E02D0480F581E02D4481CC
:10183000558170E060E0818592850E94DA10712CFC
:10184000612CD12CC12CF12CE12CBC2DB170B98FA5
:10185000C60180959095E82FE170ED8FC701880F44
:10186000991F9C8F8B8FE0FC8CC0998D9A8FB12C27
:10187000A12C809170008E7F80937000E0910C020B
:10188000F0910D020190F081E02D0780F085E02DB0
:101890008481882309F47FC014820E943E0560E0A1
:1018A00080E00E94FA0480910A0290910B029C0150
:1018B0002F5F3F4F30930B0220930A021C8A1B8A32
:1018C0001E8A1D8A188E1F8A4AE0B8010E941A0ECD
:1018D000F80101900020E9F731974F01801A910A31
:1018E000B401CE0143960E9459052B893C89811190
:1018F0004BC02115310519F0C9010E948B0F1C8ABC
:101900001B8A188E1F8A1E8A1D8A4F89588D6B89E3
:101910007C898CE192E00E94C600CE0143960E9431
:10192000C50461E080E00E94FA0431E2832E31E0D8
:10193000932EF4016491FFEF8F1A9F0A662359F1E9
:1019400041E08CE192E00E94E304F3CF158214821F
:10195000138212829FCD82E090E00E94EF0E6C0114
:101960008CE191E0F6019183808347CF82E090E0A3
:101970000E94EF0E6C0186E191E0D6018D939C935D
:101980003CCFAD8DAA8F73CF988E8F8AB801C901D5
:101990000E94E110BACF80900E0290900F02D40105
:1019A0001296ED91FC911397C501880F991FE80FCE
:1019B000F91F0190F081E02D8B8D9C8DE80FF91FB0
:1019C0000190F081E02DE60DF71D208231824282E8
:1019D000538214962D913C91159716968D919C915A
:1019E000C29EA001C39E500DD29E500D1124489F4F
:1019F000B001499F700D589F700D1124A98DAA2325
:101A000009F457C001978E199F09829FA001839FF7
:101A1000500D929F500D1124640F751FBA8DBB237A
:101A200009F451C0620F731F615071096A197B0973
:101A3000D401ED91FC9184819581FC012281338157
:101A40006217730730F42FEF3FEF4FEF50E00E9423
:101A5000F201D401ED91FC9184819581FC012185F5
:101A60003285232B11F00E944E020E94160362E37E
:101A700070E080E090E00E94C001FFEFAF1ABF0A63
:101A800023E0A216B10409F0F4CE4FEFE41AF40AF1
:101A900083E0E816F10409F0E1CE9FEFC91AD90AF4
:101AA000A4E06A0E711CB3E0CB16D10409F0CBCED2
:101AB000B4CEE29EC001E39E900DF29E900D1124E3
:101AC000680F791FABCF6A0D7B1DB2CF8F929F92AB
:101AD000AF92BF92CF92DF92EF92FF92CF93DF93BC
:101AE000EC01688179818A819B816115710581058D
:101AF000910521F464E279ED8BE597E02DE133EF78
:101B000041E050E00E944F0E49015A019B01AC0197
:101B1000A7EAB1E40E946E0E6B017C01ACEEB4EF5B
:101B2000A50194010E947C0EC60ED71EE81EF91E68
:101B3000F7FE06C081E0C81AD108E10880E8F80A7B
:101B4000C882D982EA82FB82C701B6019F77DF9102
:101B5000CF91FF90EF90DF90CF90BF90AF909F908C
:101B60008F9008958F929F92AF92BF92CF92DF9203
:101B7000EF92FF926091000170910101809102014A
:101B800090910301611571058105910521F464E2CD
:101B900079ED8BE597E02DE133EF41E050E00E94D5
:101BA0004F0E49015A019B01AC01A7EAB1E40E9422
:101BB0006E0E6B017C01ACEEB4EFA50194010E94A6
:101BC0007C0EC60ED71EE81EF91EF7FE06C081E089
:101BD000C81AD108E10880E8F80AC0920001D09242
:101BE0000101E0920201F0920301C701B6019F7763
:101BF000FF90EF90DF90CF90BF90AF909F908F902D
:101C00000895609300017093010180930201909305
:101C100003010895FB01DC0105900D920020E1F71E
:101C20000895FC0105900020E9F7809590958E0FAE
:101C30009F1F0895BB274A3031F4992322F4BDE257
:101C4000909581959F4F0C94260EBB27FB0155273D
:101C5000AA27880F991FAA1FA41710F0A41B839509
:101C60005051B9F7A05DAA3308F0A95DA193009780
:101C700079F7B111B1931192CB010C943F0EDC01B5
:101C8000FC01672F71917723E1F7329704C07C91B3
:101C90006D9370836291AE17BF07C8F30895052E48
:101CA00097FB1EF400940E94660E57FD07D00E9419
:101CB000B80E07FC03D04EF40C94660E5095409578
:101CC000309521953F4F4F4F5F4F089590958095E8
:101CD000709561957F4F8F4F9F4F08950E94DA0E48
:101CE000A59F900DB49F900DA49F800D911D112470
:101CF0000895B7FF0C946E0E0E946E0E821B930B1C
:101D000008952F923F924F925F926F927F928F929F
:101D10009F92AF92BF92CF92DF92EF92FF920F937A
:101D20001F93CF93DF93CDB7DEB7CA1BDB0B0FB684
:101D3000F894DEBF0FBECDBF09942A883988488841
:101D40005F846E847D848C849B84AA84B984C884D7
:101D5000DF80EE80FD800C811B81AA81B981CE0FCE
:101D6000D11D0FB6F894DEBF0FBECDBFED010895B3
:101D7000A1E21A2EAA1BBB1BFD010DC0AA1FBB1F8F
:101D8000EE1FFF1FA217B307E407F50720F0A21B01
:101D9000B30BE40BF50B661F771F881F991F1A946E
:101DA00069F760957095809590959B01AC01BD0198
:101DB000CF010895A29FB001B39FC001A39F700DF2
:101DC000811D1124911DB29F700D811D1124911D43
:101DD0000895EE0FFF1F0590F491E02D09940F93E5
:101DE0001F93CF93DF938230910510F482E090E04F
:101DF000E0912A02F0912B0230E020E0B0E0A0E078
:101E0000309799F42115310509F44AC0281B390B84
:101E100024303105D8F58A819B816115710589F1DE
:101E2000FB0193838283FE0111C0408151810281B5
:101E3000138148175907E0F04817590799F410978C
:101E400061F012960C93129713961C933296CF0161
:101E5000DF91CF911F910F91089500932A02109363
:101E60002B02F4CF2115310551F04217530738F0FA
:101E7000A901DB019A01BD01DF01F801C1CFEF012A
:101E8000F9CF90932B0280932A02CDCFFE01E20F6F
:101E9000F31F819391932250310939832883D7CF3F
:101EA0002091280230912902232B41F42091060130
:101EB00030910701309329022093280220910401D8
:101EC000309105012115310541F42DB73EB7409100
:101ED000080150910901241B350BE0912802F09173
:101EE0002902E217F307A0F42E1B3F0B281739072E
:101EF00078F0AC014E5F5F4F2417350748F04E0F66
:101F00005F1F5093290240932802819391939FCFA2
:101F1000F0E0E0E09CCFCF93DF930097E9F0FC0185
:101F2000329713821282A0912A02B0912B02ED0106
:101F300030E020E01097A1F420813181820F931FBF
:101F400020912802309129022817390709F061C031
:101F5000F0932902E0932802DF91CF910895EA01DE
:101F6000CE17DF07E8F54A815B819E0141155105D7
:101F7000B1F7E901FB83EA8349915991C40FD51F59
:101F8000EC17FD0761F4808191810296840F951F03
:101F9000E90199838883828193819B838A83F0E01E
:101FA000E0E012968D919C9113970097B9F52D91D1
:101FB0003C911197CD010296820F931F2091280228
:101FC000309129022817390739F6309751F51092C8
:101FD0002B0210922A02B0932902A0932802BCCFB0
:101FE000D383C28340815181840F951FC817D907BD
:101FF00061F44E5F5F4F88819981480F591F51836B
:1020000040838A819B81938382832115310509F066
:10201000B0CFF0932B02E0932A029ECFFD01DC01AA
:10202000C0CF13821282D7CFB0E0A0E0EAE1F0E1A6
:102030000C94830E8C01009751F4CB010E94EF0E9B
:102040008C01C801CDB7DEB7E0E10C949F0EFC0116
:10205000E60FF71F9C0122503109E217F30708F43D
:102060009DC0D901CD91DC911197C617D70798F083
:10207000C530D10530F3CE0104978617970708F3D2
:10208000C61BD70B2297C193D1936D937C93CF013D
:102090000E948B0FD6CF5B01AC1ABD0A4C018C0E8F
:1020A0009D1EA0912A02B0912B02512C412CF12CA3
:1020B000E12C109731F58091280290912902881522
:1020C000990509F05CC04616570608F058C0809183
:1020D000040190910501009741F48DB79EB740919E
:1020E000080150910901841B950BE817F90708F0C6
:1020F00055C0F0932902E0932802F90171836083AF
:10210000A0CF8D919C91119712966C901297139677
:102110007C901397A815B90559F56C0142E0C40EDF
:10212000D11CCA14DB0420F1AC014A195B09DA01A5
:102130001296159780F06282738251834083D90191
:102140006D937C93E114F10471F0D7011396FC9325
:10215000EE93129776CF22968C0F9D1FF9019183F3
:102160008083F301EFCFF0932B02E0932A0269CF33
:102170004816590608F42C017D01D3019ACFCB01F2
:102180000E94EF0E7C01009749F0AE01B8010E9459
:10219000D110C8010E948B0F870153CF10E000E0DF
:1021A00050CFFB01DC0102C001900D924150504024
:1021B000D8F70895DC0101C06D9341505040E0F71D
:1021C0000895FB01DC0101900D920020E1F70895D4
:0421D000F894FFCFB1
:1021D4000100000000002C028000000040001400F8
:1021E400540000000000BA05000000004F05000084
:1021F4000000B503880348045E0381036E035F0394
:0C220400000000004905C60048042C033F
:107E0000112484B714BE81FFF0D085E080938100F7
:107E100082E08093C00088E18093C10086E0809377
:107E2000C20080E18093C4008EE0C9D0259A86E02C
:107E300020E33CEF91E0309385002093840096BBD3
:107E4000B09BFECF1D9AA8958150A9F7CC24DD24C4
:107E500088248394B5E0AB2EA1E19A2EF3E0BF2EE7
:107E6000A2D0813461F49FD0082FAFD0023811F036
:107E7000013811F484E001C083E08DD089C08234E0
:107E800011F484E103C0853419F485E0A6D080C0E4
:107E9000853579F488D0E82EFF2485D0082F10E0AE
:107EA000102F00270E291F29000F111F8ED06801E7
:107EB0006FC0863521F484E090D080E0DECF843638
:107EC00009F040C070D06FD0082F6DD080E0C81688
:107ED00080E7D80618F4F601B7BEE895C0E0D1E017
:107EE00062D089930C17E1F7F0E0CF16F0E7DF06D8
:107EF00018F0F601B7BEE89568D007B600FCFDCFD4
:107F0000A601A0E0B1E02C9130E011968C91119780
:107F100090E0982F8827822B932B1296FA010C0160
:107F200087BEE89511244E5F5F4FF1E0A038BF0790
:107F300051F7F601A7BEE89507B600FCFDCF97BE46
:107F4000E89526C08437B1F42ED02DD0F82E2BD052
:107F50003CD0F601EF2C8F010F5F1F4F84911BD097
:107F6000EA94F801C1F70894C11CD11CFA94CF0C13
:107F7000D11C0EC0853739F428D08EE10CD085E9AC
:107F80000AD08FE07ACF813511F488E018D01DD067
:107F900080E101D065CF982F8091C00085FFFCCF94
:107FA0009093C60008958091C00087FFFCCF809118
:107FB000C00084FD01C0A8958091C6000895E0E648
:107FC000F0E098E1908380830895EDDF803219F02E
:107FD00088E0F5DFFFCF84E1DECF1F93182FE3DFCA
:107FE0001150E9F7F2DF1F91089580E0E8DFEE27F6
:047FF000FF270994CA
:027FFE00040479
:0400000300007E007B
:00000001FF
