:100000000C9461000C947E000C947E000C947E0095
:100010000C947E000C947E000C947E000C947E0068
:100020000C947E000C947E000C947E000C947E0058
:100030000C947E000C947E000C947E000C947E0048
:100040000C94F9000C947E000C947E000C947E00BD
:100050000C947E000C947E000C947E000C947E0028
:100060000C947E000C947E00000000002400270009
:100070002A000000000023002600290000000000E4
:10008000250028002B0004040404040404040202D4
:100090000202020203030303030301020408102007
:1000A0004080010204081020010204081020000012
:1000B0000008000201000003040700000000000027
:1000C000000011241FBECFEFD8E0DEBFCDBF21E07E
:1000D000A6E0B1E001C01D92A531B207E1F711E041
:1000E000A0E0B1E0E4E1F7E002C005900D92A63097
:1000F000B107D9F70E9443010C9488030C940000C7
:10010000833081F028F4813099F08230A9F008958D
:100110008730A9F08830C9F08430B1F48091800034
:100120008F7D03C0809180008F7780938000089539
:1001300084B58F7784BD089584B58F7DFBCF809182
:10014000B0008F778093B00008958091B0008F7DCC
:10015000F9CF1F93CF93DF93EBEBF0E09491E7EAB5
:10016000F0E0D491E3E9F0E0C491CC23B9F0182F8A
:10017000992319F0892F0E948000EC2FF0E0EE0FF8
:10018000FF1FE458FF4FA591B4918FB7F894EC91FD
:10019000111108C0D095DE23DC938FBFDF91CF9182
:1001A0001F910895DE2BF8CF3FB7F89480910B0193
:1001B00090910C01A0910D01B0910E0126B5A89B64
:1001C00005C02F3F19F00196A11DB11D3FBFBA2FE9
:1001D000A92F982F8827BC01CD01620F711D811DA9
:1001E000911D42E0660F771F881F991F4A95D1F72E
:1001F00008951F920F920FB60F9211242F933F93E1
:100200008F939F93AF93BF938091070190910801C3
:10021000A0910901B0910A013091060123E0230F5A
:100220002D3758F50196A11DB11D2093060180932D
:10023000070190930801A0930901B0930A018091EE
:100240000B0190910C01A0910D01B0910E0101964E
:10025000A11DB11D80930B0190930C01A0930D0182
:10026000B0930E01BF91AF919F918F913F912F91CC
:100270000F900FBE0F901F90189526E8230F02963F
:10028000A11DB11DD2CF789484B5826084BD84B5A0
:10029000816084BD85B5826085BD85B5816085BD81
:1002A00080916E00816080936E0010928100809139
:1002B00081008260809381008091810081608093C1
:1002C0008100809180008160809380008091B100E6
:1002D00084608093B1008091B00081608093B00011
:1002E00080917A00846080937A0080917A008260A5
:1002F00080937A0080917A00816080937A00809167
:100300007A00806880937A001092C10086E090E0C5
:100310000E9463029093100180930F01C4E0D0E02B
:1003200010E000E06FE0F62E85E090E00E946302AE
:10033000DC01CC9314961C92149711961C92119781
:10034000FE01E656FF4F4491FE01EA57FF4F24910C
:100350002223D9F030E0220F331FF901E859FF4F73
:1003600085919491F901E458FF4F259134916FB72D
:10037000F894FC015081742F7095452F47234083DA
:10038000F9018081872380836FBF1296FC921297B8
:10039000E0910F01F0911001E00FF11FB183A083F4
:1003A0000E5F1F4F2196C730D10509F0BDCFE7EA98
:1003B000F0E02491E3E9F0E08491882399F090E063
:1003C000880F991FFC01E859FF4FA591B491FC01DA
:1003D000E458FF4F859194918FB7F894EC91E22BFC
:1003E000EC938FBFAA24A39490E0C92E90E0D92E5D
:1003F00010E000E0E0900F01F0901001F701E00F35
:10040000F11FC081D1819B80288130E0F901E25544
:10041000FF4F8491F901E656FF4FB490F901EA5776
:10042000FF4F8490882009F43EC081110E94800013
:10043000E82DF0E0EE0FFF1FEE58FF4FA591B491AD
:10044000EC91BE2231E020E009F430E0832F922FBE
:10045000F1E08F278170981229C019820E5F1F4F1B
:100460000630110509F0C6CFD701ED91FC918481CA
:10047000882339F181E00E94A9000E94D4002B0159
:100480003C010E94D4006419750986099709683EE9
:10049000734081059105A8F3C114D10409F4A8CFD4
:1004A0000E940000A5CF90E080E0D2CF89818F5FCD
:1004B00089839A81891794F28B818C838A258B8317
:1004C000CCCF80E0D8CF0F931F93CF93DF938230B0
:1004D000910510F482E090E0E0911301F091140195
:1004E00030E020E0B0E0A0E0309799F4211531052C
:1004F00009F44AC0281B390B24303105D8F58A810C
:100500009B816115710589F1FB0193838283FE0153
:1005100011C0408151810281138148175907E0F0D1
:100520004817590799F4109761F012960C93129797
:1005300013961C933296CF01DF91CF911F910F91AB
:1005400008950093130110931401F4CF2115310580
:1005500051F04217530738F0A901DB019A01BD01A0
:10056000DF01F801C1CFEF01F9CF9093140180931F
:100570001301CDCFFE01E20FF31F8193919322501F
:10058000310939832883D7CF20911101309112018D
:10059000232B41F420910201309103013093120189
:1005A00020931101209100013091010121153105A5
:1005B00041F42DB73EB74091040150910501241B31
:1005C000350BE0911101F0911201E217F307A0F44D
:1005D0002E1B3F0B2817390778F0AC014E5F5F4F99
:1005E0002417350748F04E0F5F1F509312014093B8
:1005F0001101819391939FCFF0E0E0E09CCFCF93E6
:10060000DF930097E9F0FC01329713821282A091E8
:100610001301B0911401ED0130E020E01097A1F436
:1006200020813181820F931F20911101309112019D
:100630002817390709F061C0F0931201E093110106
:10064000DF91CF910895EA01CE17DF07E8F54A81DF
:100650005B819E0141155105B1F7E901FB83EA83F6
:1006600049915991C40FD51FEC17FD0761F48081A2
:1006700091810296840F951FE90199838883828175
:1006800093819B838A83F0E0E0E012968D919C91A8
:1006900013970097B9F52D913C911197CD010296D2
:1006A000820F931F209111013091120128173907F1
:1006B00039F6309751F51092140110921301B0934E
:1006C0001201A0931101BCCFD383C2834081518119
:1006D000840F951FC817D90761F44E5F5F4F88815B
:1006E0009981480F591F518340838A819B8193834D
:1006F00082832115310509F0B0CFF0931401E09306
:1007000013019ECFFD01DC01C0CF13821282D7CF2F
:04071000F894FFCF8B
:0607140000001501800049
:00000001FF
