:100000000C94A4000C94CC000C94CC000C94CC0068
:100010000C94CC000C94CC000C94CC000C94CC0030
:100020000C94CC000C94DE0B0C94CC000C94CC0003
:100030000C94CC000C94CC000C94CC000C94CC0010
:100040000C94940B0C94CC000C94CC000C94CC002D
:100050000C94CC000C94CC000C94CC000C94CC00F0
:100060000C94500C0C94CC000000000023002600DF
:1000700029002020202020505553482120202020D6
:10008000202000202020202020203120202020207F
:10009000202020002020202020202032202020206E
:1000A000202020200020202020202020332020205D
:1000B00020202020200057494E21005365636F6E99
:1000C0006420706C617965720057494E2100466961
:1000D00072737420706C61796572000000000024F6
:1000E0000027002A000000000800020100000304AD
:1000F000070000000000000000010204081020407A
:1001000080010204081020010204081020000000F1
:1001100000250028002B0004040404040404040245
:1001200002020202020303030303035365636F6EBB
:100130006420537472696E67004669727374205349
:100140007472696E67006F0D11241FBECFEFD8E087
:10015000DEBFCDBF11E0A0E0B1E0E4EEF8E202C006
:1001600005900D92AC33B107D9F722E0ACE3B1E0D2
:1001700001C01D92AC32B207E1F710E0C4EAD0E052
:1001800004C02197FE010E947812C33AD107C9F733
:100190000E948F0D0C9470140C9400000895089523
:1001A000AF92BF92CF92DF92EF92FF920F931F9385
:1001B000CF93DF936C017B018B01040F151FEB01C3
:1001C0005E01AE18BF08C017D10759F06991D6017A
:1001D000ED91FC910190F081E02DC6010995892BEC
:1001E00079F7C501DF91CF911F910F91FF90EF90AB
:1001F000DF90CF90BF90AF900895833081F028F4C6
:10020000813099F08230A9F008958730A9F08830C4
:10021000C9F08430B1F4809180008F7D03C080915B
:1002200080008F7780938000089584B58F7784BD98
:10023000089584B58F7DFBCF8091B0008F77809338
:10024000B00008958091B0008F7DF9CF1F93CF93B8
:10025000DF93282F30E0F901EB51FF4F8491F90132
:10026000E750FF4FD491F901E95EFE4FC491CC23D2
:10027000A9F0162F81110E94FD00EC2FF0E0EE0F87
:10028000FF1FE35FFE4FA591B4918FB7F894EC91F7
:10029000111108C0D095DE23DC938FBFDF91CF9181
:1002A0001F910895DE2BF8CFCF93DF9390E0FC01F0
:1002B000E750FF4F2491895E9E4FFC018491882373
:1002C000C9F090E0880F991FFC01E552FF4FA591FE
:1002D000B491FC01E35FFE4FC591D49161110DC053
:1002E0009FB7F8948C91209582238C938881282342
:1002F00028839FBFDF91CF910895623051F49FB75B
:10030000F8943C91822F809583238C93E8812E2B47
:10031000EFCF8FB7F894EC912E2B2C938FBFEACFB1
:100320008E3008F08E508770806480937C008091BE
:100330007A00806480937A0080917A0086FDFCCFF9
:10034000809178009091790008953FB7F89480915A
:10035000EC019091ED01A091EE01B091EF0126B575
:10036000A89B05C02F3F19F00196A11DB11D3FBFED
:10037000BA2FA92F982F8827BC01CD01620F711DBC
:10038000811D911D42E0660F771F881F991F4A95B6
:10039000D1F708958F929F92AF92BF92CF92DF9242
:1003A000EF92FF924B015C010E94A5016B017C0161
:1003B0000E94A5016C197D098E099F09683E734052
:1003C00081059105A8F321E0821A9108A108B108DE
:1003D00088EEC80E83E0D81EE11CF11C8114910444
:1003E000A104B10429F7FF90EF90DF90CF90BF9068
:1003F000AF909F908F9008958F929F92AF92BF92EF
:10040000CF92DF92EF92FF92CF93DF93FC014A01EC
:10041000AA24BB24C32ED42EE52EFF24DC2DC22F0C
:100420008085982D882391F0C82FD0E0C89DD001F9
:10043000C99DB00DD89DB00D11249B2F8C9D6001DE
:100440001124DD2D829F90011124C32FA6852185C3
:1004500032858385A81321C0AB01440F551F640F5B
:10046000751F620F731FA385A60FB72FB11D9C9335
:10047000A485A60FB72FB11DDC938585680F711D6C
:10048000FB01C083DF91CF91FF90EF90DF90CF9081
:10049000BF90AF909F908F900895660F771F660F63
:1004A000771F620F731FA60FB72FB11D1C92DBCFF2
:1004B0002F923F924F925F926F927F928F929F9274
:1004C000AF92BF92CF92DF92EF92FF920F931F9362
:1004D000CF93DF9300D000D000D01F92CDB7DEB70E
:1004E0006C014B01F12CE12C9701220F331F3A8351
:1004F00029831E821D822D803E80220C331CB12C4C
:10050000A12C10E000E06D817E81617077277C83F3
:100510006B83D401ED91FC91E20DF31D0190F0810C
:10052000E02DEA0DFB1D4080518062807380D60172
:100530001296ED91FC9129813A81E20FF31F01900F
:10054000F081E02DE20DF31D0190F081E02DEA0D28
:10055000FB1D4082518262827382D801A170BB2749
:100560006B817C81672B09F47FC0F801E095F095E1
:100570007E2F71707F83F6018481958166817781FA
:10058000089F9001099F300D189F300D1124269F60
:10059000A001279F500D369F500D1124AB2B09F45D
:1005A00067C09B01215031096D817E81261B370B6D
:1005B000289FB001299F700D389F700D1124640F82
:1005C000751FBF81BB2309F45DC0680F791F61509F
:1005D00071096E197F09D601ED91FC918481958195
:1005E000FC01228133816217730738F4A301920161
:1005F0002227552724290E94FC010F5F1F4FF4E09A
:10060000AF0EB11C0330110509F083CF2D813E815F
:100610002F5F3F4F3E832D832330310509F06BCF91
:100620003FEFE31AF30A62E0860E911C73E0E716CF
:10063000F10409F059CF27960FB6F894DEBF0FBE2C
:10064000CDBFDF91CF911F910F91FF90EF90DF9081
:10065000CF90BF90AF909F908F907F906F905F9062
:100660004F903F902F900895802F81708F8383CF7C
:10067000AD81BE81A89FB001A99F700DB89F700D7C
:1006800011249DCF6E0D7F1DA6CF089585ED80931B
:10069000BC008091BC0084FDFCCF1092F60108954F
:1006A00020917E01260F3327331F21323105ECF4D0
:1006B0002091F601FC0190E080E0243069F082E0B6
:1006C0000895A0917E012191AC01425A5E4FA40F82
:1006D000B52FB11D2C930196861798F380917E015A
:1006E000680F60937E0180E0089581E00895089589
:1006F000E091FA018091F901E81730F4F0E0E25C52
:10070000FE4F808190E008958FEF9FEF08959091C4
:10071000FA018091F9012FEF3FEF981748F4E92F84
:10072000F0E0E25CFE4F208130E09F5F9093FA01A1
:10073000C90108958091F9019091FA01891B990BE3
:100740000895CF92DF92EF92FF920F931F93CF9372
:10075000DF937C01CB018A012091C501222389F01E
:10076000EB016B01C40ED51ECC15DD0569F0699156
:10077000D701ED91FC910190F081E02DC701099521
:10078000F3CF642F0E945003C801DF91CF911F91D6
:100790000F91FF90EF90DF90CF900895CF93DF936C
:1007A0001F92CDB7DEB769832091C5012223F9F0EE
:1007B0002091F701203258F021E030E0FC01338332
:1007C000228390E080E00F90DF91CF910895809197
:1007D000F801E82FF0E0EA53FE4F998190838F5F94
:1007E0008093F8018093F70181E090E0ECCF61E025
:1007F000CE0101960E945003F7CFCF93FC01C48134
:1008000021E02093C501C093E6011092F8011092F7
:10081000F7018385682B80E192E00E94CE039091DE
:10082000F701913208F03FC08091F6018111FCCFB1
:1008300082E08093F60181E08093F5018FEF809351
:10084000C4011092C3019093C201A6ECB1E0E2EAA8
:10085000F1E080E098132FC01092A1018091A101D6
:10086000CC0FC82BC093A1018091F401813039F5E0
:100870001092F4018091A1018093BB008091BC0093
:1008800083FDF8CF85EC8093BC008091F601823027
:10089000E1F38091C4018F3F31F08091C401803237
:1008A00011F08091C4011092F8011092F70110929A
:1008B000C501CF9108952D9121938F5FCBCF85EE08
:1008C000E2CF90E080E008952F923F924F925F92A6
:1008D0006F927F928F929F92AF92BF92CF92DF9250
:1008E000EF92FF920F931F93CF93DF9300D000D02E
:1008F00000D0CDB7DEB78C01522E29833A83642E07
:100900004B835C83762E6D837E83739473942FEF79
:10091000B2E0B60D3FEF44244A94411005C03111B6
:1009200003C0222309F461C0842D880F252C281AC6
:10093000472D5B2F64E0362E812C912C5401A1E0D1
:1009400082E0821508F44BC0533008F048C04330B1
:1009500008F045C0E22DF0E0EE0FFF1FE00FF11FA1
:10096000C52ED12CCC0CDD1CE080F180EC0CFD1CE4
:10097000E4E04E9FB0011124F701E080F180FB011B
:10098000EE0DFF1D6081718182819381681579056B
:100990008A059B0509F581149104A104B104F9F0BD
:1009A000AF5FA330E1F426960FB6F894DEBF0FBE1A
:1009B000CDBFDF91CF911F910F91FF90EF90DF900E
:1009C000CF90BF90AF909F908F907F906F905F90EF
:1009D0004F903F902F9008954B015C01A1E03A9415
:1009E000240C530F420F3110ABCF4394F2E04F125F
:1009F00094CFB2503F5F323009F08DCF7A947A9421
:100A00002F5F223009F084CF60E070E0CB01CBCFC4
:100A1000CF93DF93DC0114968D919C911597880FED
:100A2000991FE0913C01F0913D01E80FF91F1696E6
:100A30008D919C911797880F991FC081D181C80F04
:100A4000D91F18968D919C911997880F991F880F1F
:100A5000991FE881F981E80FF91F40815181628176
:100A6000738180E0452B462B472B51F48D919D914E
:100A70000D90BC91A02D80839183A283B38381E0EC
:100A8000DF91CF910895FC01A285B38513968D91D6
:100A90009C9114978F3D91402CF084819581019613
:100AA0009583848313968D919C91149782329E4FE7
:100AB0002CF48481958101979583848315968D917B
:100AC0009C9116978F3D91402CF0868197810196DD
:100AD0009783868315968D919C9182329E4F2CF43C
:100AE00086819781019797838683A0910802B091B0
:100AF00009022481358114968D919C9115972817B0
:100B0000390714F0158214828481958197FF07C0FC
:100B100014968D919C9115970197958384832681D6
:100B2000378116968D919C9117972817390714F0E5
:100B3000178216828681978197FF06C016968D913F
:100B40009C910197978386830895FF920F931F933B
:100B5000CF93DF93EC010B81288130E0F901EB5159
:100B6000FF4F8491F901E750FF4FF490F901E95EDE
:100B7000FE4F14911123F9F081110E94FD00E12F25
:100B8000F0E0EE0FFF1FE859FF4FA591B491EC91F3
:100B9000FE2231E020E009F430E0832F922F21E0A3
:100BA0008227817008130AC01982DF91CF911F91AB
:100BB0000F91FF90089590E080E0F1CF89818F5FE1
:100BC00089839A8189178CF38B818D8391E08927A2
:100BD0008C838B83E9CF0F931F93CF93DF93C091C7
:100BE0000E02D0910F02888199810E94A5058A8109
:100BF0009B810E94A50510E000E0E0910C02F091BD
:100C00000D02E00FF11FC081D18188810E94900107
:100C100092509C838B8389810E94900192509E8385
:100C20008D838F8198850E94A5050E5F1F4F04302C
:100C3000110519F7DF91CF911F910F910895CF9270
:100C4000DF92EF92FF920F931F93CF93DF93CDB775
:100C5000DEB729970FB6F894DEBF0FBECDBFDC011B
:100C600014960D911C91F80181859285892B09F4C8
:100C700065C00E94A501D8011F96CD90DD90ED9032
:100C8000FC9052976C197D098E099F096C32714056
:100C90008105910570F3F894F801848195819A8318
:100CA00089830184F285E02D7F012FEFE21AF20A99
:100CB00080818987D8019C915396ED91FC9154973E
:100CC00055968C91992309F448C09081982B988768
:100CD0009081809589238F838F818C8388E08B839B
:100CE00058856F8149853B812C8189819A81D70103
:100CF000508347FD252F3A952083262F39F0441F36
:100D000000C000006083000000C0F2CF38E04D91C9
:100D100060830000019761F7D8015496FC93EE932D
:100D2000539749873B832C839A83898378940E94C5
:100D3000A501F8016787708B818B928B29960FB67E
:100D4000F894DEBF0FBECDBFDF91CF911F910F9101
:100D5000FF90EF90DF90CF9008959081982B988727
:100D60009081809589238F838F818E8388E08D8306
:100D700058856F8149853D812E8189819A81D7016E
:100D8000508347FD252F00C000C0208300C000C055
:100D900000C000C000C060830000262F3A9541F0DB
:100DA000441F000000C000C000C000C000C0E8CF69
:100DB00038E04D9100C0608300C0019709F7D80169
:100DC0005496FC93EE93539749873D832E83ACCF83
:100DD000AF92BF92CF92DF92EF92FF920F931F9349
:100DE000CF93DF9386E090E00E947E128C017C011D
:100DF0006C0186E0C80ED11C86E090E00E947E1255
:100E0000F701819391937F01EC015C01F6E0AF0E55
:100E1000B11C8CE090E00E947E12FC0189939993B2
:100E20001082118212821382148215821682178216
:100E30001086118612861386CA15DB0551F7CE146B
:100E4000DF04D1F6C801DF91CF911F910F91FF9080
:100E5000EF90DF90CF90BF90AF900895CF92DF9248
:100E6000EF92FF920F931F93CF93DF93EC018C01CE
:100E70006C0186E0C80ED11CF12CE12CD801ED915B
:100E8000FC91EE0DFF1D80819181009711F00E9471
:100E90001A13B2E0EB0EF11CE6E0EE16F10471F766
:100EA000D8018D919D918D01009711F00E941A1328
:100EB000C016D10609F7209759F0CE01DF91CF91E6
:100EC0001F910F91FF90EF90DF90CF900C941A1329
:100ED000DF91CF911F910F91FF90EF90DF90CF9016
:100EE0000895FC01808191810C941A130E9476115F
:100EF00090E080E008950F931F93CF938C01C62F4D
:100F00000E94FD036C2F6460C8010E94FD036C2FDA
:100F10006B7FC8010E94FD0383EC90E00197F1F71D
:100F2000CF911F910F9108950F931F93CF93DF934C
:100F30008C01D62FC42F607F642B0E947B0780E139
:100F4000D89FB00111246C2BC801DF91CF911F9164
:100F50000F910C947B070F931F93CF93DF93CDB723
:100F6000DEB728970FB6F894DEBF0FBECDBF8A015B
:100F700098E0EAE0F1E0DE01119601900D929A9579
:100F8000E1F790912402981710F48FEF890F90E009
:100F9000880F991F21E030E02C0F3D1F820F931F17
:100FA000FC018081680F606840E08CE192E00E9463
:100FB0009407F80144815581608171818CE192E050
:100FC00028960FB6F894DEBF0FBECDBFDF91CF914C
:100FD0001F910F910C94D00040E061E08CE192E011
:100FE0000E9494078BE39FE10197F1F7089541E098
:100FF0000E94940781E090E00895EF92FF920F9392
:101000001F93CF93DF93EC017B01198218821B821F
:101010001A821D821C82CB010E94D5118C01BC0159
:101020006F5F7F4F90E080E00E94A3130097B9F0BC
:10103000998388831B830A832C813D81232B11F4A0
:10104000FC0110821D830C83B70188819981DF9197
:10105000CF911F910F91FF90EF900C94CE1188814A
:101060009981009711F00E941A13198218821D822B
:101070001C821B821A82DF91CF911F910F91FF90EA
:10108000EF9008952F923F924F925F926F927F92CE
:101090008F929F92AF92BF92CF92DF92EF92FF9288
:1010A0000F931F93CF93DF93CDB7DEB765970FB63E
:1010B000F894DEBF0FBECDBF1C01288739874A8751
:1010C0005B874701580167FD55C0DC0116966C939C
:1010D000D10116968C91169782301CF081E01696FD
:1010E0008C93F10162817381DB018D919C91288544
:1010F00039854A855B85DC012D933D934D935C9347
:101100001397A0910C02B0910D022D913C91119773
:10111000FC0133872287FB0122813381F901808220
:101120009182A282B38212968D919C91938782873D
:101130000E94E8067C0190933D0180933C010E944F
:10114000E8063C010091080210910902B701C801AC
:101150000E945802D8018D919C910E941F06F101B6
:101160001681112351F0113009F454C1C12CD12C36
:1011700076013BC0FC011682ABCF0280F381E02DEB
:10118000808191810E944305D1011296ED91FC91DD
:1011900080819181DC011A96ED91FC910780F085A8
:1011A000E02D2481222311F314820E940805882354
:1011B000E9F2F1018681F1E0F81BD1011696FC936A
:1011C00016971296ED91FC910190F081E02D24810B
:1011D0003581468157816085718580913C01909170
:1011E0003D010E9464046B017C01288539854A8594
:1011F0005B85C216D306E406F50609F034C10E94E9
:10120000EC076EEC70E0CE0101960E94FD07AE0186
:101210004F5F5F4F62E080E00E94AB07CE01019616
:101220000E94710769EC70E0CE0101960E94FD07F3
:10123000AE014F5F5F4F66E081E00E94AB07CE01D9
:1012400001960E94710731E03F83C814D904EA0473
:10125000FB0431F50E94EC076BEB70E0CE010196C8
:101260000E94FD07AE014F5F5F4F62E080E00E9489
:10127000AB07CE0101960E94710766EB70E0CE01CC
:1012800001960E94FD07AE014F5F5F4F66E081E06F
:101290000E94AB07CE0101960E94710741E04F8387
:1012A000E0903C01F0903D01F98AE88A93018701C2
:1012B0000A5F1F4FA889B989ED91FD91B98BA88B61
:1012C000FB8BEA8BD9014D915D919D012F01B6E019
:1012D0004B0E511CEA89FB8981919191FB8BEA8B22
:1012E0009D8B8C8BDA016D917D91AD016C01BCE021
:1012F000CB0ED11CEC89FD8981919191A191B19185
:10130000FD8BEC8BFB0181939193A193B193BF0172
:101310008C899D89C816D90669F7AA89BB894A169E
:101320005B06C1F6E889F9890E171F0719F6D10186
:101330001696EC9116978E2F880F990B1296ED91B9
:10134000FC91E80FF91FA081B1811496ED91FC91F9
:101350001597EE0FFF1FE60DF71D16962D913C9188
:101360001797220F331F80819181820F931F189648
:10137000ED91FC9119979F01220F331F220F331F0C
:10138000FC0180819181F901E80FF91F8D919D91F8
:101390000D90BC91A02D81589048A048BF4FBB270D
:1013A00080839183A283B383009108021091090284
:1013B000B301C8010E945802D8018D919C910E94EE
:1013C0001F0664E670E080E090E00E94CA01BF81E1
:1013D000BB2309F4C4CEC3010E942E07C7010E949B
:1013E0002E0765960FB6F894DEBF0FBECDBFDF9116
:1013F000CF911F910F91FF90EF90DF90CF90BF9012
:10140000AF909F908F907F906F905F904F903F90A4
:101410002F9008950280F381E02D828193810E94B4
:101420004305D1011296ED91FC9182819381DC01FB
:101430001A96ED91FC910780F085E02D24812223FE
:1014400009F494CE14820E940805882309F48ECEF4
:10145000F1018681181B16830280F381E02D028042
:10146000F381E02DB4CE1F82F0CEBF92CF92DF92F7
:10147000EF92FF920F931F93CF93DF9300D000D092
:1014800000D0CDB7DEB70E94EC0765EA70E0CE0170
:1014900001960E94FD07AE014F5F5F4F60E080E064
:1014A0000E94AB07CE0101960E947107E0900A02EC
:1014B000F0900B0210E000E0D70114968D919C9102
:1014C000FC01228133810217130738F420E030E851
:1014D00040E850E0B8010E94FC010F5F1F4F093047
:1014E000110551F7C7010E941F0668EE73E080E006
:1014F00090E00E94CA010E94EC0764E970E0CE010E
:1015000001960E94FD07AE014F5F5F4F60E080E0F3
:101510000E94AB07CE0101960E947107E0900A027B
:10152000F0900B02D70114968D919C91FC012281C1
:1015300033810217130738F420E030EC40EC50E020
:10154000B8010E94FC010F5F1F4F0231110551F7D6
:10155000C7010E941F0668EE73E080E090E00E94E1
:10156000CA010E94EC0763E870E0CE0101960E9478
:10157000FD07AE014F5F5F4F60E080E00E94AB0768
:10158000CE0101960E947107E0900A02F0900B02D2
:10159000D70114968D919C91FC0122813381021711
:1015A000130738F420E03FEF4FEF50E0B8010E94FE
:1015B000FC010F5F1F4F0B31110551F7C7010E944E
:1015C0001F0668EE73E080E090E00E94CA010E946E
:1015D000EC0762E770E0CE0101960E94FD07AE01C4
:1015E0004F5F5F4F60E080E00E94AB07CE01019645
:1015F0000E947107C0900A02D0900B0210E000E038
:10160000D60112968D919C911397081719079CF497
:1016100014968D919C91FC0122813381021713074E
:1016200038F42FEF3FEF4FEF50E0B8010E94FC017C
:101630000F5F1F4FE5CFC6010E941F06E0900C020E
:10164000F0900D02D701ED91FC9111970780F08584
:10165000E02D1582118281E0838314821296ED9130
:10166000FC910780F085E02D15821182838314821E
:10167000BB24B394D701ED91FC9111970780F085BD
:10168000E02D05811296ED91FC910780F085E02D0B
:101690008581811146C00B2510E011950195110936
:1016A00061E070E080E090E00E94CA010F3F100707
:1016B00009F3D701ED91FC9111970780F085E02D9A
:1016C0001582118281E0838314821296ED91FC9140
:1016D0000780F085E02D15821182838314820E9499
:1016E000EC07D6011496ED91FC914481558170E090
:1016F00060E0818592850E946914C6010E941F06E0
:10170000C80126960FB6F894DEBF0FBECDBFDF919D
:10171000CF911F910F91FF90EF90DF90CF90BF90EE
:10172000089501E010E0BCCF1F920F920FB60F9208
:1017300011242F933F938F939F93AF93BF938091E7
:10174000E8019091E901A091EA01B091EB0130919B
:10175000E70123E0230F2D3758F50196A11DB11D98
:101760002093E7018093E8019093E901A093EA01B7
:10177000B093EB018091EC019091ED01A091EE010D
:10178000B091EF010196A11DB11D8093EC019093E2
:10179000ED01A093EE01B093EF01BF91AF919F9146
:1017A0008F913F912F910F900FBE0F901F90189522
:1017B00026E8230F0296A11DB11DD2CF1F920F92D2
:1017C0000FB60F9211242F933F934F935F936F9314
:1017D0007F938F939F93AF93BF93EF93FF938091EA
:1017E0000102909102028093B200809104029091D4
:1017F0000502A0910602B09107020196A11DB11D3C
:101800008093040290930502A0930602B09307020E
:101810008091040290910502A0910602B091070206
:101820004091FD015091FE016091FF017091000215
:1018300084179507A607B70710F18091030281115D
:101840001EC081E080930302809104029091050202
:10185000A0910602B0910702841B950BA60BB70B53
:101860008093040290930502A0930602B0930702AE
:10187000E091FB01F091FC01099510920302FF91A8
:10188000EF91BF91AF919F918F917F916F915F91F8
:101890004F913F912F910F900FBE0F901F90189571
:1018A0001F920F920FB60F9211242F933F934F93D5
:1018B0005F936F937F938F939F93AF93BF93EF93B8
:1018C000FF938091B900887F803609F44AC0F0F513
:1018D000883209F4A7C018F5803109F49BC0B8F428
:1018E000882309F4F9C0883009F494C0FF91EF917E
:1018F000BF91AF919F918F917F916F915F914F9128
:101900003F912F910F900FBE0F901F901895883127
:1019100009F488C0803251F78093C40114C0803428
:1019200009F49DC040F48033B9F38833F9F680930D
:10193000C40185ECB0C0803509F485C0883509F450
:1019400096C0883499F60E944603D0CF883909F4AE
:101950008CC038F5883729F050F4883611F080377C
:1019600029F683E08093F6011092A00157C08838D1
:1019700009F47BC0803919F0803809F0B7CF809125
:10198000A001803208F071C0E091A00181E08E0FCB
:101990008093A0018091BB00F0E0E058FE4F80836F
:1019A0003DC0803B39F0E0F4803A09F479C0883AD0
:1019B00009F09CCF84E08093F60110927F01109291
:1019C0007E01E091F201F091F301099580917E0191
:1019D00081110FC081E080937E0110925E0109C0E9
:1019E000803C09F4A6CF883C09F4A3CF883B09F0DA
:1019F0007DCFE0917F0181E08E0F80937F01F0E049
:101A0000E25AFE4F80818093BB0090917F018091CC
:101A10007E0129C08091A1018093BB0085EC809359
:101A2000BC0064CF9091C3018091C201981758F512
:101A3000E091C30181E08E0F8093C301F0E0EE5589
:101A4000FE4F8081E9CFE091C30181E08E0F80934A
:101A5000C3018091BB00F0E0EE55FE4F8083909172
:101A6000C3018091C2019817C8F285E8D8CFE091F0
:101A7000C30181E08E0F8093C3018091BB00F0E031
:101A8000EE55FE4F80838091F50181115CCF81E09E
:101A90008093F40184EA8093BC001092F60126CF73
:101AA00085EC8093BC001092F6018091A0018032F9
:101AB00030F4E091A001F0E0E058FE4F1082609118
:101AC000A00170E0E091F001F091F10180E891E077
:101AD00009951092A0010ACF1092C40134CFE0E121
:101AE000F2E01382128288EE93E0A0E0B0E08483FB
:101AF0009583A683B78382E291E091838083ECE1B2
:101B0000F2E01382128284E391E09183808387E282
:101B1000848380E1818782E0828713860895CF9352
:101B2000DF9300D000D000D0CDB7DEB7789484B575
:101B3000826084BD84B5816084BD85B5826085BDC9
:101B400085B5816085BD80916E00816080936E0057
:101B50001092810080918100826080938100809149
:101B600081008160809381008091800081608093FA
:101B700080008091B10084608093B1008091B000BA
:101B800081608093B00080917A00846080937A00B5
:101B900080917A00826080937A0080917A008160DF
:101BA00080937A0080917A00806880937A00109206
:101BB000C10084E090E00E947E127C0190930F02AD
:101BC00080930E0286E090E00E947E128C0142E03B
:101BD000C42EDC01CC9215961C92159711961C927E
:101BE0001197DD24D3941396DC92139714961C92CC
:101BF00060E082E00E9454015FE0952EF80192823D
:101C0000D7010D931C9386E090E00E947E128C0118
:101C100083E0F801808315821182D382148260E010
:101C20000E945401D80112969C92F70113830283FB
:101C300084E090E00E947E125C0190930D028093FC
:101C40000C0289E090E00E947E128C018EE0D801A7
:101C50008C9311969C92119786E012968C9362E079
:101C60008EE00E94540162E0F80181810E945401DB
:101C700086E090E00E947E127C01D80112968C9141
:101C8000F701808315821182D382148260E00E9462
:101C90005401D70112969C92F801F086E782D50193
:101CA0000D931C9389E090E00E947E128C0180E1EC
:101CB000F801808381E1818387E0828362E080E1B3
:101CC0000E94540162E0D80111968C910E94540147
:101CD00086E090E00E947E127C01F8018281D701AB
:101CE0008C9315961C92159711961C92119713962A
:101CF000DC92139714961C9260E00E945401F70145
:101D00009282D8011896FC92EE921797F5011383F0
:101D1000028386E090E00E947E127C0188E090E0E1
:101D2000D70111969C938E936BE1A62EB12C13963E
:101D3000BC92AE92129786E190E00E947E128C01D6
:101D4000FC01118210861786108A118A128AD686A3
:101D5000D3861486C586D08281E590E095838483FE
:101D60000E947E12F80192878187009709F46DC264
:101D700021E5DC011D922A95E9F7B382A28288E071
:101D800090E0D80117969C938E93169711968C919C
:101D9000882341F061E088E00E94540160E088E01F
:101DA0000E942601EFE1F1E0E491F0E0EE0FFF1F69
:101DB000E35FFE4F85919491F801948B838BE1E072
:101DC000F1E0E491D8015596EC935597F70115830E
:101DD000048316968D919C9197FD09C061E00E9445
:101DE000540160E0D80116968C910E942601DD24F2
:101DF000D394F801D182D7011496ED91FC914481DE
:101E0000558170E060E0818592850E946914C70168
:101E10000E941F06F0920B02E0920A028AE090E014
:101E20000E947E128C01FC01F182E08283E090E04E
:101E30009583848397838683918780870E94E806B1
:101E4000D80113969C938E931297109309020093D6
:101E500008021092FA011092F9011092F801109202
:101E6000F7011092F601D092F5011092F40161E0B1
:101E700082E10E94260161E083E10E9426018091B7
:101E8000B9008E7F8093B9008091B9008D7F8093D7
:101E9000B90088E48093B80085E48093BC008EECA0
:101EA00090E09093F3018093F2018FEC90E0909397
:101EB000F1018093F001109221028091260282307C
:101EC00018F098E0909321028093240262E370E07E
:101ED00080E090E00E94CA01609127028CE192E0CC
:101EE0000E94FD0368EE73E080E090E00E94CA016A
:101EF00060E38CE192E00E947B070BE416E4C801EA
:101F00000197F1F760E38CE192E00E947B07C80142
:101F10000197F1F760E38CE192E00E947B0783E593
:101F200092E00197F1F760E28CE192E00E947B077A
:101F300060912102606240E08CE192E00E9494078F
:101F400084E08093220240E06CE08CE192E00E9409
:101F500094070E94EC0782E08093230240E066E051
:101F60008CE192E00E94940740E062E08CE192E014
:101F70000E9494078BE39FE10197F1F788E080933B
:101F8000270260E08CE192E00E94FD0369E371E0CA
:101F9000CE0101960E94FD07AE014F5F5F4F60E0EA
:101FA00080E00E94AB07CE0101960E9471076BE2B0
:101FB00071E0CE0101960E94FD07AE014F5F5F4FB9
:101FC00061E080E00E94AB07CE0101960E9471079C
:101FD00085E090E0A0E0B0E08093FD019093FE01E9
:101FE000A093FF01B09300028BEE95E09093FC016B
:101FF0008093FB01809170008E7F809370008091B0
:10200000B0008C7F8093B0008091B100877F809377
:10201000B1008091B6008F7D8093B60080917000F2
:102020008D7F809370008091B10084608093B100B7
:102030008091B1008C7F8093B10086E090E0909316
:102040000202809301021092040210920502109283
:1020500006021092070210920302809101029091F1
:1020600002028093B20080917000816080937000C2
:1020700061E08DE00E94540185E10E949001BC0165
:10208000990F880B990B611571058105910511F068
:102090000E94C51166246394712C20E0222E20E05A
:1020A000322E0E94761182E090E00E947E128C0116
:1020B00086E191E0F80191838083C8010E94760750
:1020C0002C01C8010E941A1387E090E00E947E1242
:1020D0006C01ECE1F1E0DC01ED93FC9384E090E035
:1020E0000E947E128C01D60113969C938E931297B8
:1020F0008CE090E00E947E12FC011082118212821C
:1021000013821386128675826482778266821186B4
:102110001086D8018D939C938CE090E00E947E12F3
:102120007C01FC01108211821282138213861286B6
:10213000758264827782668211861086D801139632
:102140009C938E93129784E090E00E947E128C0103
:10215000FC01F182E08286E090E00E947E12D801CC
:1021600013969C938E931297F12CE12CF801A28088
:10217000B380AE0CBF1C86E090E00E947E12D501B9
:102180008D939C93B12CA12CD8011296ED91FC91CA
:10219000EE0DFF1D808091808A0C9B1C83E090E0F7
:1021A0000E947E12F4019183808390E080E0D80148
:1021B0001296ED91FC91EE0DFF1D0190F081E02D46
:1021C000EA0DFB1D0190F081E02DE80FF91F108250
:1021D00001968330910559F7B2E0AB0EB11CE6E0F1
:1021E000AE16B10489F6F2E0EF0EF11C86E0E816B7
:1021F000F10409F0BBCFD8011296ED91FC91028059
:10220000F381E02D0280F381E02DB1E0B183F6018E
:10221000158304830190F081E02D0190F081E02D81
:10222000E12CF12C0FE710E020E03FE740E050E028
:10223000B201C6010995C6010E941A132114310486
:1022400009F42FCF0E9400002CCF15821482138234
:10225000128295CD8F929F92AF92BF92CF92DF92D2
:10226000EF92FF92CF93DF93EC01688179818A81AD
:102270009B81611571058105910521F464E279ED79
:102280008BE597E02DE133EF41E050E00E94DE1155
:1022900049015A019B01AC01A7EAB1E40E94FD117A
:1022A0006B017C01ACEEB4EFA50194010E940B120E
:1022B000C60ED71EE81EF91EF7FE06C081E0C81A3A
:1022C000D108E10880E8F80AC882D982EA82FB8254
:1022D000C701B6019F77DF91CF91FF90EF90DF901C
:1022E000CF90BF90AF909F908F9008958F929F92C4
:1022F000AF92BF92CF92DF92EF92FF926091000176
:1023000070910101809102019091030161157105A5
:102310008105910521F464E279ED8BE597E02DE1EB
:1023200033EF41E050E00E94DE1149015A019B0168
:10233000AC01A7EAB1E40E94FD116B017C01ACEE97
:10234000B4EFA50194010E940B12C60ED71EE81E21
:10235000F91EF7FE06C081E0C81AD108E10880E83E
:10236000F80AC0920001D0920101E0920201F092BD
:102370000301C701B6019F77FF90EF90DF90CF90E8
:10238000BF90AF909F908F900895609300017093DD
:10239000010180930201909303010895FB01DC0188
:1023A00005900D920020E1F70895FC0105900020B2
:1023B000E9F7809590958E0F9F1F0895052E97FB46
:1023C0001EF400940E94F51157FD07D00E94471299
:1023D00007FC03D04EF40C94F511509540953095C0
:1023E00021953F4F4F4F5F4F089590958095709581
:1023F00061957F4F8F4F9F4F08950E946912A59F4F
:10240000900DB49F900DA49F800D911D11240895EF
:10241000B7FF0C94FD110E94FD11821B930B0895D0
:102420002F923F924F925F926F927F928F929F92E4
:10243000AF92BF92CF92DF92EF92FF920F931F93D2
:10244000CF93DF93CDB7DEB7CA1BDB0B0FB6F89483
:10245000DEBF0FBECDBF09942A88398848885F84C3
:102460006E847D848C849B84AA84B984C884DF8034
:10247000EE80FD800C811B81AA81B981CE0FD11D18
:102480000FB6F894DEBF0FBECDBFED010895A1E2F7
:102490001A2EAA1BBB1BFD010DC0AA1FBB1FEE1FDE
:1024A000FF1FA217B307E407F50720F0A21BB30B29
:1024B000E40BF50B661F771F881F991F1A9469F7A5
:1024C00060957095809590959B01AC01BD01CF0101
:1024D0000895A29FB001B39FC001A39F700D811DFD
:1024E0001124911DB29F700D811D1124911D08951D
:1024F000EE0FFF1F0590F491E02D09940F931F93A9
:10250000CF93DF938230910510F482E090E0E09168
:102510002A02F0912B0230E020E0B0E0A0E03097FA
:1025200099F42115310509F44AC0281B390B2430D0
:102530003105D8F58A819B816115710589F1FB010F
:1025400093838283FE0111C04081518102811381F6
:1025500048175907E0F04817590799F4109761F0A8
:1025600012960C93129713961C933296CF01DF911B
:10257000CF911F910F91089500932A0210932B027F
:10258000F4CF2115310551F04217530738F0A90156
:10259000DB019A01BD01DF01F801C1CFEF01F9CFE5
:1025A00090932B0280932A02CDCFFE01E20FF31FFE
:1025B000819391932250310939832883D7CF209179
:1025C000280230912902232B41F4209106013091F9
:1025D00007013093290220932802209104013091B1
:1025E00005012115310541F42DB73EB74091080191
:1025F00050910901241B350BE0912802F09129022A
:10260000E217F307A0F42E1B3F0B2817390778F0C9
:10261000AC014E5F5F4F2417350748F04E0F5F1F28
:102620005093290240932802819391939FCFF0E029
:10263000E0E09CCFCF93DF930097E9F0FC01329765
:1026400013821282A0912A02B0912B02ED0130E098
:1026500020E01097A1F420813181820F931F2091F7
:102660002802309129022817390709F061C0F09338
:102670002902E0932802DF91CF910895EA01CE1755
:10268000DF07E8F54A815B819E0141155105B1F7ED
:10269000E901FB83EA8349915991C40FD51FEC17D7
:1026A000FD0761F4808191810296840F951FE901F5
:1026B00099838883828193819B838A83F0E0E0E021
:1026C00012968D919C9113970097B9F52D913C919D
:1026D0001197CD010296820F931F2091280230910D
:1026E00029022817390739F6309751F510922B0235
:1026F00010922A02B0932902A0932802BCCFD38360
:10270000C28340815181840F951FC817D90761F496
:102710004E5F5F4F88819981480F591F51834083D5
:102720008A819B81938382832115310509F0B0CF83
:10273000F0932B02E0932A029ECFFD01DC01C0CF73
:1027400013821282D7CFB0E0A0E0E9EAF3E10C9463
:1027500012128C01009751F4CB010E947E128C0161
:10276000C801CDB7DEB7E0E10C942E12FC01E60FF4
:10277000F71F9C0122503109E217F30708F49DC0AE
:10278000D901CD91DC911197C617D70798F0C530C4
:10279000D10530F3CE0104978617970708F3C61BBF
:1027A000D70B2297C193D1936D937C93CF010E9455
:1027B0001A13D6CF5B01AC1ABD0A4C018C0E9D1EBC
:1027C000A0912A02B0912B02512C412CF12CE12C2A
:1027D000109731F58091280290912902881599056A
:1027E00009F05CC04616570608F058C080910401F5
:1027F00090910501009741F48DB79EB74091080173
:1028000050910901841B950BE817F90708F055C092
:10281000F0932902E0932802F90171836083A0CF2D
:102820008D919C91119712966C90129713967C90B3
:102830001397A815B90559F56C0142E0C40ED11CD7
:10284000CA14DB0420F1AC014A195B09DA011296C3
:10285000159780F06282738251834083D9016D9312
:102860007C93E114F10471F0D7011396FC93EE937D
:10287000129776CF22968C0F9D1FF901918380834A
:10288000F301EFCFF0932B02E0932A0269CF4816B1
:10289000590608F42C017D01D3019ACFCB010E9487
:1028A0007E127C01009749F0AE01B8010E946014CD
:1028B000C8010E941A13870153CF10E000E050CFE7
:1028C000FB01DC0102C001900D9241505040D8F74D
:1028D0000895DC0101C06D9341505040E0F7089528
:0428E000F894FFCF9A
:1028E4000100000000002C028000000040001400E1
:1028F40054000000000076070000000042080000B9
:102904000000CE03A103610477039A0387037803CD
:0C29140000000000F707D000610445033C
:107E0000112484B714BE81FFF0D085E080938100F7
:107E100082E08093C00088E18093C10086E0809377
:107E2000C20080E18093C4008EE0C9D0259A86E02C
:107E300020E33CEF91E0309385002093840096BBD3
:107E4000B09BFECF1D9AA8958150A9F7CC24DD24C4
:107E500088248394B5E0AB2EA1E19A2EF3E0BF2EE7
:107E6000A2D0813461F49FD0082FAFD0023811F036
:107E7000013811F484E001C083E08DD089C08234E0
:107E800011F484E103C0853419F485E0A6D080C0E4
:107E9000853579F488D0E82EFF2485D0082F10E0AE
:107EA000102F00270E291F29000F111F8ED06801E7
:107EB0006FC0863521F484E090D080E0DECF843638
:107EC00009F040C070D06FD0082F6DD080E0C81688
:107ED00080E7D80618F4F601B7BEE895C0E0D1E017
:107EE00062D089930C17E1F7F0E0CF16F0E7DF06D8
:107EF00018F0F601B7BEE89568D007B600FCFDCFD4
:107F0000A601A0E0B1E02C9130E011968C91119780
:107F100090E0982F8827822B932B1296FA010C0160
:107F200087BEE89511244E5F5F4FF1E0A038BF0790
:107F300051F7F601A7BEE89507B600FCFDCF97BE46
:107F4000E89526C08437B1F42ED02DD0F82E2BD052
:107F50003CD0F601EF2C8F010F5F1F4F84911BD097
:107F6000EA94F801C1F70894C11CD11CFA94CF0C13
:107F7000D11C0EC0853739F428D08EE10CD085E9AC
:107F80000AD08FE07ACF813511F488E018D01DD067
:107F900080E101D065CF982F8091C00085FFFCCF94
:107FA0009093C60008958091C00087FFFCCF809118
:107FB000C00084FD01C0A8958091C6000895E0E648
:107FC000F0E098E1908380830895EDDF803219F02E
:107FD00088E0F5DFFFCF84E1DECF1F93182FE3DFCA
:107FE0001150E9F7F2DF1F91089580E0E8DFEE27F6
:047FF000FF270994CA
:027FFE00040479
:0400000300007E007B
:00000001FF
