:100000000C9461000C947E000C947E000C947E0095
:100010000C947E000C947E000C947E000C947E0068
:100020000C947E000C947E000C947E000C947E0058
:100030000C947E000C947E000C947E000C947E0048
:100040000C94FA000C947E000C947E000C947E00BC
:100050000C947E000C947E000C947E000C947E0028
:100060000C947E000C947E00000000002400270009
:100070002A000000000023002600290000000000E4
:10008000250028002B0004040404040404040202D4
:100090000202020203030303030301020408102007
:1000A0004080010204081020010204081020000012
:1000B0000008000201000003040700000000000027
:1000C000000011241FBECFEFD8E0DEBFCDBF21E07E
:1000D000A6E0B1E001C01D92A531B207E1F711E041
:1000E000A0E0B1E0ECE1F7E002C005900D92A6308F
:1000F000B107D9F70E9444010C948C030C940000C2
:100100003FB7F89480910D0190910E01A0910F01DD
:10011000B091100126B5A89B05C02F3F19F001969C
:10012000A11DB11D3FBFBA2FA92F982F8827820F7D
:10013000911DA11DB11DBC01CD0142E0660F771FCD
:10014000881F991F4A95D1F70895833081F028F4CC
:10015000813099F08230A1F008958730A9F088307D
:10016000B9F08430D1F4809180008F7D03C08091FC
:1001700080008F7780938000089584B58F7702C0C8
:1001800084B58F7D84BD08958091B0008F7703C0C2
:100190008091B0008F7D8093B00008951F93CF931E
:1001A000DF93EBEBF0E09491E7EAF0E0D491E3E940
:1001B000F0E0C491CC23D1F0182F992319F0892FA6
:1001C0000E94A500EC2FF0E0EE0FFF1FE458FF4F58
:1001D000A591B4919FB7F894111104C08C91D0955A
:1001E000D82302C0EC91DE2BDC939FBFDF91CF912F
:1001F0001F9108951F920F920FB60F9211242F9303
:100200003F938F939F93AF93BF93809109019091F8
:100210000A01A0910B01B0910C013091080123E07B
:10022000230F2D3720F40196A11DB11D05C026E82E
:10023000230F0296A11DB11D20930801809309018F
:1002400090930A01A0930B01B0930C0180910D01D2
:1002500090910E01A0910F01B09110010196A11D86
:10026000B11D80930D0190930E01A0930F01B093E7
:100270001001BF91AF919F918F913F912F910F905E
:100280000FBE0F901F901895789484B5826084BD3E
:1002900084B5816084BD85B5826085BD85B581608A
:1002A00085BD80916E00816080936E001092810008
:1002B00080918100826080938100809181008160C3
:1002C0008093810080918000816080938000809184
:1002D000B10084608093B1008091B0008160809310
:1002E000B00080917A00846080937A0080917A00D7
:1002F000826080937A0080917A00816080937A0096
:1003000080917A00806880937A001092C10086E024
:1003100090E00E946B029093070180930601C0E079
:10032000D0E01FE086E090E00E946B02DC018C2FA1
:100330008C5F8C9315961C92159711961C921197B1
:1003400013961C9213979E012C5F3F4FF901E656BE
:10035000FF4F8491F901EA57FF4F24912223D9F0EE
:1003600030E0220F331FF901E859FF4F45915491B6
:10037000F901E458FF4F259134916FB7F894FA01D1
:100380009081782F7095892F87238083F901808150
:10039000872380836FBF12961C931297CE01880F1C
:1003A000991FE0910601F0910701E80FF91FB18351
:1003B000A0832196C330D10509F0B4CFE7EAF0E07D
:1003C0002491E3E9F0E08491882399F090E0880F8C
:1003D000991FFC01E859FF4FA591B491FC01E45825
:1003E000FF4F859194918FB7F894EC91E22BEC93A9
:1003F0008FBFAA24A39490E0C92E90E0D92E00E0EC
:1004000010E0E0900601F0900701F701E00FF11F06
:10041000C081D1819B80288130E0F901E255FF4FF6
:100420008491F901E656FF4FB490F901EA57FF4F66
:1004300084908820A1F081110E94A500E82DF0E0B1
:10044000EE0FFF1FEE58FF4FA591B491EC91BE2225
:1004500031E020E009F430E0832F922F02C080E0E9
:1004600090E0F1E08F278170981659F089818F5FB5
:1004700089839A81891734F08B818D838A258C83B7
:100480008B8319820E5F1F4F0630110509F0B9CF1B
:10049000D701ED91FC918581882311F081E001C0A5
:1004A00080E00E94CE000E9480002B013C010E944F
:1004B0008000DC01CB0184199509A609B709883EA3
:1004C0009340A105B10598F3C114D10409F497CF65
:1004D0000E94000094CF0F931F93CF93DF9382303D
:1004E000910510F482E090E0E0911301F091140185
:1004F00020E030E0A0E0B0E0309719F14081518178
:100500000281138148175907C8F08417950769F4C9
:10051000109731F012960C93129713961C9327C0E4
:10052000009313011093140122C02115310519F015
:100530004217530718F49A01BD01EF01DF01F801DA
:10054000DBCF21153105F9F0281B390B243031059B
:1005500080F48A819B816115710521F0FB019383F1
:10056000828304C09093140180931301FE0132969C
:1005700044C0FE01E20FF31F819391932250310991
:10058000398328833AC02091110130911201232B25
:1005900041F4209102013091030130931201209324
:1005A000110120910001309101012115310541F423
:1005B0002DB73EB74091040150910501241B350B26
:1005C000E0911101F0911201E217F307A0F42E1B44
:1005D0003F0B2817390778F0AC014E5F5F4F2417A7
:1005E000350748F04E0F5F1F5093120140931101E1
:1005F0008193919302C0E0E0F0E0CF01DF91CF91D1
:100600001F910F910895CF93DF93009709F481C054
:10061000FC01329713821282A0911301B091140150
:10062000109781F420813181820F931F2091110155
:10063000309112012817390751F5F0931201E09318
:10064000110167C0ED0120E030E0CE17DF0740F474
:100650004A815B819E0141155105F1F0EA01F5CF18
:10066000D383C28340815181840F951FC817D90756
:1006700059F488819981840F951F02969183808314
:100680008A819B81938382832115310529F4F0931C
:100690001401E09313013DC0E901FB83EA83499112
:1006A0005991C40FD51FEC17FD0761F4808191812A
:1006B000840F951F0296E901998388838281938133
:1006C0009B838A83E0E0F0E012968D919C911397D2
:1006D000009719F0FD01DC01F7CF8D919C911197E6
:1006E0009D012E5F3F4F820F931F2091110130918A
:1006F00012012817390769F4309729F41092140170
:100700001092130102C013821282B0931201A093BF
:0C0710001101DF91CF910895F894FFCF04
:06071C0000001501800041
:00000001FF
