:100000000C9461000C947E000C947E000C947E0095
:100010000C947E000C947E000C947E000C947E0068
:100020000C947E000C947E000C947E000C947E0058
:100030000C947E000C947E000C947E000C947E0048
:100040000C94CF030C947E000C947E000C947E00E4
:100050000C947E000C947E000C947E000C947E0028
:100060000C947E000C947E0000000000230026000B
:10007000290000000000240027002A0000000000E2
:10008000250028002B0004040404040404040202D4
:100090000202020203030303030301020408102007
:1000A0004080010204081020010204081020000012
:1000B0000008000201000003040700000000000027
:1000C000000011241FBECFEFD8E0DEBFCDBF11E08E
:1000D000A0E0B1E0E8EBF0E102C005900D92A031A4
:1000E000B107D9F721E0A0E1B1E001C01D92A33230
:1000F000B207E1F70E9419040C945A080C9400000E
:10010000833081F028F4813099F08230A9F008958D
:100110008730A9F08830C9F08430B1F48091800034
:100120008F7D03C0809180008F7780938000089539
:1001300084B58F7784BD089584B58F7DFBCF809182
:10014000B0008F778093B00008958091B0008F7DCC
:10015000F9CFCF93DF93282F30E0F901E255FF4F1D
:100160008491F901E656FF4FD491F901EA57FF4F08
:10017000C491CC2391F081110E948000EC2FF0E01B
:10018000EE0FFF1FE458FF4FA591B4918FB7F8947D
:10019000EC91D095DE23DC938FBFDF91CF91089552
:1001A000CF93DF9390E0FC01E656FF4F24918A57EE
:1001B0009F4FFC0184918823C9F090E0880F991F1C
:1001C000FC01EE58FF4FA591B491FC01E458FF4F9C
:1001D000C591D49161110DC09FB7F8948C91209571
:1001E00082238C938881282328839FBFDF91CF911E
:1001F0000895623051F49FB7F8943C91822F809516
:1002000083238C93E8812E2BEFCF8FB7F894EC915A
:100210002E2B2C938FBFEACF8E3008F08E50877034
:10022000806480937C0080917A00806480937A005F
:1002300080917A0086FDFCCF8091780090917900C2
:1002400008953FB7F8948091150190911601A091FF
:100250001701B091180126B5A89B05C02F3F19F0D2
:100260000196A11DB11D3FBFBA2FA92F982F882736
:10027000BC01CD01620F711D811D911D42E0660F11
:10028000771F881F991F4A95D1F708958F929F92E3
:10029000AF92BF92CF92DF92EF92FF924B015C013F
:1002A0000E9421016B017C010E9421016C197D09D2
:1002B0008E099F09683E734081059105A8F321E0EE
:1002C000821A9108A108B10888EEC80E83E0D81EF2
:1002D000E11CF11C81149104A104B10429F7FF90E1
:1002E000EF90DF90CF90BF90AF909F908F90089548
:1002F000CF92DF92EF92FF920F931F93CF93DF93F2
:10030000CDB7DEB729970FB6F894DEBF0FBECDBFCD
:100310008C010E942101D8011F96CD90DD90ED90B7
:10032000FC9052976C197D098E099F096C327140BF
:100330008105910570F3F894F801848195819A8381
:1003400089830184F285E02D7F012FEFE21AF20A02
:1003500080818F83D8019C915396ED91FC915497A5
:1003600055968C91992309F448C09081982B9887D1
:10037000908180958923898789858B8388E08C8308
:10038000588569854F813C812B8189819A81D7016C
:10039000508347FD252F3A952083262F39F0441F9F
:1003A00000C000006083000000C0F2CF38E04D9133
:1003B00060830000019761F7D8015496FC93EE9397
:1003C00053974F833C832B839A83898378940E942D
:1003D0002101F8016787708B818B928B29960FB66C
:1003E000F894DEBF0FBECDBFDF91CF911F910F916B
:1003F000FF90EF90DF90CF9008959081982B988791
:10040000908180958923898789858D8388E08E8373
:10041000588569854F813E812D8189819A81D701D7
:10042000508347FD252F00C000C0208300C000C0BE
:1004300000C000C000C060830000262F3A9541F044
:10044000441F000000C000C000C000C000C0E8CFD2
:1004500038E04D9100C0608300C0019709F7D801D2
:100460005496FC93EE9353974F833E832D83ACCFEA
:10047000FC0121853285232B11F00C94780108951D
:100480008F929F92AF92BF92CF92DF92EF92FF92A4
:10049000CF93DF93FC018281938168177907D8F5A8
:1004A0004A01AA24BB24C32ED42EE52EFF24DC2D22
:1004B000C22F8085982D882391F0C82FD0E0C89D49
:1004C000D001C99DB00DD89DB00D11249B2F8C9DDE
:1004D00060011124DD2D829F90011124C32FA68578
:1004E000218532858385A81321C0AB01440F551F98
:1004F000640F751F620F731FA385A60FB72FB11D61
:100500009C93A485A60FB72FB11DDC938585680F3A
:10051000711DFB01C083DF91CF91FF90EF90DF90C1
:10052000CF90BF90AF909F908F900895660F771FE8
:10053000660F771F620F731FA60FB72FB11D1C9296
:10054000DBCFFF920F931F93CF93DF93EC010B81CF
:10055000288130E0F901E255FF4F8491F901E65618
:10056000FF4FF490F901EA57FF4F14911123F9F06E
:1005700081110E948000E12FF0E0EE0FFF1FE8598B
:10058000FF4FA591B491EC91FE2231E020E009F4F7
:1005900030E0832F922F21E08227817008130AC058
:1005A0001982DF91CF911F910F91FF90089590E0F4
:1005B00080E0F1CF89818F5F89839A8189178CF3DD
:1005C0008B818D8391E089278C838B83E9CF0F9377
:1005D0001F93CF93DF93C0911901D0911A018881A5
:1005E00099810E94A1028A819B810E94A10210E050
:1005F00000E0E0911D01F0911E01E00FF11FC081AC
:10060000D18188810E940C0192509C838B838981C7
:100610000E940C0192509E838D838F8198850E9449
:10062000A1020E5F1F4F0430110519F7DF91CF9122
:100630001F910F9108950F931F93CF93DF93009114
:100640001B0110911C01D0E0C0E020E030E440E448
:1006500050E0BE01D80114968D919C910E944002F9
:100660002196C930D10589F7F801848195810E94CE
:10067000380268EE73E080E090E00E94460120E0DE
:1006800030E840E850E0BE01D80114968D919C916D
:100690000E9440022196C231D10589F7F801848178
:1006A00095810E94380268EE73E080E090E00E943D
:1006B000460120E03FEF4FEF50E0BE01D801149615
:1006C0008D919C910E9440022196CB31D10589F7F2
:1006D000F801848195810E94380268EE73E080E021
:1006E00090E00E944601D0E0C0E0D80114968D91C0
:1006F0009C91159712962D913C91C217D3074CF4FB
:100700002FEF3FEF4FEF50E0BE010E9440022196D5
:10071000ECCF0E94380268EE73E080E090E00E9427
:100720004601D8011496ED91FC914481558170E009
:1007300060E0818592850E945308F801848195814B
:100740000E9438020E94E702E0911901F0911A011B
:10075000A081B18115968C9181110DC00280F38129
:10076000E02D858181110EC061E070E080E090E0B5
:100770000E944601E7CF90E080E0DF91CF911F918A
:100780000F91089581E090E0F8CF0E94730622E077
:1007900030E040E050E00E94CB06CB0108951F926C
:1007A0000F920FB60F9211242F933F938F939F9325
:1007B000AF93BF938091110190911201A091130109
:1007C000B09114013091100123E0230F2D3758F51B
:1007D0000196A11DB11D20931001809311019093EA
:1007E0001201A0931301B09314018091150190910F
:1007F0001601A0911701B09118010196A11DB11D1C
:100800008093150190931601A0931701B0931801DE
:10081000BF91AF919F918F913F912F910F900FBEFC
:100820000F901F90189526E8230F0296A11DB11D69
:10083000D2CF789484B5826084BD84B5816084BD54
:1008400085B5826085BD85B5816085BD80916E006E
:10085000816080936E00109281008091810082609F
:1008600080938100809181008160809381008091DC
:1008700080008160809380008091B10084608093CB
:10088000B1008091B00081608093B00080917A00C7
:10089000846080937A0080917A00826080937A00ED
:1008A00080917A00816080937A0080917A008068DC
:1008B00080937A001092C10084E090E00E942E079D
:1008C0006C0190931A018093190184E090E00E94DA
:1008D0002E077C0190931E0180931D0186E090E01D
:1008E0000E942E078C0188E090E0D80111969C931D
:1008F0008E934BE1A42EB12C1396BC92AE9212971C
:1009000086E190E00E942E07EC01198218861F866E
:10091000188A198A1A8A81E08E878B871C8692E052
:100920009D87888381E590E09D838C830E942E07BC
:100930009A878987009709F463C121E5FC01119228
:100940002A95E9F7BB82AA8288E090E09F838E8394
:100950008981882339F061E088E00E94D00088E036
:100960000E94A900EEE8F0E0E491F0E0EE0FFF1F36
:10097000E458FF4F859194919C8B8B8BE2EAF0E0D9
:10098000E491ED8BD8011596DC93CE9314978E816C
:100990009F8197FD06C061E00E94D0008E810E9479
:1009A000A90081E08983D8011496ED91FC914481DE
:1009B000558170E060E0818592850E945308F801BE
:1009C000848195810E94380210931C0100931B01C1
:1009D0008AE090E00E942E07EC011983088383E0EF
:1009E00090E09D838C839F838E839987888786E0A0
:1009F00090E00E942E078A839B83EC018C010A5FA2
:100A00001F4F86E090E00E942E07899399934C0136
:100A10005C01B6E0AB0EB11C8CE090E00E942E07AA
:100A2000FC01D4018D939D934D011082118212829D
:100A300013821482158216821782108611861286FE
:100A40001386AA16BB0641F70C171D07D1F686E0E0
:100A500090E00E942E07EC0182E088831D821982BB
:100A60001B8260E00E94D0002FE0B22EBA82D60135
:100A7000CD93DC9386E090E00E942E07EC0183E0AA
:100A800088831D8219821B8260E00E94D000BA8296
:100A9000F601D383C28389E090E00E942E07EC0127
:100AA0008EE08883B98286E08A8362E08EE00E94CD
:100AB000D00062E089810E94D00086E090E00E9430
:100AC0002E078C018A81D8018C9315961C9215975C
:100AD00011961C92119713961C9260E00E94D00010
:100AE000F801B28218870F83D701CD93DC9389E098
:100AF00090E00E942E07EC0180E1888381E18983E8
:100B000087E08A8362E080E10E94D00062E0898110
:100B10000E94D00086E090E00E942E078C018A811E
:100B2000F801808315821182138260E00E94D00058
:100B3000D8011296BC9218870F83F701D383C28322
:100B400061E08DE00E94D0006DEA79E580E090E000
:100B50000E94C2060E94730682E090E00E942E0767
:100B60002EE031E0DC012D933C930E94C5030E94EE
:100B7000E702E0911D01F0911E01A081B181139661
:100B80002D913C916901BEEFDB1AD7FE05C06901CA
:100B900081E8C81A8DEFD80ACC0CCD2CCC1CDD080E
:100BA0000280F381E02D838194818C011E5F17FF09
:100BB00002C001581F4F000F012F001F110BE090C2
:100BC0001B01F0901C01D7011496ED91FC9144811A
:100BD000558170E060E0818592850E945308D0E0E5
:100BE000C0E0F70184819581CC16DD0674F021E028
:100BF00031E04FEF50E0BE010E9440022196F1CF5C
:100C00001D821C821B821A829FCE0E5E1F4FC2E184
:100C1000D0E0D70114968D919C910C171D074CF0D4
:100C20002FEF31E041E050E0BE010E9440022196EA
:100C3000F0CFFC0121853285232B11F00E94780131
:100C400061E070E080E090E00E94460190CF8F92DA
:100C50009F92AF92BF92CF92DF92EF92FF92CF938B
:100C6000DF93EC01688179818A819B81611571052F
:100C70008105910521F464E279ED8BE597E02DE1A2
:100C800033EF41E050E00E94CB0649015A019B013D
:100C9000AC01A7EAB1E40E94EA066B017C01ACEE6C
:100CA000B4EFA50194010E94F806C60ED71EE81EF7
:100CB000F91EF7FE06C081E0C81AD108E10880E8F5
:100CC000F80AC882D982EA82FB82C701B6019F77FF
:100CD000DF91CF91FF90EF90DF90CF90BF90AF90DA
:100CE0009F908F9008958F929F92AF92BF92CF92D4
:100CF000DF92EF92FF92609100017091010180916B
:100D0000020190910301611571058105910521F49E
:100D100064E279ED8BE597E02DE133EF41E050E0BF
:100D20000E94CB0649015A019B01AC01A7EAB1E43C
:100D30000E94EA066B017C01ACEEB4EFA5019401C0
:100D40000E94F806C60ED71EE81EF91EF7FE06C062
:100D500081E0C81AD108E10880E8F80AC0920001D1
:100D6000D0920101E0920201F0920301C701B601A5
:100D70009F77FF90EF90DF90CF90BF90AF909F90C4
:100D80008F90089560930001709301018093020198
:100D9000909303010895052E97FB1EF400940E9482
:100DA000E20657FD07D00E94FD0607FC03D04EF473
:100DB0000C94E20650954095309521953F4F4F4F4A
:100DC0005F4F089590958095709561957F4F8F4FF7
:100DD0009F4F08950E941F07A59F900DB49F900DEF
:100DE000A49F800D911D11240895B7FF0C94EA066D
:100DF0000E94EA06821B930B0895A1E21A2EAA1BF9
:100E0000BB1BFD010DC0AA1FBB1FEE1FFF1FA217BA
:100E1000B307E407F50720F0A21BB30BE40BF50BB7
:100E2000661F771F881F991F1A9469F76095709540
:100E3000809590959B01AC01BD01CF010895A29FC3
:100E4000B001B39FC001A39F700D811D1124911D9E
:100E5000B29F700D811D1124911D08950F931F9352
:100E6000CF93DF938230910510F482E090E0E0911F
:100E70002101F091220130E020E0B0E0A0E03097C5
:100E800099F42115310509F44AC0281B390B243087
:100E90003105D8F58A819B816115710589F1FB01C6
:100EA00093838283FE0111C04081518102811381AD
:100EB00048175907E0F04817590799F4109761F05F
:100EC00012960C93129713961C933296CF01DF91D2
:100ED000CF911F910F91089500932101109322014A
:100EE000F4CF2115310551F04217530738F0A9010D
:100EF000DB019A01BD01DF01F801C1CFEF01F9CF9C
:100F00009093220180932101CDCFFE01E20FF31FC8
:100F1000819391932250310939832883D7CF20912F
:100F20001F0130912001232B41F4209106013091C3
:100F300007013093200120931F012091040130917B
:100F400005012115310541F42DB73EB74091080147
:100F500050910901241B350BE0911F01F0912001F4
:100F6000E217F307A0F42E1B3F0B2817390778F080
:100F7000AC014E5F5F4F2417350748F04E0F5F1FDF
:100F80005093200140931F01819391939FCFF0E0F4
:100F9000E0E09CCFCF93DF930097E9F0FC0132971C
:100FA00013821282A0912101B0912201ED0130E063
:100FB00020E01097A1F420813181820F931F2091AE
:100FC0001F01309120012817390709F061C0F09303
:100FD0002001E0931F01DF91CF910895EA01CE1720
:100FE000DF07E8F54A815B819E0141155105B1F7A4
:100FF000E901FB83EA8349915991C40FD51FEC178E
:10100000FD0761F4808191810296840F951FE901AB
:1010100099838883828193819B838A83F0E0E0E0D7
:1010200012968D919C9113970097B9F52D913C9153
:101030001197CD010296820F931F20911F013091CD
:1010400020012817390739F6309751F510922201FF
:1010500010922101B0932001A0931F01BCCFD38334
:10106000C28340815181840F951FC817D90761F44D
:101070004E5F5F4F88819981480F591F518340838C
:101080008A819B81938382832115310509F0B0CF3A
:10109000F0932201E09321019ECFFD01DC01C0CF3E
:1010A00013821282D7CFDC0101C06D9341505040B2
:0810B000E0F70895F894FFCF6A
:1010B8000100000000002301800000000000C503BB
:00000001FF
