:100000000C9461000C947E000C947E000C947E0095
:100010000C947E000C947E000C947E000C947E0068
:100020000C947E000C947E000C947E000C947E0058
:100030000C947E000C947E000C947E000C947E0048
:100040000C94E2030C947E000C947E000C947E00D1
:100050000C947E000C947E000C947E000C947E0028
:100060000C947E000C947E0000000000230026000B
:10007000290000000000240027002A0000000000E2
:10008000250028002B0004040404040404040202D4
:100090000202020203030303030301020408102007
:1000A0004080010204081020010204081020000012
:1000B0000008000201000003040700000000000027
:1000C000000011241FBECFEFD8E0DEBFCDBF11E08E
:1000D000A0E0B1E0E8E4F2E102C005900D92A031A9
:1000E000B107D9F721E0A0E1B1E001C01D92A5322E
:1000F000B207E1F70E942C040C9422090C94000032
:10010000833081F028F4813099F08230A9F008958D
:100110008730A9F08830C9F08430B1F48091800034
:100120008F7D03C0809180008F7780938000089539
:1001300084B58F7784BD089584B58F7DFBCF809182
:10014000B0008F778093B00008958091B0008F7DCC
:10015000F9CFCF93DF93282F30E0F901E255FF4F1D
:100160008491F901E656FF4FD491F901EA57FF4F08
:10017000C491CC2391F081110E948000EC2FF0E01B
:10018000EE0FFF1FE458FF4FA591B4918FB7F8947D
:10019000EC91D095DE23DC938FBFDF91CF91089552
:1001A000CF93DF9390E0FC01E656FF4F24918A57EE
:1001B0009F4FFC0184918823C9F090E0880F991F1C
:1001C000FC01EE58FF4FA591B491FC01E458FF4F9C
:1001D000C591D49161110DC09FB7F8948C91209571
:1001E00082238C938881282328839FBFDF91CF911E
:1001F0000895623051F49FB7F8943C91822F809516
:1002000083238C93E8812E2BEFCF8FB7F894EC915A
:100210002E2B2C938FBFEACF8E3008F08E50877034
:10022000806480937C0080917A00806480937A005F
:1002300080917A0086FDFCCF8091780090917900C2
:1002400008953FB7F8948091150190911601A091FF
:100250001701B091180126B5A89B05C02F3F19F0D2
:100260000196A11DB11D3FBFBA2FA92F982F882736
:10027000BC01CD01620F711D811D911D42E0660F11
:10028000771F881F991F4A95D1F708958F929F92E3
:10029000AF92BF92CF92DF92EF92FF924B015C013F
:1002A0000E9421016B017C010E9421016C197D09D2
:1002B0008E099F09683E734081059105A8F321E0EE
:1002C000821A9108A108B10888EEC80E83E0D81EF2
:1002D000E11CF11C81149104A104B10429F7FF90E1
:1002E000EF90DF90CF90BF90AF909F908F90089548
:1002F0008F929F92AF92BF92CF92DF92EF92FF9236
:10030000CF93DF93FC014A01AA24BB24C32ED42E31
:10031000E52EFF24DC2DC22F8085982D882391F0B7
:10032000C82FD0E0C89DD001C99DB00DD89DB00D9B
:1003300011249B2F8C9D60011124DD2D829F900143
:100340001124C32FA685218532858385A81321C05A
:10035000AB01440F551F640F751F620F731FA385F8
:10036000A60FB72FB11D9C93A485A60FB72FB11D63
:10037000DC938585680F711DFB01C083DF91CF91F0
:10038000FF90EF90DF90CF90BF90AF909F908F90B5
:100390000895660F771F660F771F620F731FA60FF2
:1003A000B72FB11D1C92DBCFCF92DF92EF92FF925D
:1003B0000F931F93CF93DF93CDB7DEB729970FB677
:1003C000F894DEBF0FBECDBF8C010E942101D80181
:1003D0001F96CD90DD90ED90FC9052976C197D09A1
:1003E0008E099F096C3271408105910570F3F89474
:1003F000F801848195819A8389830184F285E02DB7
:100400007F012FEFE21AF20A80818F83D8019C913D
:100410005396ED91FC91549755968C91992309F43C
:1004200048C09081982B98879081809589238987EF
:1004300089858B8388E08C83588569854F813C81D1
:100440002B8189819A81D701508347FD252F3A95C9
:100450002083262F39F0441F00C000006083000075
:1004600000C0F2CF38E04D9160830000019761F742
:10047000D8015496FC93EE9353974F833C832B8380
:100480009A83898378940E942101F8016787708B91
:10049000818B928B29960FB6F894DEBF0FBECDBF2D
:1004A000DF91CF911F910F91FF90EF90DF90CF9050
:1004B00008959081982B98879081809589238987CA
:1004C00089858D8388E08E83588569854F813E813B
:1004D0002D8189819A81D701508347FD252F00C046
:1004E00000C0208300C000C000C000C000C0608306
:1004F0000000262F3A9541F0441F000000C000C0C4
:1005000000C000C000C0E8CF38E04D9100C060835B
:1005100000C0019709F7D8015496FC93EE935397C6
:100520004F833E832D83ACCFFC0121853285232B65
:1005300011F00C94D4010895FF920F931F93CF9361
:10054000DF93EC010B81288130E0F901E255FF4F88
:100550008491F901E656FF4FF490F901EA57FF4FF5
:1005600014911123F9F081110E948000E12FF0E035
:10057000EE0FFF1FE859FF4FA591B491EC91FE22B9
:1005800031E020E009F430E0832F922F21E0822730
:10059000817008130AC01982DF91CF911F910F91CA
:1005A000FF90089590E080E0F1CF89818F5F89838B
:1005B0009A8189178CF38B818D8391E089278C83B5
:1005C0008B83E9CF0F931F93CF93DF93C0911D01CE
:1005D000D0911E01888199810E949C028A819B8111
:1005E0000E949C0210E000E0E0911B01F0911C01D0
:1005F000E00FF11FC081D18188810E940C019250CF
:100600009C838B8389810E940C0192509E838D83F1
:100610008F8198850E949C020E5F1F4F0430110548
:1006200019F7DF91CF911F910F9108950F931F93A9
:10063000CF93DF930091190110911A01D0E0C0E02F
:10064000D80114968D919C91FC0122813381C217AF
:10065000D30738F420E030E440E450E0BE010E94CB
:1006600078012196C930D10559F7D80114968D919A
:100670009C910E94940268EE73E080E090E00E94FA
:100680004601F80184819581DC0112962D913C91FF
:10069000C217D30738F420E030E840E850E0BE014C
:1006A0000E9478012196C231D10559F7F801848161
:1006B00095810E94940268EE73E080E090E00E94D1
:1006C0004601D80114968D919C91FC0122813381C1
:1006D000C217D30738F420E03FEF4FEF50E0BE01E0
:1006E0000E9478012196CB31D10559F7D801149693
:1006F0008D919C910E94940268EE73E080E090E0FE
:100700000E944601D0E0C0E0F801848195812281F9
:100710003381C217D30784F4DC0112962D913C91EA
:10072000C217D30738F42FEF3FEF4FEF50E0BE0171
:100730000E9478012196E8CF0E94940268EE73E04F
:1007400080E090E00E944601D8011496ED91FC9162
:100750004481558170E060E0818592850E941B098B
:10076000F801848195810E9494020E94E202E09146
:100770001D01F0911E01A081B18115968C9181110E
:100780000DC00280F381E02D858181110EC061E0F2
:1007900070E080E090E00E944601E7CF90E080E0CA
:1007A000DF91CF911F910F91089581E090E0F8CFF4
:1007B0000E943B0722E030E040E050E00E949307B7
:1007C000CB0108951F920F920FB60F9211242F9311
:1007D0003F938F939F93AF93BF938091110190911B
:1007E0001201A0911301B09114013091100123E086
:1007F000230F2D3758F50196A11DB11D209310012F
:100800008093110190931201A0931301B0931401EE
:100810008091150190911601A0911701B0911801D6
:100820000196A11DB11D8093150190931601A0930F
:100830001701B0931801BF91AF919F918F913F9194
:100840002F910F900FBE0F901F90189526E8230F41
:100850000296A11DB11DD2CFCF93DF9300D01F927E
:10086000CDB7DEB7789484B5826084BD84B58160ED
:1008700084BD85B5826085BD85B5816085BD80916B
:100880006E00816080936E001092810080918100E3
:1008900082608093810080918100816080938100DB
:1008A000809180008160809380008091B10084609D
:1008B0008093B1008091B00081608093B0008091FE
:1008C0007A00846080937A0080917A0082608093BD
:1008D0007A0080917A00816080937A0080917A001A
:1008E000806880937A001092C10084E090E00E94BA
:1008F000F6074C0190931E0180931D0184E090E067
:100900000E94F6076C0190931C0180931B0186E006
:1009100090E00E94F6078C0188E090E0D8011196E3
:100920009C938E937BE1E72EF12C1396FC92EE9232
:10093000129786E190E00E94F6079B838A83FC0170
:10094000118210861786108A118A128A81E08687A2
:100950008387148692E09587808381E590E0958374
:1009600084830E94F607EA81FB8192878187009742
:1009700009F41FC221E5DC011D922A95E9F7F382F3
:10098000E28288E090E0AA81BB8117969C938E93C7
:10099000169711968C91882339F061E088E00E94C7
:1009A000D00088E00E94A900EEE8F0E0E491F0E0D9
:1009B000EE0FFF1FE458FF4F85919491EA81FB8170
:1009C000948B838BE2EAF0E0E491AA81BB81559697
:1009D000EC935597F801B583A48316968D919C915D
:1009E00097FD09C061E00E94D000AA81BB811696E4
:1009F0008C910E94A90081E0EA81FB818183D8016A
:100A00001496ED91FC914481558170E060E0818500
:100A100092850E941B09F801848195810E949402AD
:100A200010931A01009319018AE090E00E94F607E2
:100A30009B838A83DC0111961C930E9383E090E0E4
:100A400015969C938E93149717969C938E93169756
:100A500019969C938E93189786E090E00E94F60773
:100A6000EA81FB81828393837C013C01F6E06F0E77
:100A7000711C86E090E00E94F607D7018D939D934C
:100A80007D018C015C01B6E0AB0EB11C8CE090E006
:100A90000E94F607FC01D8018D939D938D01108271
:100AA0001182128213821482158216821782108696
:100AB000118612861386AA16BB0641F7E614F704C0
:100AC000C1F6EA81FB81F0932001E0931F0186E0EB
:100AD00090E00E94F6079B838A8382E0AA81BB8113
:100AE0008C9315961C92159711961C92119713963C
:100AF0001C9260E00E94D0004FE0F42EEA81FB815E
:100B0000F282D401ED93FC9386E090E00E94F60718
:100B10009B838A8383E0EA81FB8180831582118233
:100B2000138260E00E94D000AA81BB811296FC92E1
:100B30001297F401B383A28389E090E00E94F60744
:100B40009B838A838EE0AA81BB818C931196FC9251
:100B5000119786E012968C9362E08EE00E94D0009E
:100B600062E0EA81FB8181810E94D00086E090E012
:100B70000E94F6078C01AA81BB8112968C91F80124
:100B8000808315821182138260E00E94D000D80118
:100B90001296FC92EA81FB8110870783D601ED93C0
:100BA000FC9389E090E00E94F6079B838A8380E1B2
:100BB000EA81FB81808381E1818387E0828362E037
:100BC00080E10E94D00062E0AA81BB8111968C91E5
:100BD0000E94D00086E090E00E94F6078C01EA8136
:100BE000FB818281D8018C9315961C9215971196E2
:100BF0001C92119713961C9260E00E94D000F8019D
:100C0000F282AA81BB8118961C930E931797F60166
:100C1000B383A28361E08DE00E94D0006DEA79E5A4
:100C200080E090E00E948A070E943B0782E090E00B
:100C30000E94F6072EE031E0DC012D933C930E94E8
:100C4000D80344244A94542C642C712C0E94E20250
:100C5000E0901F01F0902001D701ED91FC910480FC
:100C6000F581E02D4481558170E060E081859285B9
:100C70000E941B09B12CA12C10E000E01B821A82FB
:100C8000B02FB1703B2EC80180959095E82FE17090
:100C9000E9838A809B80880C991CFA81232CF0FDC3
:100CA0002980D12CC12CD7011296ED91FC9113977C
:100CB000C601880F991FE80FF91F0190F081E02D00
:100CC000E80DF91D0190F081E02DEA0DFB1D408239
:100CD00051826282738214962D913C9115971696DB
:100CE0008D919C91029FA001039F500D129F500D6A
:100CF0001124489FB001499F700D589F700D112419
:100D0000332009F45DC00197EA81FB818E1B9F0BA4
:100D1000829FA001839F500D929F500D1124640F5C
:100D2000751F222009F458C0620F731F61507109AA
:100D30006C197D09D701ED91FC9184819581FC01AD
:100D4000228133816217730730F42FEF3FEF4FEFAB
:100D500050E00E947801D701ED91FC91848195814A
:100D6000FC0121853285232B11F00E94D40164EF10
:100D700071E080E090E00E944601FFEFCF1ADF0AA9
:100D800023E0C216D10409F08ECF4A815B814F5F08
:100D90005F4F5B834A834330510509F07ACF0F5F81
:100DA0001F4F54E0A50EB11C0330110509F066CFAA
:100DB0004DCFEA81FB811582148213821282E1CD2C
:100DC0004A815B81429FC001439F900D529F900DCD
:100DD0001124680F791FA5CF6C0D7D1DABCF8F92AD
:100DE0009F92AF92BF92CF92DF92EF92FF92CF93FA
:100DF000DF93EC01688179818A819B81611571059E
:100E00008105910521F464E279ED8BE597E02DE110
:100E100033EF41E050E00E94930749015A019B01E2
:100E2000AC01A7EAB1E40E94B2076B017C01ACEE11
:100E3000B4EFA50194010E94C007C60ED71EE81E9C
:100E4000F91EF7FE06C081E0C81AD108E10880E863
:100E5000F80AC882D982EA82FB82C701B6019F776D
:100E6000DF91CF91FF90EF90DF90CF90BF90AF9048
:100E70009F908F9008958F929F92AF92BF92CF9242
:100E8000DF92EF92FF9260910001709101018091D9
:100E9000020190910301611571058105910521F40D
:100EA00064E279ED8BE597E02DE133EF41E050E02E
:100EB0000E94930749015A019B01AC01A7EAB1E4E2
:100EC0000E94B2076B017C01ACEEB4EFA501940166
:100ED0000E94C007C60ED71EE81EF91EF7FE06C008
:100EE00081E0C81AD108E10880E8F80AC092000140
:100EF000D0920101E0920201F0920301C701B60114
:100F00009F77FF90EF90DF90CF90BF90AF909F9032
:100F10008F90089560930001709301018093020106
:100F2000909303010895052E97FB1EF400940E94F0
:100F3000AA0757FD07D00E94C50707FC03D04EF44F
:100F40000C94AA0750954095309521953F4F4F4FEF
:100F50005F4F089590958095709561957F4F8F4F65
:100F60009F4F08950E94E707A59F900DB49F900D95
:100F7000A49F800D911D11240895B7FF0C94B20712
:100F80000E94B207821B930B0895A1E21A2EAA1B9E
:100F9000BB1BFD010DC0AA1FBB1FEE1FFF1FA21729
:100FA000B307E407F50720F0A21BB30BE40BF50B26
:100FB000661F771F881F991F1A9469F760957095AF
:100FC000809590959B01AC01BD01CF010895A29F32
:100FD000B001B39FC001A39F700D811D1124911D0D
:100FE000B29F700D811D1124911D08950F931F93C1
:100FF000CF93DF938230910510F482E090E0E0918E
:101000002301F091240130E020E0B0E0A0E030972F
:1010100099F42115310509F44AC0281B390B2430F5
:101020003105D8F58A819B816115710589F1FB0134
:1010300093838283FE0111C040815181028113811B
:1010400048175907E0F04817590799F4109761F0CD
:1010500012960C93129713961C933296CF01DF9140
:10106000CF911F910F9108950093230110932401B4
:10107000F4CF2115310551F04217530738F0A9017B
:10108000DB019A01BD01DF01F801C1CFEF01F9CF0A
:101090009093240180932301CDCFFE01E20FF31F33
:1010A000819391932250310939832883D7CF20919E
:1010B000210130912201232B41F42091060130912E
:1010C00007013093220120932101209104013091E6
:1010D00005012115310541F42DB73EB740910801B6
:1010E00050910901241B350BE0912101F09122015F
:1010F000E217F307A0F42E1B3F0B2817390778F0EF
:10110000AC014E5F5F4F2417350748F04E0F5F1F4D
:101110005093220140932101819391939FCFF0E05E
:10112000E0E09CCFCF93DF930097E9F0FC0132978A
:1011300013821282A0912301B0912401ED0130E0CD
:1011400020E01097A1F420813181820F931F20911C
:101150002101309122012817390709F061C0F0936D
:101160002201E0932101DF91CF910895EA01CE178A
:10117000DF07E8F54A815B819E0141155105B1F712
:10118000E901FB83EA8349915991C40FD51FEC17FC
:10119000FD0761F4808191810296840F951FE9011A
:1011A00099838883828193819B838A83F0E0E0E046
:1011B00012968D919C9113970097B9F52D913C91C2
:1011C0001197CD010296820F931F2091210130913A
:1011D00022012817390739F6309751F5109224016A
:1011E00010922301B0932201A0932101BCCFD3839D
:1011F000C28340815181840F951FC817D90761F4BC
:101200004E5F5F4F88819981480F591F51834083FA
:101210008A819B81938382832115310509F0B0CFA8
:10122000F0932401E09323019ECFFD01DC01C0CFA8
:1012300013821282D7CFDC0101C06D934150504020
:08124000E0F70895F894FFCFD8
:101248000100000000002501800000000000D80314
:00000001FF
