:100000000C9463000C948B000C948B000C948B006C
:100010000C948B000C948B000C948B000C948B0034
:100020000C948B000C948B000C948B000C948B0024
:100030000C948B000C948B000C948B000C948B0014
:100040000C9446010C948B000C948B000C948B0048
:100050000C948B000C948B000C948B000C948B00F4
:100060000C948B000C948B000000000023002600F1
:10007000290000000000240027002A0000000000E2
:10008000250028002B0004040404040404040202D4
:100090000202020203030303030301020408102007
:1000A0004080010204081020010204081020000012
:1000B0000008000201000003040700000000000027
:1000C00000006A02D70211241FBECFEFD8E0DEBFC6
:1000D000CDBF21E0A6E0B1E001C01D92AB31B20777
:1000E000E1F711E0A0E0B1E0ECE4F8E002C0059037
:1000F0000D92A630B107D9F710E0C2E6D0E004C0F7
:100100002197FE010E94F202C136D107C9F70E9471
:1001100090010C9419040C9400003FB7F89480915E
:10012000130190911401A0911501B091160126B50B
:10013000A89B05C02F3F19F00196A11DB11D3FBF1F
:10014000BA2FA92F982F8827820F911DA11DB11DAD
:10015000BC01CD0142E0660F771F881F991F4A95A9
:10016000D1F70895833081F028F4813099F08230FE
:10017000A1F008958730A9F08830B9F08430D1F427
:10018000809180008F7D03C0809180008F77809365
:100190008000089584B58F7702C084B58F7D84BDBB
:1001A00008958091B0008F7703C08091B0008F7D5B
:1001B0008093B00008951F93CF93DF93282F30E0F2
:1001C000F901E255FF4F8491F901E656FF4FD491B2
:1001D000F901EA57FF4FC491CC23C1F0162F8111CA
:1001E0000E94B200EC2FF0E0EE0FFF1FE458FF4F2B
:1001F000A591B4919FB7F894111104C08C91D0953A
:10020000D82302C0EC91DE2BDC939FBFDF91CF910E
:100210001F910895CF93DF9390E0FC01E656FF4FC6
:100220002491FC01EA57FF4F8491882361F190E00B
:10023000880F991FFC01EE58FF4FC591D491FC0126
:10024000E458FF4FA591B491611109C09FB7F8948C
:100250008881209582238883EC912E230BC0623005
:1002600061F49FB7F8948881322F30958323888377
:10027000EC912E2B2C939FBF06C08FB7F894E8818A
:100280002E2B28838FBFDF91CF9108951F920F925D
:100290000FB60F9211242F933F938F939F93AF9399
:1002A000BF9380910F0190911001A0911101B09125
:1002B000120130910E0123E0230F2D3720F4019617
:1002C000A11DB11D05C026E8230F0296A11DB11D79
:1002D00020930E0180930F0190931001A0931101C0
:1002E000B09312018091130190911401A091150116
:1002F000B09116010196A11DB11D80931301909339
:100300001401A0931501B0931601BF91AF919F9175
:100310008F913F912F910F900FBE0F901F901895C6
:10032000789484B5826084BD84B5816084BD85B5D0
:10033000826085BD85B5816085BD80916E008160DC
:1003400080936E0010928100809181008260809382
:100350008100809181008160809381008091800084
:100360008160809380008091B10084608093B100AF
:100370008091B00081608093B00080917A008460A9
:1003800080937A0080917A00826080937A008091D5
:100390007A00816080937A0080917A0080688093EF
:1003A0007A001092C10086E090E00E94F8028093EB
:1003B0000C0190930D017C0114E00FE086E090E0C9
:1003C0000E94F802EC0118831D8219821B8260E0F2
:1003D000812F0E940A010A83D701CD93DD937D010D
:1003E0001F5F173059F761E08DE00E940A01AA24CF
:1003F000A39490E0C92E90E0D92E00E010E0E090A8
:100400000C01F0900D01F701E00FF11FC081D181C7
:100410009B80288130E0F901E255FF4F8491F9017A
:10042000E656FF4FB490F901EA57FF4F84908820B9
:10043000A1F081110E94B200E82DF0E0EE0FFF1F45
:10044000E859FF4FA591B491EC91BE2231E020E034
:1004500009F430E0832F922F02C080E090E0B1E0F9
:100460008B278170981659F089818F5F89839A81D3
:10047000891734F08B818D838A258C838B83198235
:100480000E5F1F4F0630110509F0B9CFD701ED916E
:10049000FC918581882311F061E001C060E08DE06E
:1004A0000E94DB000E948D002B013C010E948D0008
:1004B000DC01CB0184199509A609B709883E934050
:1004C000A105B10598F3C114D10409F496CF0E9497
:1004D000000093CF0F931F93CF93DF9388E090E0BA
:1004E00090930701809306010BE110E0109309013E
:1004F0000093080186E190E00E94F802EC01198265
:1005000018861F86188A198A1A8A81E08E878B8737
:100510001C8692E09D87888381E590E09D838C8393
:100520000E94F8029A878987009741F021E5FC0133
:1005300011922A95E9F71B830A8304C01D821C824D
:100540001B821A8288E090E09F838E8389818823B2
:1005500041F061E088E00E940A0160E088E00E94CA
:10056000DB00EEE8F0E0E491F0E0EE0FFF1FE4586E
:10057000FF4F859194919C8B8B8BE2EAF0E0E491A4
:10058000ED8BD0930B01C0930A018E819F8197FD63
:1005900007C061E00E940A0160E08E810E94DB00DA
:1005A00081E08983DF91CF911F910F910895CF93BF
:1005B000DF93C0910A01D0910B01209781F08985CA
:1005C0009A850E9490038E819F8197FD03C060E011
:1005D0000E940A01CE01DF91CF910C949003DF912C
:1005E000CF910895EE0FFF1F0590F491E02D09942F
:1005F0000F931F93CF93DF938230910510F482E025
:1006000090E0E0911901F0911A0120E030E0A0E0C3
:10061000B0E0309719F14081518102811381481770
:100620005907C8F08417950769F4109731F01296AE
:100630000C93129713961C9327C0009319011093E3
:100640001A0122C02115310519F04217530718F479
:100650009A01BD01EF01DF01F801DBCF2115310562
:10066000F9F0281B390B2430310580F48A819B81F5
:100670006115710521F0FB019383828304C090937F
:100680001A0180931901FE01329644C0FE01E20F67
:10069000F31F8193919322503109398328833AC003
:1006A0002091170130911801232B41F42091020170
:1006B000309103013093180120931701209100011C
:1006C000309101012115310541F42DB73EB740911C
:1006D000040150910501241B350BE0911701F091A5
:1006E0001801E217F307A0F42E1B3F0B2817390758
:1006F00078F0AC014E5F5F4F2417350748F04E0F7E
:100700005F1F50931801409317018193919302C08A
:10071000E0E0F0E0CF01DF91CF911F910F910895BC
:10072000CF93DF93009709F481C0FC0132971382C5
:100730001282A0911901B0911A01109781F42081C1
:100740003181820F931F20911701309118012817D2
:10075000390751F5F0931801E093170167C0ED01D7
:1007600020E030E0CE17DF0740F44A815B819E0134
:1007700041155105F1F0EA01F5CFD383C2834081E1
:100780005181840F951FC817D90759F48881998121
:10079000840F951F0296918380838A819B81938326
:1007A00082832115310529F4F0931A01E093190190
:1007B0003DC0E901FB83EA8349915991C40FD51FDC
:1007C000EC17FD0761F480819181840F951F0296DB
:1007D000E90199838883828193819B838A83E0E006
:1007E000F0E012968D919C911397009719F0FD01FE
:1007F000DC01F7CF8D919C9111979D012E5F3F4FAA
:10080000820F931F20911701309118012817390783
:1008100069F4309729F410921A011092190102C05C
:1008200013821282B0931801A0931701DF91CF9128
:10083000089510E0C2E6D0E004C0FE010E94F2027A
:0C0840002196C336D107C9F7F894FFCF0A
:06084C0000001B0180000A
:00000001FF
