:100000000C9463000C948B000C948B000C948B006C
:100010000C948B000C948B000C948B000C948B0034
:100020000C948B000C948B000C948B000C948B0024
:100030000C948B000C948B000C948B000C948B0014
:100040000C9426050C948B000C948B000C948B0064
:100050000C948B000C948B000C948B000C948B00F4
:100060000C948B000C948B0000000008000201002F
:100070000003040700000000000000000102040863
:100080001020408001020408102001020408102002
:10009000040404040404040402020202020203032E
:1000A00003030303000000002300260029000000D2
:1000B0000000250028002B0000000000240027007D
:1000C0002A009802B00211241FBECFEFD8E0DEBF95
:1000D000CDBF21E0AAE0B1E001C01D92A932B20774
:1000E000E1F711E0A0E0B1E0E6EFF1E102C0059038
:1000F0000D92AA30B107D9F710E0C2E6D0E004C0F3
:100100002197FE010E941007C136D107C9F70E944E
:10011000D1040C94EE080C940000FC0184819581BC
:100120000C943503CF93DF93EC018C819D810E9469
:10013000C704CE01DF91CF910C948D000F931F93D4
:10014000CF93DF93EC01798368835B834A8386E1F5
:1001500090E00E94E0048C01488159816A817B8192
:1001600022E530E00E9439041D830C83C8010E94FF
:10017000B402CE01DF91CF911F910F910C949200A8
:100180000F931F93E42FF22F10E030E020E0A9013D
:1001900098013F2B4E2BFC01848195811F910F917B
:1001A0000C945B04CF92DF92EF92FF920F931F9318
:1001B000CF93DF937C01162FD42EC22ED0E0C0E067
:1001C000F70182819381C817D9074CF40C2D2D2D8E
:1001D000412FBE01C7010E94C0002196F1CFDF91DF
:1001E000CF911F910F91FF90EF90DF90CF900895E6
:1001F0008F929F92AF92BF92CF92DF92EF92FF9237
:100200000F931F93CF93DF93EC017D836C835F8308
:100210004E8339872887CB01880F991F6115704459
:1002200010F08FEF9FEF0E94E2049B838A8310E01F
:1002300000E08C819D81081719070CF062C08E8147
:100240009F818115E0E49E0708F04EC0880F991F3A
:100250006801CC0CDD1CEA80FB80EC0CFD1C0E94CC
:10026000E204F70191838083F12CE12C8E819F8140
:10027000E816F9060CF042C0888599858115F0E2F0
:100280009F07A8F5880F991F880F991F4701880CB1
:10029000991CEA81FB81EC0DFD1DA080B180A80CAA
:1002A000B91C0E94E204F501918380832885398579
:1002B00090E080E082179307ECF4EA81FB81EC0D7B
:1002C000FD1DA081B181A80DB91DAC01440F551FC2
:1002D000440F551FED91FC91E40FF51F1082118220
:1002E000128213820196E6CF8FEF9FEFB1CF8FEF8F
:1002F0009FEFCCCFFFEFEF1AFF0AB8CF0F5F1F4F72
:1003000098CFDF91CF911F910F91FF90EF90DF90E9
:10031000CF90BF90AF909F908F900895CF92DF9233
:10032000EF92FF920F931F93CF93DF93EC0110E0B6
:1003300000E08C819D81081719073CF57801EE0CCF
:10034000FF1CD12CC12CEA81FB81EE0DFF1D8081A9
:1003500091812C813D81C216D30684F49601220F2F
:10036000331F820F931FFC0180819181009711F050
:100370000E94E404FFEFCF1ADF0AE5CF009711F0E7
:100380000E94E4040F5F1F4FD4CF8A819B810097A6
:1003900051F0DF91CF911F910F91FF90EF90DF907F
:1003A000CF900C94E404DF91CF911F910F91FF90B7
:1003B000EF90DF90CF90089522E030E040E050E0F1
:1003C00060E070E0CB010E940805611571058105B0
:1003D000910541F0613071058105910519F090E0BA
:1003E00080E0089581E090E00C94E004EF92FF92A9
:1003F0000F931F93CF93DF9310E000E0FF24F3945B
:10040000E0911A01F0911B01E00FF11FC081D18131
:10041000EB8088810E948B0621E0892B09F020E087
:10042000E2120DC019820E5F1F4F0630110541F711
:10043000DF91CF911F910F91FF90EF9008958981E7
:100440008F5F89839A81891774F38B818D838F25C0
:100450008C838B83E7CFEF92FF920F931F93CF9301
:10046000DF9386E090E00E94E20490931B0180936A
:100470001A0110E000E084E0F82E9FE0E92E86E00B
:1004800090E00E94E004EC01F8821D8219821B8238
:1004900062E08F2D0E942106EA82E0911A01F0911C
:1004A0001B01E00FF11FD183C083F3940E5F1F4F38
:1004B0000630110521F761E08DE00E9421066DEA0A
:1004C00079E580E090E0DF91CF911F910F91FF904F
:1004D000EF900C94E6040E94DC010E94F60160E0BB
:1004E0008DE00E945D066FEF70E080E090E00E947A
:1004F000EE04D62F6FEF70E080E090E00E94EE04F3
:10050000C62F6FEF70E080E090E00E94EE042D2F88
:100510004C2F84E191E00E94D20084E191E00E949E
:100520008D0064E670E080E090E00E949505D5CFF4
:100530004BE150E068E070E084E191E00E949E00B1
:1005400084E191E090930B0180930A0123E030E075
:1005500043E050E063E070E08AE091E00C94F80042
:100560008AE091E00C948E01CF93DF93EC018E81B1
:100570009F8197FD07C061E00E94210660E08E81A7
:100580000E945D0681E08983DF91CF910895EF920B
:10059000FF920F931F93CF93DF93EC017B0189852B
:1005A0009A850E94B2079E858B85981701F184E099
:1005B00090E08E9D80018F9D100D9E9D100D112449
:1005C0001D830C83C8010E9416079A8789870097AC
:1005D00089F0A80170E060E00E94DF08FB82EA82F7
:1005E000DF91CF911F910F91FF90EF90089583E0DD
:1005F00090E0DFCF1D821C821B821A82F1CFFC01AA
:10060000B685A3859B0186E0369527958A95E1F707
:1006100023702687CB0134E0969587953A95E1F7CC
:1006200083708387AB0156954795569547954370E0
:100630004487962F9370958791E06F3F710511F075
:1006400008F090E0908341855285452B69F031E0B8
:10065000BA1330E091E0281390E0391729F0628155
:100660007381CF010C94C7020895CF92DF92EF926D
:10067000FF920F931F93CF93DF93CDB7DEB72997E8
:100680000FB6F894DEBF0FBECDBF8C01DC0119960A
:100690008D919C91892B09F465C00E947005F80129
:1006A000C784D088E188F2886C197D098E099F097A
:1006B0006C3271408105910580F3F894D80114964D
:1006C0008D919C9115979A8389831996ED91FC9150
:1006D0007F01BFEFEB1AFB0A80818987F8019081C7
:1006E0000388F489E02DD80155968C91992309F45B
:1006F00048C09081982B98879081809589238F831B
:100700008F818E8388E08D8358856F8149853D81F7
:100710002E8189819A81D701508347FD252F3A95F3
:100720002083262F39F0441F00C0000060830000A2
:1007300000C0F2CF38E04D9160830000019761F76F
:10074000D8015496FC93EE93539749873D832E83AB
:100750009A83898378940E947005F8016787708B6B
:10076000818B928B29960FB6F894DEBF0FBECDBF5A
:10077000DF91CF911F910F91FF90EF90DF90CF907D
:1007800008959081982B98879081809589238F83F5
:100790008F818C8388E08B8358856F8149853B816D
:1007A0002C8189819A81D701508347FD252F00C074
:1007B00000C0208300C000C000C000C000C0608333
:1007C0000000262F3A9541F0441F000000C000C0F1
:1007D00000C000C000C0E8CF38E04D9100C0608389
:1007E00000C0019709F7D8015496FC93EE935397F4
:1007F00049873B832C83ACCF0F931F93CF93DF9319
:100800008C01EB01DC0111968C911197882341F04A
:1008100016968D919C9197FD03C060E00E94210681
:10082000F801D783C6838181882341F061E08C2F52
:100830000E94210660E08C2F0E945D06FE01E057B9
:10084000FF4FE491F0E0EE0FFF1FE255FF4F85915F
:100850009491D80154969C938E935397FE01E4583B
:10086000FF4FE4915596EC93DF91CF911F910F913B
:100870000895EF92FF920F931F93CF93DF93EC01B4
:100880007B018A01198218861A8619861F86188AA2
:10089000198A1A8AB9010E94FF02B701CE010E948B
:1008A000C702B801CE01DF91CF911F910F91FF9048
:1008B000EF900C94FC038F929F92AF92BF92CF92D5
:1008C000DF92EF92FF921F93CF93DF93FC0182811F
:1008D000938168177907A8F54A01AA24BB24C82D7B
:1008E000C32ED42EE52EFF241C2DD22F80858823E5
:1008F00061F0889E40011124C92D8C9D6001112456
:100900001D2D829FD0011124DB2FA685E184F28466
:100910009385A91322C0CB01880F991F680F791FF7
:100920006E0D7F1DA385A60FB72FB11DCC93A48597
:10093000A60FB72FB11D1C938585680F711DFB0194
:10094000D083DF91CF911F91FF90EF90DF90CF90F8
:10095000BF90AF909F908F900895660F771F660F9E
:10096000771F6E0D7F1D252F33274427552788239A
:1009700049F090E0829F7001839FF00C929FF00CF1
:1009800011242F2DA60FB72FB11D2C93CBCFFC0117
:100990004481558170E060E0818592850C94DF0888
:1009A00008950E94BD050E94D0040E942B02C0E061
:1009B000D0E00E946B022097E1F30E940000F9CF83
:1009C0000C9416070C9416070C94B2076115710568
:1009D0008105910511F00C94D6080895CF92DF920D
:1009E000EF92FF926B017C01C114D104E104F10488
:1009F00041F00E948708A70196010E94D7066B016B
:100A00007C01C701B601FF90EF90DF90CF90089571
:100A1000CF92DF92EF92FF926B017C01C216D30658
:100A2000E406F50664F4CA01B9016C197D098E0962
:100A30009F090E94EE04C60ED71EE81EF91EC701CC
:100A4000B601FF90EF90DF90CF9008951F920F9224
:100A50000FB60F9211242F933F938F939F93AF93D1
:100A6000BF9380911D0190911E01A0911F01B09133
:100A7000200130911C0123E0230F2D3758F50196FA
:100A8000A11DB11D20931C0180931D0190931E0197
:100A9000A0931F01B0932001809121019091220128
:100AA000A0912301B09124010196A11DB11D809355
:100AB000210190932201A0932301B0932401BF91BF
:100AC000AF919F918F913F912F910F900FBE0F90FB
:100AD0001F90189526E8230F0296A11DB11DD2CFB5
:100AE0003FB7F8948091210190912201A0912301B8
:100AF000B091240126B5A89B05C02F3F19F001969F
:100B0000A11DB11D3FBFBA2FA92F982F8827BC0167
:100B1000CD01620F711D811D911D42E0660F771F8F
:100B2000881F991F4A95D1F70895CF92DF92EF92CF
:100B3000FF92CF93DF936B017C010E947005EB0164
:100B4000C114D104E104F10439F4DF91CF91FF9095
:100B5000EF90DF90CF9008950E94B4060E94700538
:100B60006C1B7D0B683E734058F381E0C81AD108B6
:100B7000E108F108C851DC4FE3CF789484B5826076
:100B800084BD84B5816084BD85B5826085BD85B531
:100B9000816085BDEEE6F0E0808181608083E1E8E0
:100BA000F0E0108280818260808380818160808318
:100BB000E0E8F0E0808181608083E1EBF0E080811B
:100BC00084608083E0EBF0E0808181608083EAE7ED
:100BD000F0E0808184608083808182608083808176
:100BE000816080838081806880831092C100089535
:100BF000833081F028F4813099F08230A9F0089593
:100C00008730A9F08830C9F08430B1F48091800039
:100C10008F7D03C0809180008F778093800008953E
:100C200084B58F7784BD089584B58F7DFBCF809187
:100C3000B0008F778093B00008958091B0008F7DD1
:100C4000F9CFCF93DF9390E0FC01E458FF4F24915C
:100C500080579F4FFC0184918823C9F090E0880F52
:100C6000991FFC01E854FF4FA591B491FC01E25596
:100C7000FF4FC591D49161110DC09FB7F8948C912D
:100C8000209582238C938881282328839FBFDF911E
:100C9000CF910895623051F49FB7F8943C91822F20
:100CA000809583238C93E8812E2BEFCF8FB7F89418
:100CB000EC912E2B2C938FBFEACF1F93CF93DF9312
:100CC000282F30E0F901E859FF4F8491F901E458E9
:100CD000FF4FD491F901E057FF4FC491CC23A9F005
:100CE000162F81110E94F805EC2FF0E0EE0FFF1F88
:100CF000E255FF4FA591B4918FB7F894EC91111183
:100D000008C0D095DE23DC938FBFDF91CF911F9178
:100D10000895DE2BF8CFCF93DF93282F30E0F90131
:100D2000E859FF4F8491F901E458FF4FD491F9013C
:100D3000E057FF4FC491CC23A1F081110E94F80528
:100D4000EC2FF0E0EE0FFF1FEC55FF4FA591B49193
:100D5000EC91ED2381E090E009F480E0DF91CF9108
:100D6000089580E090E0FACF0895A1E21A2EAA1B20
:100D7000BB1BFD010DC0AA1FBB1FEE1FFF1FA2174B
:100D8000B307E407F50720F0A21BB30BE40BF50B48
:100D9000661F771F881F991F1A9469F760957095D1
:100DA000809590959B01AC01BD01CF010895052E62
:100DB00097FB1EF400940E94EE0657FD07D00E9498
:100DC000B50607FC03D04EF40C94EE065095409502
:100DD000309521953F4F4F4F5F4F089590958095E7
:100DE000709561957F4F8F4F9F4F0895A29FB001DF
:100DF000B39FC001A39F700D811D1124911DB29F4F
:100E0000700D811D1124911D08950E94F606A59F65
:100E1000900DB49F900DA49F800D911D11240895F5
:100E2000EE0FFF1F0590F491E02D09940F931F938F
:100E3000CF93DF938230910510F482E090E0E0914F
:100E40002701F091280130E020E0B0E0A0E03097E9
:100E500099F42115310509F44AC0281B390B2430B7
:100E60003105D8F58A819B816115710589F1FB01F6
:100E700093838283FE0111C04081518102811381DD
:100E800048175907E0F04817590799F4109761F08F
:100E900012960C93129713961C933296CF01DF9102
:100EA000CF911F910F91089500932701109328016E
:100EB000F4CF2115310551F04217530738F0A9013D
:100EC000DB019A01BD01DF01F801C1CFEF01F9CFCC
:100ED0009093280180932701CDCFFE01E20FF31FED
:100EE000819391932250310939832883D7CF209160
:100EF000250130912601232B41F4209102013091EC
:100F000003013093260120932501209100013091A7
:100F100001012115310541F42DB73EB7409104017F
:100F200050910501241B350BE0912501F09126011C
:100F3000E217F307A0F42E1B3F0B2817390778F0B0
:100F4000AC014E5F5F4F2417350748F04E0F5F1F0F
:100F50005093260140932501819391939FCFF0E018
:100F6000E0E09CCFCF93DF930097E9F0FC0132974C
:100F700013821282A0912701B0912801ED0130E087
:100F800020E01097A1F420813181820F931F2091DE
:100F90002501309126012817390709F061C0F09327
:100FA0002601E0932501DF91CF910895EA01CE1744
:100FB000DF07E8F54A815B819E0141155105B1F7D4
:100FC000E901FB83EA8349915991C40FD51FEC17BE
:100FD000FD0761F4808191810296840F951FE901DC
:100FE00099838883828193819B838A83F0E0E0E008
:100FF00012968D919C9113970097B9F52D913C9184
:101000001197CD010296820F931F209125013091F7
:1010100026012817390739F6309751F51092280123
:1010200010922701B0932601A0932501BCCFD38352
:10103000C28340815181840F951FC817D90761F47D
:101040004E5F5F4F88819981480F591F51834083BC
:101050008A819B81938382832115310509F0B0CF6A
:10106000F0932801E09327019ECFFD01DC01C0CF62
:1010700013821282D7CF8F929F92AF92BF92CF925C
:10108000DF92EF92FF92CF93DF93EC016881798139
:101090008A819B81611571058105910521F464E2C6
:1010A00079ED8BE597E02DE133EF41E050E00E94D0
:1010B000D70649015A019B01AC01A7EAB1E40E949D
:1010C00005076B017C01ACEEB4EFA50194010E9411
:1010D000E908C60ED71EE81EF91EF7FE06C081E01D
:1010E000C81AD108E10880E8F80AC882D982EA82E1
:1010F000FB82C701B6019F77DF91CF91FF90EF9000
:10110000DF90CF90BF90AF909F908F9008958F9277
:101110009F92AF92BF92CF92DF92EF92FF92609137
:1011200006017091070180910801909109016115F4
:1011300071058105910521F464E279ED8BE597E075
:101140002DE133EF41E050E00E94D70649015A01FA
:101150009B01AC01A7EAB1E40E9405076B017C0189
:10116000ACEEB4EFA50194010E94E908C60ED71EAB
:10117000E81EF91EF7FE06C081E0C81AD108E10892
:1011800080E8F80AC0920601D0920701E0920801B7
:10119000F0920901C701B6019F77FF90EF90DF90B1
:1011A000CF90BF90AF909F908F900895609306016D
:1011B0007093070180930801909309010895DC0161
:1011C00001C06D9341505040E0F70895B7FF0C9473
:1011D00005070E940507821B930B089510E0C2E6E5
:1011E000D0E004C0FE010E9410072196C336D1074B
:0611F000C9F7F894FFCFDF
:0A11F6000000290180000100000044
:00000001FF
