:100000000C9492000C94BA000C94BA000C94BA00B0
:100010000C94BA000C94BA000C94BA000C94BA0078
:100020000C94BA000C942F0A0C94BA000C94BA00E9
:100030000C94BA000C94BA000C94BA000C94BA0058
:100040000C94E5090C94BA000C94BA000C94BA0014
:100050000C94BA000C94BA000C94BA000C94BA0038
:100060000C94A10A0C94BA000000000023002600A2
:1000700029002020202020505553482120202020D6
:10008000202000202020202020203120202020207F
:10009000202020002020202020202032202020206E
:1000A000202020200020202020202020332020205D
:1000B00020202020200000000000240027002A002B
:1000C0000000000800020100000304070000000017
:1000D0000000000001020408102040800102040812
:1000E0001020010204081020000000002500280054
:1000F0002B000404040404040404020202020202A9
:100100000303030303035365636F6E642053747228
:10011000696E6700466972737420537472696E6702
:100120000000C00B11241FBECFEFD8E0DEBFCDBF53
:1001300011E0A0E0B1E0E2E8F4E202C005900D9227
:10014000A433B107D9F722E0A4E3B1E001C01D92C6
:10015000A432B207E1F710E0C2E9D0E004C0219771
:10016000FE010E944710C139D107C9F70E94E00B78
:100170000C943F120C94000008950895AF92BF9222
:10018000CF92DF92EF92FF920F931F93CF93DF9363
:100190006C017B018B01040F151FEB015E01AE1892
:1001A000BF08C017D10759F06991D601ED91FC91B4
:1001B0000190F081E02DC6010995892B79F7C501E1
:1001C000DF91CF911F910F91FF90EF90DF90CF9033
:1001D000BF90AF900895833081F028F4813099F07A
:1001E0008230A9F008958730A9F08830C9F08430B2
:1001F000B1F4809180008F7D03C0809180008F7763
:1002000080938000089584B58F7784BD089584B568
:100210008F7DFBCF8091B0008F778093B0000895E1
:100220008091B0008F7DF9CF1F93CF93DF93282F5C
:1002300030E0F901E054FF4F8491F901EC52FF4F97
:10024000D491F901EE50FF4FC491CC23A9F0162FA1
:1002500081110E94EB00EC2FF0E0EE0FFF1FE85140
:10026000FF4FA591B4918FB7F894EC91111108C08C
:10027000D095DE23DC938FBFDF91CF911F9108953E
:10028000DE2BF8CFCF93DF9390E0FC01EC52FF4FD1
:1002900024918E509F4FFC0184918823C9F090E0F7
:1002A000880F991FFC01EA54FF4FA591B491FC01FE
:1002B000E851FF4FC591D49161110DC09FB7F894DB
:1002C0008C91209582238C938881282328839FBF3B
:1002D000DF91CF910895623051F49FB7F8943C912B
:1002E000822F809583238C93E8812E2BEFCF8FB7BD
:1002F000F894EC912E2B2C938FBFEACF8E3008F020
:100300008E508770806480937C0080917A00806436
:1003100080937A0080917A0086FDFCCF80917800EE
:100320009091790008953FB7F8948091E4019091FD
:10033000E501A091E601B091E70126B5A89B05C0B3
:100340002F3F19F00196A11DB11D3FBFBA2FA92F54
:10035000982F8827BC01CD01620F711D811D911D51
:1003600042E0660F771F881F991F4A95D1F70895BD
:100370008F929F92AF92BF92CF92DF92EF92FF92B5
:100380004B015C010E9493016B017C010E9493016F
:100390006C197D098E099F09683E7340810591059E
:1003A000A8F321E0821A9108A108B10888EEC80ECE
:1003B00083E0D81EE11CF11C81149104A104B10456
:1003C00029F7FF90EF90DF90CF90BF90AF909F9074
:1003D0008F9008958F929F92AF92BF92CF92DF92AB
:1003E000EF92FF92CF93DF93FC014A01AA24BB2432
:1003F000C32ED42EE52EFF24DC2DC22F8085982D10
:10040000882391F0C82FD0E0C89DD001C99DB00DC0
:10041000D89DB00D11249B2F8C9D60011124DD2DE2
:10042000829F90011124C32FA68521853285838563
:10043000A81321C0AB01440F551F640F751F620F35
:10044000731FA385A60FB72FB11D9C93A485A60F7C
:10045000B72FB11DDC938585680F711DFB01C0832B
:10046000DF91CF91FF90EF90DF90CF90BF90AF9052
:100470009F908F900895660F771F660F771F620F0A
:10048000731FA60FB72FB11D1C92DBCF2F923F9287
:100490004F925F926F927F928F929F92AF92BF9294
:1004A000CF92DF92EF92FF920F931F93CF93DF9340
:1004B00000D000D000D01F92CDB7DEB76C014B0149
:1004C000F12CE12C9701220F331F3A8329831E82DE
:1004D0001D822D803E80220C331CB12CA12C10E0FB
:1004E00000E06D817E81617077277C836B83D4010E
:1004F000ED91FC91E20DF31D0190F081E02DEA0DEC
:10050000FB1D4080518062807380D6011296ED9170
:10051000FC9129813A81E20FF31F0190F081E02DD7
:10052000E20DF31D0190F081E02DEA0DFB1D4082EC
:10053000518262827382D801A170BB276B817C815A
:10054000672B09F47FC0F801E095F0957E2F71705C
:100550007F83F6018481958166817781089F900170
:10056000099F300D189F300D1124269FA001279F51
:10057000500D369F500D1124AB2B09F467C09B0121
:10058000215031096D817E81261B370B289FB001D8
:10059000299F700D389F700D1124640F751FBF8146
:1005A000BB2309F45DC0680F791F615071096E1992
:1005B0007F09D601ED91FC9184819581FC01228116
:1005C00033816217730738F4A3019201222755275C
:1005D00024290E94EA010F5F1F4FF4E0AF0EB11C07
:1005E0000330110509F083CF2D813E812F5F3F4FEE
:1005F0003E832D832330310509F06BCF3FEFE31AA3
:10060000F30A62E0860E911C73E0E716F10409F02C
:1006100059CF27960FB6F894DEBF0FBECDBFDF913E
:10062000CF911F910F91FF90EF90DF90CF90BF90EF
:10063000AF909F908F907F906F905F904F903F9082
:100640002F900895802F81708F8383CFAD81BE81DD
:10065000A89FB001A99F700DB89F700D11249DCF68
:100660006E0D7F1DA6CF089585ED8093BC0080910F
:10067000BC0084FDFCCF1092EE010895209176011C
:10068000260F3327331F21323105ECF42091EE0180
:10069000FC0190E080E0243069F082E00895A091B0
:1006A00076012191AC014A5A5E4FA40FB52FB11DBE
:1006B0002C930196861798F380917601680F6093CA
:1006C000760180E0089581E008950895E091F201B7
:1006D0008091F101E81730F4F0E0EA5CFE4F808190
:1006E00090E008958FEF9FEF08959091F20180912F
:1006F000F1012FEF3FEF981748F4E92FF0E0EA5CA3
:10070000FE4F208130E09F5F9093F201C901089570
:100710008091F1019091F201891B990B0895CF927C
:10072000DF92EF92FF920F931F93CF93DF937C01A1
:10073000CB018A012091BD01222389F0EB016B01DD
:10074000C40ED51ECC15DD0569F06991D701ED9178
:10075000FC910190F081E02DC7010995F3CF642F42
:100760000E943E03C801DF91CF911F910F91FF902E
:10077000EF90DF90CF900895CF93DF931F92CDB786
:10078000DEB769832091BD012223F9F02091EF01AA
:10079000203258F021E030E0FC013383228390E0E6
:1007A00080E00F90DF91CF9108958091F001E82FC4
:1007B000F0E0E254FE4F998190838F5F8093F001C7
:1007C0008093EF0181E090E0ECCF61E0CE010196F3
:1007D0000E943E03F7CFCF93FC01C48121E0209318
:1007E000BD01C093DE011092F0011092EF018385EC
:1007F000682B88E092E00E94BC039091EF01913257
:1008000008F03FC08091EE018111FCCF82E080931F
:10081000EE0181E08093ED018FEF8093BC01109297
:10082000BB019093BA01AEEBB1E0EAE9F1E080E000
:1008300098132FC01092990180919901CC0FC82B69
:10084000C09399018091EC01813039F51092EC014F
:10085000809199018093BB008091BC0083FDF8CF0B
:1008600085EC8093BC008091EE018230E1F38091B1
:10087000BC018F3F31F08091BC01803211F080913A
:10088000BC011092F0011092EF011092BD01CF91C6
:1008900008952D9121938F5FCBCF85EEE2CF90E02D
:1008A00080E00895CF93DF93DC0114968D919C91A5
:1008B0001597880F991FE0913401F0913501E80FE9
:1008C000F91F16968D919C911797880F991FC081DB
:1008D000D181C80FD91F18968D919C911997880FB7
:1008E000991F880F991FE881F981E80FF91F40814E
:1008F00051816281738180E0452B462B472B51F457
:100900008D919D910D90BC91A02D80839183A283A8
:10091000B38381E0DF91CF910895FC01A285B38577
:1009200013968D919C9114978F3D91402CF084816A
:10093000958101969583848313968D919C9114974C
:1009400082329E4F2CF48481958101979583848314
:1009500015968D919C9116978F3D91402CF0868134
:10096000978101969783868315968D919C9182320B
:100970009E4F2CF486819781019797838683A0915F
:100980000602B09107022481358114968D919C91C5
:1009900015972817390714F01582148284819581E0
:1009A00097FF07C014968D919C9115970197958399
:1009B00084832681378116968D919C9117972817ED
:1009C000390714F0178216828681978197FF06C037
:1009D00016968D919C910197978386830895FF9237
:1009E0000F931F93CF93DF93EC010B81288130E0AD
:1009F000F901E054FF4F8491F901EC52FF4FF4905C
:100A0000F901EE50FF4F14911123F9F081110E946A
:100A1000EB00E12FF0E0EE0FFF1FE859FF4FA5912B
:100A2000B491EC91FE2231E020E009F430E0832F14
:100A3000922F21E08227817008130AC01982DF916A
:100A4000CF911F910F91FF90089590E080E0F1CF3A
:100A500089818F5F89839A8189178CF38B818D833C
:100A600091E089278C838B83E9CF0F931F93CF93DA
:100A7000DF93C0910002D0910102888199810E9488
:100A8000EF048A819B810E94EF0410E000E0E09176
:100A90000202F0910302E00FF11FC081D181888131
:100AA0000E947E0192509C838B8389810E947E01EB
:100AB00092509E838D838F8198850E94EF040E5FF4
:100AC0001F4F0430110519F7DF91CF911F910F913E
:100AD0000895CF92DF92EF92FF920F931F93CF93DF
:100AE000DF93CDB7DEB729970FB6F894DEBF0FBE00
:100AF000CDBFDC0114960D911C91F8018185928582
:100B0000892B09F465C00E949301D8011F96CD90EE
:100B1000DD90ED90FC9052976C197D098E099F092C
:100B20006C3271408105910570F3F894F80184816D
:100B300095819A8389830184F285E02D7F012FEFCF
:100B4000E21AF20A80818987D8019C915396ED912F
:100B5000FC91549755968C91992309F448C0908143
:100B6000982B98879081809589238F838F818C83A0
:100B700088E08B8358856F8149853B812C818981F1
:100B80009A81D701508347FD252F3A952083262F40
:100B900039F0441F00C000006083000000C0F2CFA5
:100BA00038E04D9160830000019761F7D8015496B9
:100BB000FC93EE93539749873B832C839A838983D5
:100BC00078940E949301F8016787708B818B928BD8
:100BD00029960FB6F894DEBF0FBECDBFDF91CF913F
:100BE0001F910F91FF90EF90DF90CF90089590812B
:100BF000982B98879081809589238F838F818E830E
:100C000088E08D8358856F8149853D812E8189815A
:100C10009A81D701508347FD252F00C000C0208353
:100C200000C000C000C000C000C060830000262FCC
:100C30003A9541F0441F000000C000C000C000C051
:100C400000C0E8CF38E04D9100C0608300C001973C
:100C500009F7D8015496FC93EE93539749873D8347
:100C60002E83ACCFAF92BF92CF92DF92EF92FF92E2
:100C70000F931F93CF93DF9386E090E00E944D1077
:100C80008C017C016C0186E0C80ED11C86E090E0EE
:100C90000E944D10F701819391937F01EC015C015B
:100CA000F6E0AF0EB11C8CE090E00E944D10FC010C
:100CB0008993999310821182128213821482158271
:100CC000168217821086118612861386CA15DB05D6
:100CD00051F7CE14DF04D1F6C801DF91CF911F91F7
:100CE0000F91FF90EF90DF90CF90BF90AF9008955D
:100CF000CF92DF92EF92FF920F931F93CF93DF93E8
:100D0000EC018C016C0186E0C80ED11CF12CE12CA9
:100D1000D801ED91FC91EE0DFF1D8081918100972E
:100D200011F00E94E910B2E0EB0EF11CE6E0EE16C5
:100D3000F10471F7D8018D919D918D01009711F00B
:100D40000E94E910C016D10609F7209759F0CE018C
:100D5000DF91CF911F910F91FF90EF90DF90CF9097
:100D60000C94E910DF91CF911F910F91FF90EF90BC
:100D7000DF90CF900895CF93DF9300D000D0CDB710
:100D8000DEB79C838B8367FDDAC0DC0114966C931D
:100D9000AB81BC8114968C91149782301CF081E059
:100DA00014968C93EB81FC8162817381DB018D91C0
:100DB0009C91FC012083318342835383A0910202E2
:100DC000B09103022D913C91119733872287FB014B
:100DD00022813381F901E082F1820283138312962A
:100DE0008D919C91938782870E9432068C0190930B
:100DF0003501809334010E9432065C018090060226
:100E000090900702B801C4010E944602D4018D915E
:100E10009C910E9469051801B6E02B0E311CAB8134
:100E2000BC811296ED91FC9113971496FC90FF20D3
:100E300009F489C0B1E0FB1609F4ABC0C801950103
:100E4000DC01ED91FD91CD01FA83E983D9014D914A
:100E50005D919D017F01B6E0EB0EF11CE981FA8105
:100E6000A191B191FA83E983FA0161917191AF0186
:100E70006D01FCE0CF0ED11C4D905D906D907D908A
:100E8000FB014192519261927192BF01CA16DB0639
:100E900099F769817A81E616F70601F7281639066F
:100EA00079F6AB81BC811496EC9114978E2F880F44
:100EB000990B1296ED91FC91E80FF91FA081B18179
:100EC0001496ED91FC911597EE0FFF1FEA0DFB1D97
:100ED00016962D913C911797220F331F8081918197
:100EE000820F931F1896ED91FC9119979F01220F85
:100EF000331F220F331FFC0180819181F901E80F1C
:100F0000F91F8D919D910D90BC91A02D8158904815
:100F1000A048BF4FBB2780839183A283B383B501D1
:100F2000C4010E944602D4018D919C910E946905E2
:100F300064E670E080E090E00E94B80170CFEB8141
:100F4000FC81148225CF808191810E948D04AB8128
:100F5000BC811296ED91FC9180819181DC011A9601
:100F6000ED91FC910780F085E02D2481222309F486
:100F700065CF14820E945204882309F45FCFEB816D
:100F8000FC818481F1E0F81BAB81BC811496FC9359
:100F900055CF828193810E948D04AB81BC811296D2
:100FA000ED91FC9182819381DC011A96ED91FC9187
:100FB0000780F085E02D2481222309F43FCF14829D
:100FC0000E945204882309F439CFEB81FC8184818B
:100FD000F81AF48233CF0E94450F90E080E0089524
:100FE0000F931F93CF938C01C62F0E94EB036C2F9E
:100FF0006460C8010E94EB036C2F6B7FC8010E94E4
:10100000EB0383EC90E00197F1F7CF911F910F91E3
:1010100008950F931F93CF93DF938C01D62FC42F86
:10102000607F642B0E94F00780E1D89FB0011124FB
:101030006C2BC801DF91CF911F910F910C94F00799
:10104000CF93DF93EB01682F606840E084E192E08A
:101050000E9409084C815D816881798184E192E078
:10106000DF91CF910C94BE0040E061E084E192E01A
:101070000E9409088BE39FE10197F1F7089541E091
:101080000E94090881E090E00895EF92FF920F938B
:101090001F93CF93DF93EC017B01198218821B828F
:1010A0001A821D821C82CB010E94A40F8C01BC01FC
:1010B0006F5F7F4F90E080E00E9472110097B9F05F
:1010C000998388831B830A832C813D81232B11F410
:1010D000FC0110821D830C83B70188819981DF9107
:1010E000CF911F910F91FF90EF900C949D0F8881ED
:1010F0009981009711F00E94E910198218821D82CF
:101100001C821B821A82DF91CF911F910F91FF9059
:10111000EF900895BF92CF92DF92EF92FF920F93DC
:101120001F93CF93DF9300D000D000D0CDB7DEB7B0
:101130000E94340865EA70E0CE0101960E944508DD
:10114000BE016F5F7F4F80E00E94200889819A81F5
:101150000E94E910E0900402F090050210E000E027
:10116000D70114968D919C91FC0122813381021745
:10117000130738F420E030E840E850E0B8010E945E
:10118000EA010F5F1F4F0930110551F7C7010E9497
:10119000690568EE73E080E090E00E94B8010E946B
:1011A000340864E970E0CE0101960E944508BE0152
:1011B0006F5F7F4F80E00E94200889819A810E94A2
:1011C000E910E0900402F0900502D70114968D9189
:1011D0009C91FC01228133810217130738F420E02F
:1011E00030EC40EC50E0B8010E94EA010F5F1F4F65
:1011F0000231110551F7C7010E94690568EE73E0DD
:1012000080E090E00E94B8010E94340863E870E03A
:10121000CE0101960E944508BE016F5F7F4F80E0BE
:101220000E94200889819A810E94E910E0900402BE
:10123000F0900502D70114968D919C91FC012281BA
:1012400033810217130738F420E03FEF4FEF50E0EF
:10125000B8010E94EA010F5F1F4F0B31110551F7D2
:10126000C7010E94690568EE73E080E090E00E948B
:10127000B8010E94340862E770E0CE0101960E9436
:101280004508BE016F5F7F4F80E00E942008898182
:101290009A810E94E910C0900402D090050210E0EB
:1012A00000E0D60112968D919C91139708171907AB
:1012B0009CF414968D919C91FC012281338102173C
:1012C000130738F42FEF3FEF4FEF50E0B8010E94C3
:1012D000EA010F5F1F4FE5CFC6010E946905E0904C
:1012E0000202F0900302D701ED91FC911197078063
:1012F000F085E02D1582118281E08383148212969D
:10130000ED91FC910780F085E02D15821182838399
:101310001482BB24B394D701ED91FC9111970780FF
:10132000F085E02D05811296ED91FC910780F08506
:10133000E02D8581811146C00B2510E011950195A6
:10134000110961E070E080E090E00E94B8010F3F79
:10135000100709F3D701ED91FC9111970780F085F3
:10136000E02D1582118281E0838314821296ED9123
:10137000FC910780F085E02D158211828383148211
:101380000E943408D6011496ED91FC914481558158
:1013900070E060E0818592850E943812C6010E944B
:1013A0006905C80126960FB6F894DEBF0FBECDBF03
:1013B000DF91CF911F910F91FF90EF90DF90CF9031
:1013C000BF90089501E010E0BCCF1F920F920FB6BE
:1013D0000F9211242F933F938F939F93AF93BF93BB
:1013E0008091E0019091E101A091E201B091E301CF
:1013F0003091DF0123E0230F2D3758F50196A11D11
:10140000B11D2093DF018093E0019093E101A0934F
:10141000E201B093E3018091E4019091E501A09194
:10142000E601B091E7010196A11DB11D8093E40191
:101430009093E501A093E601B093E701BF91AF91CE
:101440009F918F913F912F910F900FBE0F901F9002
:10145000189526E8230F0296A11DB11DD2CF1F9229
:101460000F920FB60F9211242F933F934F935F93D8
:101470006F937F938F939F93AF93BF93EF93FF935C
:101480008091F9019091FA018093B2008091FC0162
:101490009091FD01A091FE01B091FF010196A11D67
:1014A000B11D8093FC019093FD01A093FE01B093C8
:1014B000FF018091FC019091FD01A091FE01B0918E
:1014C000FF014091F5015091F6016091F701709193
:1014D000F80184179507A607B70710F18091FB0163
:1014E00081111EC081E08093FB018091FC019091ED
:1014F000FD01A091FE01B091FF01841B950BA60B8D
:10150000B70B8093FC019093FD01A093FE01B09373
:10151000FF01E091F301F091F40109951092FB01B4
:10152000FF91EF91BF91AF919F918F917F916F91BB
:101530005F914F913F912F910F900FBE0F901F9091
:1015400018951F920F920FB60F9211242F933F936D
:101550004F935F936F937F938F939F93AF93BF93BB
:10156000EF93FF938091B900887F803609F44AC0D9
:10157000F0F5883209F4A7C018F5803109F49BC052
:10158000B8F4882309F4F9C0883009F494C0FF91B5
:10159000EF91BF91AF919F918F917F916F915F91EB
:1015A0004F913F912F910F900FBE0F901F90189564
:1015B000883109F488C0803251F78093BC0114C08F
:1015C000803409F49DC040F48033B9F38833F9F6D0
:1015D0008093BC0185ECB0C0803509F485C08835A6
:1015E00009F496C0883499F60E943403D0CF883924
:1015F00009F48CC038F5883729F050F4883611F09A
:10160000803729F683E08093EE011092980157C04D
:10161000883809F47BC0803919F0803809F0B7CFD9
:1016200080919801803208F071C0E091980181E0CA
:101630008E0F809398018091BB00F0E0E858FE4F38
:1016400080833DC0803B39F0E0F4803A09F479C0F2
:10165000883A09F09CCF84E08093EE0110927701E4
:1016600010927601E091EA01F091EB0109958091E9
:10167000760181110FC081E08093760110925601AE
:1016800009C0803C09F4A6CF883C09F4A3CF883B6D
:1016900009F07DCFE091770181E08E0F8093770193
:1016A000F0E0EA5AFE4F80818093BB009091770171
:1016B0008091760129C0809199018093BB0085ECCF
:1016C0008093BC0064CF9091BB018091BA019817C0
:1016D00058F5E091BB0181E08E0F8093BB01F0E0F3
:1016E000E656FE4F8081E9CFE091BB0181E08E0F8D
:1016F0008093BB018091BB00F0E0E656FE4F8083F3
:101700009091BB018091BA019817C8F285E8D8CFB3
:10171000E091BB0181E08E0F8093BB018091BB0003
:10172000F0E0E656FE4F80838091ED0181115CCFA1
:1017300081E08093EC0184EA8093BC001092EE017A
:1017400026CF85EC8093BC001092EE018091980129
:10175000803230F4E0919801F0E0E858FE4F1082BA
:101760006091980170E0E091E801F091E90188E76B
:1017700091E00995109298010ACF1092BC0134CFE4
:10178000E8E0F2E01382128288EE93E0A0E0B0E09D
:1017900084839583A683B7838AE191E091838083D4
:1017A000E4E1F2E0138212828CE291E09183808383
:1017B00087E2848380E1818782E0828713860895AF
:1017C000CF93DF9300D000D000D0CDB7DEB77894B0
:1017D00084B5826084BD84B5816084BD85B5826036
:1017E00085BD85B5816085BD80916E0081608093E7
:1017F0006E00109281008091810082608093810050
:10180000809181008160809381008091800081605F
:10181000809380008091B10084608093B1008091BA
:10182000B00081608093B00080917A0084608093E2
:101830007A0080917A00826080937A0080917A00A9
:10184000816080937A0080917A00806880937A002A
:101850001092C10084E090E00E944D107C019093B2
:1018600001028093000286E090E00E944D108C01FE
:1018700022E0C22EDC01CC9215961C92159711968F
:101880001C921197DD24D3941396DC92139714962F
:101890001C9260E082E00E9442013FE0932EF8013A
:1018A0009282D7010D931C9386E090E00E944D1028
:1018B0008C0183E0F801808315821182D382148227
:1018C00060E00E944201D80112969C92F7011383B6
:1018D000028384E090E00E944D105C01909303022B
:1018E0008093020289E090E00E944D108C018EE00E
:1018F000D8018C9311969C92119786E012968C9346
:1019000062E08EE00E94420162E0F80181810E9463
:10191000420186E090E00E944D107C01D8011296B1
:101920008C91F701808315821182D382148260E04A
:101930000E944201D70112969C92F801F086E7823C
:10194000D5010D931C9389E090E00E944D108C010D
:1019500080E1F801808381E1818387E0828362E016
:1019600080E10E94420162E0D80111968C910E94B0
:10197000420186E090E00E944D107C01F8018281D6
:10198000D7018C9315961C92159711961C9211975E
:101990001396DC92139714961C9260E00E94420109
:1019A000F7019282D8011896FC92EE921797F501F2
:1019B0001383028386E090E00E944D107C0188E052
:1019C00090E0D70111969C938E934BE1A42EB12CFD
:1019D0001396BC92AE92129786E190E00E944D1051
:1019E0008C01FC01118210861786108A118A128AD6
:1019F000D686D3861486C586D08281E590E095830D
:101A000084830E944D10F80192878187009709F422
:101A1000EBC121E5DC011D922A95E9F7B382A28290
:101A200088E090E0D80117969C938E9316971196B4
:101A30008C91882341F061E088E00E94420160E0DF
:101A400088E00E941401EAEFF0E0E491F0E0EE0F8C
:101A5000FF1FE851FF4F85919491F801948B838B80
:101A6000ECEDF0E0E491D8015596EC935597F70131
:101A70001583048316968D919C9197FD09C061E0B2
:101A80000E94420160E0D80116968C910E941401D8
:101A9000DD24D394F801D182D7011496ED91FC9105
:101AA0004481558170E060E0818592850E94381202
:101AB000C7010E946905F0920502E09204028AE0E3
:101AC00090E00E944D108C01FC01F182E08283E0E5
:101AD00090E09583848397838683918780870E9493
:101AE0003206D80113969C938E9312971093070297
:101AF000009306021092F2011092F1011092F0018F
:101B00001092EF011092EE01D092ED011092EC01D3
:101B100061E082E10E94140161E083E10E9414010E
:101B20008091B9008E7F8093B9008091B9008D7F3C
:101B30008093B90088E48093B80085E48093BC006A
:101B40008CEB90E09093EB018093EA018DEB90E0B9
:101B50009093E9018093E8011092190280911E028E
:101B6000823018F098E09093190280931C0262E38F
:101B700070E080E090E00E94B80160911F0284E173
:101B800092E00E94EB0368EE73E080E090E00E9438
:101B9000B80160E384E192E00E94F0070BE416E4F0
:101BA000C8010197F1F760E384E192E00E94F00739
:101BB000C8010197F1F760E384E192E00E94F00729
:101BC00083E592E00197F1F760E284E192E00E9400
:101BD000F00760911902606240E084E192E00E94A7
:101BE000090884E080931A0240E06CE084E192E00E
:101BF0000E9409080E94340882E080931B0240E0A2
:101C000066E084E192E00E94090840E062E084E13D
:101C100092E00E9409088BE39FE10197F1F788E0C9
:101C200080931F0260E084E192E00E94EB0364E194
:101C300071E0CE0101960E944508BE016F5F7F4FA3
:101C400080E00E94200889819A810E94E91066E064
:101C500071E0CE0101960E944508BE016F5F7F4F83
:101C600081E00E94200889819A810E94E91085E024
:101C700090E0A0E0B0E08093F5019093F601A0938E
:101C8000F701B093F80185E395E09093F401809318
:101C9000F301809170008E7F809370008091B0007E
:101CA0008C7F8093B0008091B100877F8093B100DA
:101CB0008091B6008F7D8093B600809170008D7FFB
:101CC000809370008091B10084608093B100809116
:101CD000B1008C7F8093B10086E090E09093FA0190
:101CE0008093F9011092FC011092FD011092FE0107
:101CF0001092FF011092FB018091F9019091FA017D
:101D00008093B2008091700081608093700061E0E8
:101D10008DE00E94420185E10E947E01BC01990F85
:101D2000880B990B611571058105910511F00E94D1
:101D3000940F0E94450F82E090E00E944D108C01AC
:101D40008EE091E0F80191838083C8010E94EB0747
:101D50005C01C8010E94E91085E090E00E944D10EE
:101D60006C0184E191E0D6018D939C9384E090E036
:101D70000E944D108C01F601938382838CE090E0E9
:101D80000E944D10FC011082118212821382138670
:101D90001286158214821782168211861086D80147
:101DA0008D939C938CE090E00E944D10FC0110827A
:101DB0001182128213821386128615821482178270
:101DC000168211861086D80113969C938E931297D3
:101DD000E12CF12C0FE710E020E03FE740E050E07D
:101DE000B501C6010E94BB061582148213821282BD
:101DF00017CE8F929F92AF92BF92CF92DF92EF92C7
:101E0000FF92CF93DF93EC01688179818A819B8176
:101E1000611571058105910521F464E279ED8BE589
:101E200097E02DE133EF41E050E00E94AD0F490112
:101E30005A019B01AC01A7EAB1E40E94CC0F6B01EF
:101E40007C01ACEEB4EFA50194010E94DA0FC60E3E
:101E5000D71EE81EF91EF7FE06C081E0C81AD10899
:101E6000E10880E8F80AC882D982EA82FB82C701C9
:101E7000B6019F77DF91CF91FF90EF90DF90CF90E9
:101E8000BF90AF909F908F9008958F929F92AF9246
:101E9000BF92CF92DF92EF92FF926091000170911A
:101EA0000101809102019091030161157105810585
:101EB000910521F464E279ED8BE597E02DE133EFB4
:101EC00041E050E00E94AD0F49015A019B01AC0175
:101ED000A7EAB1E40E94CC0F6B017C01ACEEB4EF39
:101EE000A50194010E94DA0FC60ED71EE81EF91E46
:101EF000F7FE06C081E0C81AD108E10880E8F80AB8
:101F0000C0920001D0920101E0920201F09203011F
:101F1000C701B6019F77FF90EF90DF90CF90BF9001
:101F2000AF909F908F90089560930001709301018E
:101F300080930201909303010895FB01DC01059059
:101F40000D920020E1F70895FC0105900020E9F7CB
:101F5000809590958E0F9F1F0895052E97FB1EF478
:101F600000940E94C40F57FD07D00E94161007FC72
:101F700003D04EF40C94C40F5095409530952195A4
:101F80003F4F4F4F5F4F08959095809570956195A5
:101F90007F4F8F4F9F4F08950E943810A59F900D3F
:101FA000B49F900DA49F800D911D11240895B7FF3B
:101FB0000C94CC0F0E94CC0F821B930B08952F9290
:101FC0003F924F925F926F927F928F929F92AF92C9
:101FD000BF92CF92DF92EF92FF920F931F93CF9316
:101FE000DF93CDB7DEB7CA1BDB0B0FB6F894DEBFAD
:101FF0000FBECDBF09942A88398848885F846E84D3
:102000007D848C849B84AA84B984C884DF80EE801C
:10201000FD800C811B81AA81B981CE0FD11D0FB625
:10202000F894DEBF0FBECDBFED010895A1E21A2ED8
:10203000AA1BBB1BFD010DC0AA1FBB1FEE1FFF1F6C
:10204000A217B307E407F50720F0A21BB30BE40BBC
:10205000F50B661F771F881F991F1A9469F7609503
:102060007095809590959B01AC01BD01CF010895BD
:10207000A29FB001B39FC001A39F700D811D1124C9
:10208000911DB29F700D811D1124911D0895EE0FB9
:10209000FF1F0590F491E02D09940F931F93CF93A8
:1020A000DF938230910510F482E090E0E09122020B
:1020B000F091230230E020E0B0E0A0E0309799F406
:1020C0002115310509F44AC0281B390B243031058C
:1020D000D8F58A819B816115710589F1FB01938394
:1020E0008283FE0111C04081518102811381481712
:1020F0005907E0F04817590799F4109761F01296C4
:102100000C93129713961C933296CF01DF91CF91C7
:102110001F910F9108950093220210932302F4CF90
:102120002115310551F04217530738F0A901DB01A1
:102130009A01BD01DF01F801C1CFEF01F9CF909302
:10214000230280932202CDCFFE01E20FF31F819381
:1021500091932250310939832883D7CF20912002CF
:1021600030912102232B41F4209106013091070187
:102170003093210220932002209104013091050127
:102180002115310541F42DB73EB74091080150911A
:102190000901241B350BE0912002F0912102E21786
:1021A000F307A0F42E1B3F0B2817390778F0AC017A
:1021B0004E5F5F4F2417350748F04E0F5F1F509357
:1021C000210240932002819391939FCFF0E0E0E0C1
:1021D0009CCFCF93DF930097E9F0FC0132971382F5
:1021E0001282A0912202B0912302ED0130E020E0A2
:1021F0001097A1F420813181820F931F209120023A
:10220000309121022817390709F061C0F0932102AB
:10221000E0932002DF91CF910895EA01CE17DF0706
:10222000E8F54A815B819E0141155105B1F7E9014D
:10223000FB83EA8349915991C40FD51FEC17FD0721
:1022400061F4808191810296840F951FE901998341
:102250008883828193819B838A83F0E0E0E01296F9
:102260008D919C9113970097B9F52D913C91119701
:10227000CD010296820F931F2091200230912102FE
:102280002817390739F6309751F51092230210922A
:102290002202B0932102A0932002BCCFD383C28339
:1022A00040815181840F951FC817D90761F44E5F93
:1022B0005F4F88819981480F591F518340838A81DC
:1022C0009B81938382832115310509F0B0CFF09370
:1022D0002302E09322029ECFFD01DC01C0CF1382D6
:1022E0001282D7CFB0E0A0E0E8E7F1E10C94E10F73
:1022F0008C01009751F4CB010E944D108C01C80154
:10230000CDB7DEB7E0E10C94FD0FFC01E60FF71F3F
:102310009C0122503109E217F30708F49DC0D9014E
:10232000CD91DC911197C617D70798F0C530D1052C
:1023300030F3CE0104978617970708F3C61BD70B17
:102340002297C193D1936D937C93CF010E94E910A2
:10235000D6CF5B01AC1ABD0A4C018C0E9D1EA0911C
:102360002202B0912302512C412CF12CE12C109728
:1023700031F580912002909121028815990509F08C
:102380005CC04616570608F058C080910401909131
:102390000501009741F48DB79EB740910801509117
:1023A0000901841B950BE817F90708F055C0F09355
:1023B0002102E0932002F90171836083A0CF8D9107
:1023C0009C91119712966C90129713967C9013978C
:1023D000A815B90559F56C0142E0C40ED11CCA1408
:1023E000DB0420F1AC014A195B09DA01129615975A
:1023F00080F06282738251834083D9016D937C9314
:10240000E114F10471F0D7011396FC93EE93129747
:1024100076CF22968C0F9D1FF90191838083F30163
:10242000EFCFF0932302E093220269CF48165906BA
:1024300008F42C017D01D3019ACFCB010E944D10ED
:102440007C01009749F0AE01B8010E942F12C8012B
:102450000E94E910870153CF10E000E050CFFB014C
:10246000DC0102C001900D9241505040D8F7089510
:10247000DC0101C06D9341505040E0F70895F8949D
:02248000FFCF8C
:102482000100000000002402800000000000EB07B1
:1024920000000000BB0600000000BC038F034F04D5
:1024A2006503880375036603000000003F08BE0051
:0424B2004F0433039D
:107E0000112484B714BE81FFF0D085E080938100F7
:107E100082E08093C00088E18093C10086E0809377
:107E2000C20080E18093C4008EE0C9D0259A86E02C
:107E300020E33CEF91E0309385002093840096BBD3
:107E4000B09BFECF1D9AA8958150A9F7CC24DD24C4
:107E500088248394B5E0AB2EA1E19A2EF3E0BF2EE7
:107E6000A2D0813461F49FD0082FAFD0023811F036
:107E7000013811F484E001C083E08DD089C08234E0
:107E800011F484E103C0853419F485E0A6D080C0E4
:107E9000853579F488D0E82EFF2485D0082F10E0AE
:107EA000102F00270E291F29000F111F8ED06801E7
:107EB0006FC0863521F484E090D080E0DECF843638
:107EC00009F040C070D06FD0082F6DD080E0C81688
:107ED00080E7D80618F4F601B7BEE895C0E0D1E017
:107EE00062D089930C17E1F7F0E0CF16F0E7DF06D8
:107EF00018F0F601B7BEE89568D007B600FCFDCFD4
:107F0000A601A0E0B1E02C9130E011968C91119780
:107F100090E0982F8827822B932B1296FA010C0160
:107F200087BEE89511244E5F5F4FF1E0A038BF0790
:107F300051F7F601A7BEE89507B600FCFDCF97BE46
:107F4000E89526C08437B1F42ED02DD0F82E2BD052
:107F50003CD0F601EF2C8F010F5F1F4F84911BD097
:107F6000EA94F801C1F70894C11CD11CFA94CF0C13
:107F7000D11C0EC0853739F428D08EE10CD085E9AC
:107F80000AD08FE07ACF813511F488E018D01DD067
:107F900080E101D065CF982F8091C00085FFFCCF94
:107FA0009093C60008958091C00087FFFCCF809118
:107FB000C00084FD01C0A8958091C6000895E0E648
:107FC000F0E098E1908380830895EDDF803219F02E
:107FD00088E0F5DFFFCF84E1DECF1F93182FE3DFCA
:107FE0001150E9F7F2DF1F91089580E0E8DFEE27F6
:047FF000FF270994CA
:027FFE00040479
:0400000300007E007B
:00000001FF
