:100000000C9461000C947E000C947E000C947E0095
:100010000C947E000C947E000C947E000C947E0068
:100020000C947E000C947E000C947E000C947E0058
:100030000C947E000C947E000C947E000C947E0048
:100040000C94F9000C947E000C947E000C947E00BD
:100050000C947E000C947E000C947E000C947E0028
:100060000C947E000C947E00000000002400270009
:100070002A000000000023002600290000000000E4
:10008000250028002B0004040404040404040202D4
:100090000202020203030303030301020408102007
:1000A0004080010204081020010204081020000012
:1000B0000008000201000003040700000000000027
:1000C000000011241FBECFEFD8E0DEBFCDBF21E07E
:1000D000A6E0B1E001C01D92A531B207E1F711E041
:1000E000A0E0B1E0E4E1F7E002C005900D92A63097
:1000F000B107D9F70E9443010C9488030C940000C7
:10010000833081F028F4813099F08230A9F008958D
:100110008730A9F08830C9F08430B1F48091800034
:100120008F7D03C0809180008F7780938000089539
:1001300084B58F7784BD089584B58F7DFBCF809182
:10014000B0008F778093B00008958091B0008F7DCC
:10015000F9CF1F93CF93DF93EBEBF0E09491E7EAB5
:10016000F0E0D491E3E9F0E0C491CC23B9F0182F8A
:10017000992319F0892F0E948000EC2FF0E0EE0FF8
:10018000FF1FE458FF4FA591B4918FB7F894EC91FD
:10019000111108C0D095DE23DC938FBFDF91CF9182
:1001A0001F910895DE2BF8CF3FB7F89480910B0193
:1001B00090910C01A0910D01B0910E0126B5A89B64
:1001C00005C02F3F19F00196A11DB11D3FBFBA2FE9
:1001D000A92F982F8827BC01CD01620F711D811DA9
:1001E000911D42E0660F771F881F991F4A95D1F72E
:1001F00008951F920F920FB60F9211242F933F93E1
:100200008F939F93AF93BF938091070190910801C3
:10021000A0910901B0910A013091060123E0230F5A
:100220002D3758F50196A11DB11D2093060180932D
:10023000070190930801A0930901B0930A018091EE
:100240000B0190910C01A0910D01B0910E0101964E
:10025000A11DB11D80930B0190930C01A0930D0182
:10026000B0930E01BF91AF919F918F913F912F91CC
:100270000F900FBE0F901F90189526E8230F02963F
:10028000A11DB11DD2CF789484B5826084BD84B5A0
:10029000816084BD85B5826085BD85B5816085BD81
:1002A00080916E00816080936E0010928100809139
:1002B00081008260809381008091810081608093C1
:1002C0008100809180008160809380008091B100E6
:1002D00084608093B1008091B00081608093B00011
:1002E00080917A00846080937A0080917A008260A5
:1002F00080937A0080917A00816080937A00809167
:100300007A00806880937A001092C10086E090E0C5
:100310000E9463029093100180930F01C4E0D0E02B
:1003200010E000E06FE0F62E85E090E00E946302AE
:10033000DC01CC9314961C92149711961C92119781
:10034000FE01E656FF4F4491FE01EA57FF4F24910C
:100350002223D9F030E0220F331FF901E859FF4F73
:1003600085919491F901E458FF4F259134916FB72D
:10037000F894FC015081742F7095452F47234083DA
:10038000F9018081872380836FBF1296FC921297B8
:10039000E0910F01F0911001E00FF11FB183A083F4
:1003A0000E5F1F4F2196C730D10509F0BDCFE7EA98
:1003B000F0E02491E3E9F0E08491882399F090E063
:1003C000880F991FFC01E859FF4FA591B491FC01DA
:1003D000E458FF4F859194918FB7F894EC91E22BFC
:1003E000EC938FBFAA24A39490E0C92E90E0D92E5D
:1003F00010E000E0E0900F01F0901001F701E00F35
:10040000F11FC081D1819B80288130E0F901E25544
:10041000FF4F8491F901E656FF4FB490F901EA5776
:10042000FF4F8490882009F43EC081110E94800013
:10043000E82DF0E0EE0FFF1FEE58FF4FA591B491AD
:10044000EC91BE2231E020E009F430E0832F922FBE
:10045000F1E08F278170981229C019820E5F1F4F1B
:100460000630110509F0C6CFD701ED91FC918481CA
:10047000882339F181E00E94A9000E94D4002B0159
:100480003C010E94D4006419750986099709683EE9
:10049000734081059105A8F3C114D10409F4A8CFD4
:1004A0000E940000A5CF90E080E0D2CF89818F5FCD
:1004B00089839A81891794F28B818C838A258B8317
:1004C000CCCF80E0D8CF0F931F93CF93DF938230B0
:1004D000910510F482E090E0E0911301F091140195
:1004E00030E020E0B0E0A0E0309799F4211531052C
:1004F00009F44AC0281B390B24303105D8F58A810C
:100500009B816115710589F1FB0193838283FE0153
:1005100011C0408151810281138148175907E0F0D1
:100520004817590799F4109761F012960C93129797
:1005300013961C933296CF01DF91CF911F910F91AB
:1005400008950093130110931401F4CF2115310580
:1005500051F04217530738F0A901DB019A01BD01A0
:10056000DF01F801C1CFEF01F9CF9093140180931F
:100570001301CDCFFE01E20FF31F8193919322501F
:10058000310939832883D7CF20911101309112018D
:10059000232B41F420910201309103013093120189
:1005A00020931101209100013091010121153105A5
:1005B00041F42DB73EB74091040150910501241B31
:1005C000350BE0911101F0911201E217F307A0F44D
:1005D0002E1B3F0B2817390778F0AC014E5F5F4F99
:1005E0002417350748F04E0F5F1F509312014093B8
:1005F0001101819391939FCFF0E0E0E09CCFCF93E6
:10060000DF930097E9F0FC01329713821282A091E8
:100610001301B0911401ED0130E020E01097A1F436
:1006200020813181820F931F20911101309112019D
:100630002817390709F061C0F0931201E093110106
:10064000DF91CF910895EA01CE17DF07E8F54A81DF
:100650005B819E0141155105B1F7E901FB83EA83F6
:1006600049915991C40FD51FEC17FD0761F48081A2
:1006700091810296840F951FE90199838883828175
:1006800093819B838A83F0E0E0E012968D919C91A8
:1006900013970097B9F52D913C911197CD010296D2
:1006A000820F931F209111013091120128173907F1
:1006B00039F6309751F51092140110921301B0934E
:1006C0001201A0931101BCCFD383C2834081518119
:1006D000840F951FC817D90761F44E5F5F4F88815B
:1006E0009981480F591F518340838A819B8193834D
:1006F00082832115310509F0B0CFF0931401E09306
:1007000013019ECFFD01DC01C0CF13821282D7CF2F
:04071000F894FFCF8B
:0607140000001501800049
:107800000C94343C0C94513C0C94513C0C94513CE1
:107810000C94513C0C94513C0C94513C0C94513CB4
:107820000C94513C0C94513C0C94513C0C94513CA4
:107830000C94513C0C94513C0C94513C0C94513C94
:107840000C94513C0C94513C0C94513C0C94513C84
:107850000C94513C0C94513C0C94513C0C94513C74
:107860000C94513C0C94513C11241FBECFEFD8E036
:10787000DEBFCDBF11E0A0E0B1E0ECE9FFE702C060
:1078800005900D92A230B107D9F712E0A2E0B1E065
:1078900001C01D92AD30B107E1F70E942D3D0C945F
:1078A000CC3F0C94003C982F959595959595959582
:1078B000905D8F708A307CF0282F295A8091C0000B
:1078C00085FFFCCF9093C6008091C00085FFFCCF60
:1078D0002093C6000895282F205DF0CF982F809127
:1078E000C00085FFFCCF9093C6000895EF92FF92F1
:1078F0000F931F93EE24FF2487018091C00087FD22
:1079000017C00894E11CF11C011D111D81E4E8164B
:1079100082E4F8068FE0080780E0180770F3E09132
:107920000401F091050109958091C00087FFE9CF1E
:107930008091C6001F910F91FF90EF9008950E94D3
:10794000763C982F8091C00085FFFCCF9093C600B5
:1079500091362CF490330CF09053892F089597555D
:10796000892F08951F930E949F3C182F0E949F3CCF
:107970001295107F810F1F9108951F93182F882350
:1079800021F00E94763C1150E1F71F9108951F935A
:10799000182F0E94763C803249F0809103018F5F5E
:1079A000809303018530C1F01F9108958091C0003C
:1079B00085FFFCCF84E18093C6008091C00085FFE5
:1079C000FCCF1093C6008091C00085FFFCCF80E102
:1079D0008093C6001F910895E0910401F091050184
:1079E00009951F9108950E94763C803241F0809164
:1079F00003018F5F80930301853081F008958091AA
:107A0000C00085FFFCCF84E18093C6008091C00058
:107A100085FFFCCF80E18093C6000895E0910401CA
:107A2000F09105010995089540E951E08823A1F0FE
:107A30002D9A28EE33E0FA013197F1F721503040CA
:107A4000D1F72D9828EE33E0FA013197F1F7215064
:107A50003040D1F7815061F708953F924F925F9285
:107A60006F927F928F929F92AF92BF92CF92DF924E
:107A7000EF92FF920F931F93CF93DF93000080E16B
:107A80008093C4001092C50088E18093C10086E015
:107A90008093C2005098589A259A81E00E94143D24
:107AA00024E1F22E9EE1E92E85E9D82E0FE0C02ECA
:107AB00010E1B12EAA24A394B1E49B2EA6E58A2E50
:107AC000F2E57F2EE0E26E2E79E4572E63E5462E36
:107AD00050E5352E0E94763C8033B1F18133B9F107
:107AE000803409F46FC0813409F476C0823409F41B
:107AF00085C0853409F488C0803531F1823521F1A3
:107B0000813511F1853509F485C0863509F48DC0BC
:107B1000843609F496C0843709F403C1853709F423
:107B200072C1863709F466C0809103018F5F80932C
:107B30000301853079F6E0910401F0910501099582
:107B40000E94763C803351F60E94F33CC3CF0E94E2
:107B5000763C803249F78091C00085FFFCCFF092DF
:107B6000C6008091C00085FFFCCF9092C600809136
:107B7000C00085FFFCCF8092C6008091C00085FFC9
:107B8000FCCF7092C6008091C00085FFFCCF609250
:107B9000C6008091C00085FFFCCF5092C600809146
:107BA000C00085FFFCCF4092C6008091C00085FFD9
:107BB000FCCF3092C6008091C00085FFFCCFB09210
:107BC000C60088CF0E94763C863808F4BDCF0E945C
:107BD000763C0E94F33C7ECF0E94763C803809F4CC
:107BE0009CC0813809F40BC1823809F43CC1883942
:107BF00009F48FC080E00E94C73C6CCF84E10E94F2
:107C0000BD3C0E94F33C66CF85E00E94BD3C0E94D3
:107C1000F33C60CF0E94763C809306010E94763C44
:107C2000809307010E94F33C55CF0E94763C80333D
:107C300009F41DC183E00E94BD3C80E00E94C73C66
:107C400049CF0E94763C809309020E94763C809343
:107C5000080280910C028E7F80930C020E94763C79
:107C6000853409F415C18091080290910902892B8D
:107C700089F000E010E00E94763CF801E85FFE4FDA
:107C800080830F5F1F4F80910802909109020817AF
:107C9000190788F30E94763C803209F045CF809125
:107CA0000C0280FF01C16091060170910701660F0F
:107CB000771F7093070160930601A0910802B091AD
:107CC00009021097C9F0E8E0F1E09B01AD014E0F09
:107CD0005F1FF999FECF32BD21BD819180BDFA9A17
:107CE000F99A2F5F3F4FE417F50799F76A0F7B1F4B
:107CF00070930701609306018091C00085FFFCCF5F
:107D0000F092C6008091C00085FFFCCFB092C60003
:107D1000E1CE83E00E94C73CDDCE82E00E94C73CFA
:107D2000D9CE0E94763C809309020E94763C8093D3
:107D300008028091060190910701880F991F909386
:107D40000701809306010E94763C853409F4A6C0A1
:107D500080910C028E7F80930C020E94763C8032D0
:107D600009F0B8CE8091C00085FFFCCFF092C6002C
:107D7000609108027091090261157105B9F140E046
:107D800050E080910C02A82FA170B82FB27011C0E2
:107D9000BB2309F45CC0E0910601F0910701319624
:107DA000F0930701E09306014F5F5F4F46175707B7
:107DB000E8F4AA2369F3F999FECF209106013091E6
:107DC000070132BD21BDF89A90B58091C00085FFB2
:107DD000FCCF9093C6002F5F3F4F30930701209355
:107DE00006014F5F5F4F4617570718F38091C00099
:107DF00085FDE5CE8091C00085FFF8CFE0CE81E023
:107E00000E94C73C67CE0E94763C803209F08CCE3F
:107E10008091C00085FFFCCFF092C6008091C00029
:107E200085FFFCCFE092C6008091C00085FFFCCFAB
:107E3000D092C6008091C00085FFFCCFC092C600E2
:107E40008091C00085FFFCCFB092C60043CEE09188
:107E50000601F091070194918091C00085FFFCCF4D
:107E60009093C6009CCF80E10E94C73C33CE0E9415
:107E7000763C0E94763C182F0E94763C112309F430
:107E800083C0113009F484C08FE00E94C73C22CE29
:107E900080910C02816080930C02E5CE80910C02EF
:107EA000816080930C0259CF809107018823880F4D
:107EB000880B8A2180930B02809106019091070123
:107EC000880F991F90930701809306018091080203
:107ED00080FF09C080910802909109020196909359
:107EE000090280930802F894F999FECF1127E091D6
:107EF0000601F0910701C8E0D1E08091080290915D
:107F00000902103091F40091570001700130D9F34B
:107F100003E000935700E89500915700017001308D
:107F2000D9F301E100935700E89509901990009169
:107F3000570001700130D9F301E000935700E89534
:107F40001395103498F011270091570001700130FB
:107F5000D9F305E000935700E895009157000170B0
:107F60000130D9F301E100935700E895329602976A
:107F700009F0C7CF103011F00296E5CF112480919F
:107F8000C00085FFB9CEBCCE8EE10E94C73CA2CD19
:0C7F900085E90E94C73C9ECDF894FFCF0D
:027F9C00800063
:040000030000780081
:00000001FF
